:020000040800F2
:1000000000000220D5200008451D0008471D0008FB
:10001000491D00084B1D00084D1D00080000000090
:10002000000000000000000000000000914C0008EB
:100030004F1D000800000000314D0008954D0008DC
:100040002521000825210008252100082521000878
:100050002521000825210008252100082521000868
:1000600025210008511D0008252100082521000830
:100070002521000825210008252100082521000848
:100080002521000825210008252100082521000838
:100090002521000825210008252100082521000828
:1000A0002521000825210008252100082521000818
:1000B000252100085D1D00082521000825210008D4
:1000C00025210008252100082521000825210008F8
:1000D000252100086D1D00082521000825210008A4
:1000E00025210008252100082521000825210008D8
:1000F00025210008252100082521000825210008C8
:1001000025210008252100082521000825210008B7
:100110002521000825210008252100087D1D000853
:1001200025210008252100088D1D00089D1D0008BF
:100130002521000825210008252100082521000887
:100140002521000825210008252100082521000877
:100150002521000825210008AD1D000825210008E3
:100160002521000825210008252100082521000857
:100170002521000825210008252100080000000095
:080180002521000825210008DB
:1001C00010B5054C237833B9044B13B10448AFF391
:1001D00000800123237010BD5C0800200000000097
:1001E000C075000808B5034B1BB103490348AFF3C2
:1001F000008008BD0000000060080020C0750008F5
:1002000053B94AB9002908BF00281CBF4FF0FF317D
:100210004FF0FF3001F0F8B8ADF1080C6DE904CEF5
:1002200000F006F8DDF804E0DDE9022304B07047D1
:100230002DE9F047089E04468846002B4BD18A42A0
:10024000154667D9B2FA82F24AB1C2F1200701FA23
:1002500002F320FA07F7954047EA030894404FEA73
:10026000154E230CB8FBFEF71FFA85FC0EFB178812
:1002700043EA084307FB0CF1994209D9EB1807F14F
:10028000FF3080F01B81994240F21881023F2B44DD
:100290005B1AA4B2B3FBFEF00EFB103344EA034436
:1002A00000FB0CFCA44509D92C1900F1FF3380F0A8
:1002B0000781A44540F2048102382C4440EA0740FB
:1002C000A4EB0C0400271EB1D4400023C6E9004370
:1002D0003946BDE8F0878B4209D9002E00F0EB804B
:1002E0000027C6E9000138463946BDE8F087B3FA71
:1002F00083F7002F47D18B4202D3824200F2FA806B
:10030000841A61EB030301209846002EE0D0C6E971
:100310000048DDE702B9FFDEB2FA82F2002A40F0BF
:100320008F80491B4FEA154E1FFA85F80127B1FB54
:10033000FEFC230C0EFB1C1143EA014308FB0CF1ED
:10034000994207D9EB180CF1FF3002D2994200F222
:10035000CD808446591AA3B2B1FBFEF00EFB1014F7
:1003600043EA044408FB00F8A04507D92C1900F122
:10037000FF3302D2A04500F2B6801846A4EB080471
:1003800040EA0C409FE7C7F1200CBB4022FA0CFE6C
:100390004EEA030E01FA07F420FA0CF521FA0CF3E9
:1003A0004FEA1E482543B3FBF8F92C0C08FB193320
:1003B0001FFA8EFA44EA034309FB0AF49C4202FA4C
:1003C00007F200FA07F10BD91EEB030309F1FF3026
:1003D00080F087809C4240F28480A9F10209734436
:1003E0001B1BADB2B3FBF8F008FB103345EA034426
:1003F00000FB0AFAA24508D91EEB040400F1FF3302
:100400006BD2A24569D90238744440EA0940A0FB86
:100410000289A4EB0A044C45C2464B4654D351D042
:10042000002E69D0B1EB0A0564EB030404FA0CFC5E
:10043000FD40FC404CEA0505C6E90054002747E7AB
:10044000C2F1200320FA03F7954001FA02F021FAE5
:1004500003F34FEA154E3843010CB3FBFEF71FFAC6
:1004600085F80EFB173341EA034107FB08F38B4283
:1004700004FA02F407D9691807F1FF3C2FD28B4226
:100480002DD9023F2944CB1A81B2B3FBFEF00EFBFB
:10049000103341EA034100FB08F38B4207D9691886
:1004A00000F1FF3C17D28B4215D902382944C91AF2
:1004B00040EA07473BE73746304609E70746E7E6A5
:1004C0001846FBE64145ABD2B8EB020A69EB0E02D7
:1004D00001381346A4E76046E9E7184695E7674602
:1004E000D1E781467CE702382C4447E7ACF1020CA7
:1004F0002B442FE7384608E73746E9E603685A00F9
:100500004CBF43F0004323F000431844704700BF42
:1005100061B32DE9F84F01F1FF3A90460646D14606
:10052000002707EB090404EBD4746410E50071198B
:100530000846FFF7E3FFA245834605F10800304473
:1005400009D0FFF7DBFFC34500F1FF3005D8404578
:1005500009D2671CE5E7C34505D9A74202D004F1DB
:10056000FF39DEE700210846BDE8F88F08467047EE
:10057000012807D0022807D0044B00280CBF1846DA
:100580000020704702487047024870475D0C000821
:10059000610C0008650C000830B5254B83B004469B
:1005A0008D1E4BB301A92846AFF30080F0B101992D
:1005B0002A46FFF7ADFF0146C0B1FFF79FFF4B682A
:1005C000A064012B2ED0002B01F1040026DBFFF7E5
:1005D00095FF0023C4E913030368002B12DBFFF728
:1005E0008DFF00232061184603B030BD0023236136
:1005F0000923184603B030BD0E490F48091AC91027
:100600000191D5E7C3F30360FFF7B2FF002814BFE1
:10061000002309232061184603B030BD0123C4E93B
:100620001303D9E7002323610523184603B030BD27
:1006300000000000A8770008D87600080368DA07F1
:1006400010B5044606D49B0700F1480009D500F018
:100650005FFC2368590709D51A070ED5DB0613D5A9
:1006600010BD00F04DFC23685907F5D404F1D0000B
:1006700000F056FC23681A07F0D404F5A87000F0C7
:1006800057FC2368DB06EBD404F5E870BDE81040A6
:1006900000F092BC036803B103441846704700BFE2
:1006A00009207047704700BF70B504460D4608E04A
:1006B0002B6C63612A46236921460120984708284C
:1006C00008D1296C2046FFF767FF06460028EFD0C7
:1006D00006F014FA0728FBD13046296CFFF7E2FF39
:1006E000281D00F001FC00BF2DE9F0470C1D054658
:1006F00017460FCCADF5727D03AE0FC60FCC0FC6FB
:100700000FCC0FC694E80F0002ACD5F80C80D5F8DA
:10071000189086E80F000023236021E0236C6B61B2
:100720004FF4F07221467AA800F070FE2B697AAA85
:10073000294630469847889BCDE900498246636444
:1007400031462B462A460120C0470746F8B94FF4E8
:10075000F0727AA9204600F059FEBAF1080F1CD1B8
:10076000216C2846FFF718FF002F08BF092607460F
:1007700018BF0A260028D1D0A36B46F01001CDE99E
:1007800000492A46636401202B46C04700B109276F
:1007900038460DF5727DBDE8F087BAF1070FF6D146
:1007A0003846216CFFF77EFF03A800F09DFB00BFD9
:1007B000406C7047F0B5CB6B0B640D1D0F460646C1
:1007C0000FCDF9B001AC0FC40FCD0FC40FCD0FC4C6
:1007D00095E80F004FF0FF3584E80F00009506E024
:1007E00033696A46314698470828044608D110996B
:1007F0003046FFF7D1FE0028F2D0092079B0F0BDD5
:100800006846FFF71BFF062CF7D139463046FFF745
:100810004BFF00BF30B4DD6BC160826119461D64BF
:10082000002230BC60E700BF70B5C66843690B6446
:10083000BEB903690A4604460D46014602209847A0
:10084000072807D0082803D129462046FFF72CFFA8
:1008500006F054F93046296CFFF724FF281D00F0FC
:1008600043FB0122FFF740FF06F048F9C2681AB1C6
:10087000CA6B0A64002237E79CE700BF704700BFDD
:10088000836813B10146012018477047042907D82F
:10089000DFE801F00308060808000BB90F2A03D9A6
:1008A000022070470120704700EB8202184653680F
:1008B000009A1360704700BF10B584B0002303ACEA
:1008C0000A4600941946FFF7E1FF039804B010BDF3
:1008D000042907D8DFE801F00308060808000BB96F
:1008E0000F2A03D9022070470120704700EB8200D5
:1008F000009A126842601846704700BF10B584B075
:1009000004AC002344F8042D0A4600941946FFF76E
:10091000DFFF04B010BD00BFF0B5D36B1364151D2D
:1009200007460E460FCDADF50F7D17AC0FC40FCDAA
:100930000FC40FCD0FC495E80F004FF0FF3584E8CA
:100940000F00169510E016A8FFF7D8FF314616A83D
:10095000B84716AA694678B9049B08209847052825
:1009600004460AD0092807D026996846FFF714FEE6
:100970006A460C210028E6D0092416A8FFF75EFE7F
:1009800020460DF50F7DF0BD2DE9F04F0D46C96CE9
:1009900089B00C1D164600F0030B0A6806941F462A
:1009A000002B68D0130CD9B212048DF81D3002232D
:1009B00004EB810405928DF81C302B6DBBF1020F06
:1009C00008BFAC6B13F0010346D1019300F008039C
:1009D0000093D4F80090B9F1000F00F0F380022FDB
:1009E00045D0B4F80090B4F802800434AB6C28F021
:1009F000010A0F2130469A44FFF75EFF824534D842
:100A000029F001035344834294BF002001204FEAA0
:100A1000480808F0020809F0010948EA0908B8F195
:100A2000010F3AD031D3B8F1020F1AD1236823F065
:100A3000004ABBF1000F66D130B1009A002A6CD099
:100A4000BAF1000F00F09080002B00DA04340AF1B4
:100A5000010304EB8304BCE7304605A900F046FB24
:100A600078B1092009B0BDE8F08F0020CFE7D4F8B5
:100A700004800834BAE7120203230592ADF81C3053
:100A80009BE7082009B0BDE8F08FBBF1000F02D052
:100A9000002840F0B48004349BE7BBF1000F18D16C
:100AA000A8B1D4E90023991C4FEAD272D9D005F13C
:100AB00058010133049100F0B580201DFFF7EAFDD5
:100AC00004AB01462846AFF30080002867D1083404
:100AD0007FE70D213046D5F82080FFF7EDFE8045F9
:100AE000F5D1AB6A9C42F2D12046FFF707FD0F21FA
:100AF00002463046FFF702FF30462A460021FFF744
:100B0000FDFE0720AEE70D213046D5F82080FFF727
:100B1000D3FE804532D0236896E7BAF1000F23D088
:100B200005F1580304F10408CDF808B0DDF8009091
:100B30000397A3461C4602E05745B94640D04046BD
:100B40000494FFF7A7FD04AB014600222846AFF34B
:100B5000008009F1010708F104080028ECD0D14514
:100B60005C46DDE902B7D6D130460D21FFF7A4FE81
:100B7000049B2862C5E90934062073E7AB6A9C42EE
:100B8000C9D104224FF00008A318C5E90AA8C5E995
:100B90000C23236843454DDB0123019357E780462F
:100BA0000D213046FFF788FEB8F1020F28623ED1D2
:100BB0002B46049A43F82C2F6B62AC62062051E757
:100BC0005C46D1E705A9304600F090FA00287FF492
:100BD00048AF019B002B3FF454AF0F213046FFF785
:100BE0006BFE0E2102463046FFF788FE30461A4A59
:100BF0000F21FFF783FE072009B0BDE8F08F2046E4
:100C0000FFF77CFC04340746AC632846AFF3008052
:100C100000283FF426AF30463A460F21FFF76EFE1C
:100C200007201FE730460D21FFF746FE2862049B90
:100C30006B62C2E70AF1010004EB8000FFF75EFC83
:100C40000F2102463046FFF759FE30462A464146FC
:100C5000FFF754FE072005E700000000002393E69D
:100C6000012391E602238FE62DE9F0410546C4B049
:100C7000042906D8DFE801F04D2B05030900032BFA
:100C80005FD0022044B0BDE8F081002BF9D1102ADA
:100C9000F7D82B68DC0600F1F48022AC20460192E4
:100CA00000F094F9A86B019A0023012606FA03F1DB
:100CB000114203D0016844F8231004300133042B9F
:100CC000F4D1A863204600F077F90020DAE7012B81
:100CD0004FEA124697B252D0052BD2D106EB070845
:100CE000B8F1200FCDD80F2E40F29980B846002FD2
:100CF00040F0DB80AA6BAA630F2E40F2BE80B8F1F1
:100D0000000F02D002A800F00BF9002044B0BDE8AB
:100D1000F081002BB5D1AC6B97B2281D012606FAE5
:100D200003F1394203F1010302D021680160043468
:100D3000102B00F10400F2D112F40050E5D1AC63A5
:100D4000A0E7160C97B2F319102B9AD82B681A0744
:100D50005DD422AC204600F00DF904EBC601AB6B6C
:100D60003FB103EBC702186841F8040B0433934208
:100D7000F9D12046AB6300F0DBF8002082E7F219DE
:100D8000102A3FF67EAF0F2E3FF67BAF2A68D107C1
:100D900008D5284622F0030240F8482B019300F0C2
:100DA000B3F8019B019322AC204600F0ADF8A96B8B
:100DB000019B002F00F095807F0004EBC6044FF0EC
:100DC0000008043C01EB870251F8040B44F8040FBF
:100DD0009142F9D1B8F1000F0FD002AC102E31467C
:100DE00038BF102104EBC101843902EBC80452F86A
:100DF000040B41F8040F9442F9D1012B7FF47BAF2F
:100E000022AC0432AA63204600F07AF87DE723F092
:100E100008032B6005F5A87000F0ACF899E7B8F16D
:100E2000100F2A6843D9D007A8F110080BD528461F
:100E300022F0010242F0020240F8482B019300F038
:100E40006BF82A68019B510725D40F2E04D822A8DD
:100E5000019300F061F8019B019302AC204600F081
:100E600063F8C6F110010029AA6B019BB6DD22AC24
:100E70004F0004EBC6041146A3E722A800F048F88F
:100E80003DE723F010032B6005F5E870019200F0B8
:100E90009DF8019A01E7284622F0040240F8D02B81
:100EA000019300F041F8019BCFE72A68CBE7D00718
:100EB0000AD5284622F0010242F0020240F8482BEF
:100EC000019300F029F8019B019322AC204600F029
:100ED00023F8B846A96B019B002F7FF46DAF0A463B
:100EE00009E70A468DE700BF00F1340191E83800B8
:100EF0009C46A6464CF8045D90E8FF0FE54600BD11
:100F000090EC210B704700BF80EC210B704700BFB5
:100F100090EC200B704700BF80EC200B704700BFA7
:100F2000D0EC200B704700BFC0EC200B704700BF17
:100F3000F0EC0201F0EC0211F0EC0221F0EC0231D5
:100F4000F0EC0241F0EC0251F0EC0261F0EC0271C5
:100F5000F0EC0281F0EC0291F0EC02A1F0EC02B1B5
:100F6000F0EC02C1F0EC02D1F0EC02E1F0EC02F1A5
:100F7000704700BFE0EC0201E0EC0211E0EC02215E
:100F8000E0EC0231E0EC0241E0EC0251E0EC026105
:100F9000E0EC0271E0EC0281E0EC0291E0EC02A1F5
:100FA000E0EC02B1E0EC02C1E0EC02D1E0EC02E1E5
:100FB000E0EC02F1704700BFB0FC0181B0FC019190
:100FC000B0FC01A1B0FC01B1704700BFA0FC0181E1
:100FD000A0FC0191A0FC01A1A0FC01B1704700BFE1
:100FE000EC4600B52DE900502DE9FF1F4FF000033E
:100FF0002DE90C0001A9FFF7DDFBDDF840E012B0A0
:10100000704700BFEC4600B52DE900502DE9FF1FE9
:101010004FF000032DE90C0001A9FFF705FCDDF8F6
:1010200040E012B0704700BFEC4600B52DE900501B
:101030002DE9FF1F4FF000032DE90C0001A9FFF778
:1010400015FCDDF840E012B0704700BFEC4600B57B
:101050002DE900502DE9FF1F4FF000032DE90C0092
:1010600001ABFFF7D7FBDDF840E012B0704700BFDF
:10107000EC4600B52DE900502DE9FF1F4FF00003AD
:101080002DE90C0001AAFFF747FCDDF840E012B0A3
:10109000704700BF027A82B9437AABB14268013B24
:1010A00010B4437213680321141D01721A024460C4
:1010B00002605DF8044B180E70470368013A027233
:1010C0001A020260180E7047B020704700B585B054
:1010D00003AA0023009219460C22FFF7D7FB0398BE
:1010E00005B05DF804FB00BFF0E700BF2DE9F04359
:1010F000054685B00E464FF000083046FFF7CAFFA0
:10110000B028044600F0B180070620D500F0F003B7
:10111000802B65D0902B36D0A02B78D0B02B47D029
:10112000C02B00F08A8000F0F803D02B0BD100F028
:101130000702013242F40022052301212846FFF76D
:1011400093FD0028D9D0092005B0BDE8F0830DF14A
:101150000C09002319468700CDF800900D2228467F
:10116000FFF794FBFFB2039BCDF8009004376006B5
:101170004CBFDF1BFF18002319460D22284603979A
:10118000FFF7A6FBB9E700F00D030D2BDBD003AF93
:10119000002300F00F02194600972846FFF776FB60
:1011A0000023009719460D222846FFF791FBA4E77C
:1011B000B1285FD0B22800F0CC80B3287ED000F0F8
:1011C000FC03B42BBFD000F007020132012342F42C
:1011D000002219462846FFF747FD00288DD0B2E7C8
:1011E0003046FFF757FF24020443B4F5004FAAD05E
:1011F00024010023A2B219462846FFF735FD002836
:10120000A1D114F4004F18BF4FF0010875E7C24395
:1012100002F007034FF47F621A41010702F47F6274
:101220004FF0000348BF42F4804219462846FFF7BA
:101230001BFD00283FF461AF85E7C62851D0C728C1
:101240005AD000F0F803C02B69D0C82875D0C9283F
:101250007FF479AF3046FFF71DFF020300F00F0067
:1012600002F470220130024366E7B8F1000F14D097
:10127000002069E73046FFF70DFF00283FF463AF19
:1012800010F0F0037FF45FAF024619462846FFF7DF
:10129000EBFC00283FF431AF55E703AC43460E2288
:1012A000414600942846FFF7F1FA00942846434649
:1012B0000F224146FFF70CFB404645E73046FFF75B
:1012C000E9FE010300F00F0001F47021421C01232C
:1012D0000A4328461946FFF7C7FC00283FF40DAF24
:1012E00031E73046FFF7D6FE010300F00F0001F4AE
:1012F0007021421C0323EBE73046FFF7CBFE02468A
:1013000000283FF420AF10F0F0037FF41CAF04215D
:101310002846FFF7A9FC00283FF4EFAE13E700F0E2
:101320000F020132032342F4202219462846FFF718
:101330009BFC00283FF4E1AE05E73046FFF7AAFE2C
:1013400000F0F00200F00F031032013343EA0232E2
:10135000F2E600230DF10C090D221946CDF800909C
:101360002846FFF793FA3046FFF794FE02064FF047
:1013700002070CD5039B00F07F00B84003443046C1
:101380000393FFF787FE030607F10707F2D4039BD9
:10139000CDF8009000F07F0403F50172BC400023FB
:1013A000144419460D2228460394FFF791FAA4E647
:1013B00010B5C36C84B05A6803208DF80C00DC793A
:1013C0008DF80D4012020833084601A901920293DC
:1013D000FFF78CFE04B010BD08B5FFF785FE806CEA
:1013E00008BD00BF08B5FFF77FFEC06CC37900EBF6
:1013F0008300083008BD00BF08B505F07FFB00BFC3
:1014000008B5FFF7F9FF00BF704700BF844641EA07
:10141000000313F003036DD1403A41D351F8043B6C
:1014200040F8043B51F8043B40F8043B51F8043BBE
:1014300040F8043B51F8043B40F8043B51F8043BAE
:1014400040F8043B51F8043B40F8043B51F8043B9E
:1014500040F8043B51F8043B40F8043B51F8043B8E
:1014600040F8043B51F8043B40F8043B51F8043B7E
:1014700040F8043B51F8043B40F8043B51F8043B6E
:1014800040F8043B51F8043B40F8043B51F8043B5E
:1014900040F8043B51F8043B40F8043B403ABDD2CD
:1014A000303211D351F8043B40F8043B51F8043B6F
:1014B00040F8043B51F8043B40F8043B51F8043B2E
:1014C00040F8043B103AEDD20C3205D351F8043BFE
:1014D00040F8043B043AF9D2043208D0D2071CBFCA
:1014E00011F8013B00F8013B01D30B8803806046F3
:1014F000704700BF082A13D38B078DD010F0030369
:101500008AD0C3F10403D21ADB071CBF11F8013BD8
:1015100000F8013B80D331F8023B20F8023B7BE727
:10152000043AD9D3013A11F8013B00F8013BF9D252
:101530000B7803704B7843708B78837060467047EC
:1015400090F800F06DE9024520F007016FF0000C03
:1015500010F0070491F820F040F049804FF00004AB
:101560006FF00700D1E9002391F840F000F1080086
:1015700082FA4CF2A4FA8CF283FA4CF3A2FA8CF3BE
:101580004BBBD1E9022382FA4CF200F10800A4FA25
:101590008CF283FA4CF3A2FA8CF3E3B9D1E9042379
:1015A00082FA4CF200F10800A4FA8CF283FA4CF3B0
:1015B000A2FA8CF37BB9D1E9062301F1200182FA6A
:1015C0004CF200F10800A4FA8CF283FA4CF3A2FA70
:1015D0008CF3002BC6D0002A04BF04301A4612BA7E
:1015E000B2FA82F2FDE8024500EBD2007047D1E981
:1015F000002304F00305C4F100004FEAC50514F010
:10160000040F91F840F00CFA05F562EA05021CBFE0
:1016100063EA050362464FF00004A9E710B582B003
:1016200000240194114B1A6B42F480021A631B6B65
:1016300003F480030193019B224605213A2000F028
:10164000C5FD3A2000F0F6FD224605213B2000F0C2
:10165000BDFD3B2000F0EEFD22460521462000F0B6
:10166000B5FD462000F0E6FD02B010BD0038024096
:1016700008B5012003F041FAFBE7000008B505E0DA
:1016800001224FF480510F4801F0E4F805F08AF888
:101690000028F5D100224FF480510A4801F0DAF811
:1016A000094802F047FC4FF0FF31084B186803F07F
:1016B000EDFF0128F7D1064A0649074805F080F8F2
:1016C000F1E700BF001C0240E00C00207C08002075
:1016D000484B0020304B00203C4B0020034B036064
:1016E000034B0B6080231360704700BF8C0A0020FF
:1016F0008C080020F0B59BB000271897199701219E
:1017000018A803F003FA1C4B1860169717970121CD
:1017100016A803F0FBF9194B1860194C0FAD2646BB
:101720000FCE0FC596E8070085E8070039460FA8D9
:1017300003F0ADF9134B186008AD04F11C060FCE91
:101740000FC596E8070085E80700394608A803F0AA
:101750009EF90D4B186001AD38340FCC0FC594E8DD
:10176000070085E80700394601A803F090F9074B08
:1017700018601BB0F0BD00BF7C080020800800206E
:10178000D875000888080020780800208408002008
:101790002DE9F0438DB000240794089409940A942D
:1017A0000B9401944D4B1A6B42F002021A631A6BB0
:1017B00002F002020192019A02941A6B42F00102B5
:1017C0001A631A6B02F001020292029A03941A6BD6
:1017D00042F004021A631A6B02F004020392039AA5
:1017E00004941A6B42F080021A631A6B02F08002B2
:1017F0000492049A05941A6B42F040021A631A6B21
:1018000002F040020592059A06941A6B42F02002FB
:101810001A631B6B03F020030693069B304E0122D4
:101820004021304601F016F8DFF8C08022464FF420
:10183000E051404601F00EF8DFF8B490012210218B
:10184000484601F007F8274F01221146384601F0BB
:1018500001F8402307930125089509950A9507A9E2
:10186000304600F00DFF4FF4E053079308950994BC
:101870000A9407A9404600F003FF08230793DFF806
:101880007480CDF82080099507A9304600F0F8FE55
:10189000102307930895099502260A9607A948463A
:1018A00000F0EEFE30230793CDF82080099507A9BC
:1018B0000D4800F0E5FE0795089509950A9607A9D9
:1018C000384600F0DDFE22460521092000F07EFCAE
:1018D000092000F0AFFC0DB0BDE8F08300380240F5
:1018E000001802400004024000080240001C0240B0
:1018F000000002400000211008B50B480B4B0360AC
:101900000B4B436000238360C3604FF4804202614D
:1019100043618361C361036201F0FCF900B908BD52
:1019200000F08CF8FBE700BFE00A0020005C0040FC
:10193000801A06002DE9F04389B000230393049335
:101940000593069307930268234B9A4202D009B08D
:10195000BDE8F08300250095204C236B43F0040381
:101960002363236B03F004030093009B0195236B17
:1019700043F001032363236B03F001030193019BF5
:101980004FF4007303934FF01209CDF810904FF00D
:101990000108CDF81480032706970426079603A9AB
:1019A0000F4800F06DFE4FF480730393CDF8109054
:1019B000CDF814800697079603A90A4800F060FE48
:1019C0000295236C43F400032364236C03F40003A7
:1019D0000293029BBBE700BF005C0040003802405E
:1019E000000802400000024010B582B004460268C0
:1019F0000E4B9A4205D022680D4B9A4204D002B099
:101A000010BD00F0ABFBF6E70A4B186810B101A956
:101A100003F0E2FD019B002BF1D0074B4FF0805209
:101A20001A60BFF34F8FBFF36F8FE8E700140040D9
:101A3000000400407C08002004ED00E072B6FEE7E0
:101A400000B595B03022002108A805F035FB002331
:101A5000039304930593069307930193204A116C13
:101A600041F080511164126C02F080520192019A8F
:101A700002931C4B1A6842F480421A601B6803F4FC
:101A800080430293029B012308934FF48033099310
:101A900002230E934FF480020F9206221092A82286
:101AA000119212930423139308A801F029FC98B90A
:101AB0000F23039302230493002305934FF4A053B1
:101AC00006934FF480530793052103A801F068FEA5
:101AD00020B915B05DF804FBFFF7B0FFFFF7AEFFCC
:101AE000003802400070004008B500F01DFBFFF711
:101AF000A7FFFFF74DFEFFF791FD00F073FA00F02E
:101B00000BF800F035FA00F097F9FFF7F5FEFFF754
:101B1000F1FD02F0B7FFFEE708B50F480F4B036079
:101B20004FF48273436000238360C360022202612A
:101B3000012242614FF4007282613822C261036265
:101B4000436283620A23C36201F0BAFF00B908BD91
:101B5000FFF774FFFBE700BFF40B002000300140EB
:101B60002DE9F04188B00023039304930593069375
:101B7000079302683C4B9A4202D008B0BDE8F0815E
:101B800004460025009503F584335A6C42F48052D4
:101B90005A645A6C02F480520092009A01951A6BB2
:101BA00042F002021A631A6B02F002020192019AD9
:101BB00002951A6B42F001021A631B6B03F00103DA
:101BC0000293029B182303934FF00208CDF8108074
:101BD000032706970526079603A9244800F050FD21
:101BE00080230393CDF8108005950697079603A9E7
:101BF0001F4800F045FD1F481F4B03604FF0C063B6
:101C000043608560C5604FF4806303614561856111
:101C1000C5614FF440330362456200F07FFBE8B9D1
:101C2000144BE3649C631548154B03604FF0C0638D
:101C30004360402383600023C3604FF480620261ED
:101C400043618361C3614FF400320262436200F07A
:101C500065FB30B9094BA3649C638EE7FFF7EEFE8A
:101C6000DEE7FFF7EBFEF5E700300140000402403D
:101C700000000240340B002040640240940B00201E
:101C80005864024000B583B0002200920D4B596C9D
:101C900041F480415964596C01F4804100910099EC
:101CA0000192196C41F0805119641B6C03F0805350
:101CB0000193019B0F216FF0010000F087FA03B040
:101CC0005DF804FB0038024010B588B000220146E0
:101CD000372000F07BFA372000F0ACFA00240194A2
:101CE000144B1A6C42F020021A641B6C03F02003A0
:101CF0000193019B02A903A801F028FE01F006FE52
:101D000043000D48A0FB03239B0C013B0B480C4AEE
:101D1000026040F2E732C26043600461846002F016
:101D200073FA10B1012008B010BD044802F002F9A6
:101D3000F9E700BF0038024083DE1B434C0C002053
:101D400000140040FEE7FEE7FEE7FEE7FEE770470F
:101D500008B5082000F084FD08BD000008B5024861
:101D600002F031F908BD00BFE00C002008B50248C0
:101D700002F086FD08BD00BF880D002008B50248AE
:101D800002F021F908BD00BF4C0C002008B5024844
:101D900000F088FB08BD00BF340B002008B50248E6
:101DA00000F080FB08BD00BF940B002008B502487E
:101DB00000F078FB08BD00BF280D0020012070470F
:101DC00008B504F0A3FE162303604FF0FF3008BDF2
:101DD00008B54FF0FF31FFF7F3FFFEE710B50346FC
:101DE0000C4A0D490D48006840B10C480068034496
:101DF000521A934206D8094A136010BD0748084C8E
:101E00000460F2E704F082FE0C2303604FF0FF3021
:101E1000F3E700BF0000022000040000940C002043
:101E2000A84B0020034AD2F8883043F47003C2F86C
:101E30008830704700ED00E000B587B000230293C2
:101E4000039304930593009301931548154A026088
:101E500042F2CF02426083606322C2600361836109
:101E600002F0D2F998B906A94FF4805341F8103D19
:101E70000B4802F0CBFA68B900230093019369463E
:101E8000074802F031FB40B907B05DF804FBFFF7EB
:101E9000D5FDE8E7FFF7D2FDEEE7FFF7CFFDF3E76B
:101EA000E00C00200004004000B583B00368154A30
:101EB000934205D0144A934216D003B05DF804FB58
:101EC00000220092114B196C41F0020119641B6C45
:101ED00003F002030093009B05211D2000F076F91A
:101EE0001D2000F0A7F9E8E700230193074B5A6C87
:101EF00042F400325A645B6C03F400330193019B9B
:101F0000DBE700BF0004004000440140003802400D
:101F100000B587B0002301930293039304930593C4
:101F20000268104B9A4202D007B05DF804FB002310
:101F300000930D4B1A6B42F020021A631B6B03F0E7
:101F400020030093009B402301930223029301226C
:101F5000039204930323059301A9044800F090FB26
:101F6000E2E700BF00440140003802400014024094
:101F700000B589B000230193029303930493059362
:101F8000069307931548164A02604360836041F246
:101F90008732C2600361836102F036F9A0B90F484D
:101FA00002F05DF998B96023019300220292039236
:101FB000059201A9094802F0B5F958B90748FFF799
:101FC000A7FF09B05DF804FBFFF738FDE7E7FFF76F
:101FD00035FDE8E7FFF732FDF0E700BF980C002081
:101FE0000044014008B50A480A4B03604FF4E1334E
:101FF000436000238360C36003610C2242618361FC
:10200000C36102F09BFB00B908BDFFF717FDFBE7BA
:10201000880D00200010014030B589B000230393E3
:102020000493059306930793026803F1804303F535
:1020300088339A4201D009B030BD0446002501958D
:1020400003F594335A6C42F010025A645A6C02F051
:1020500010020192019A02951A6B42F002021A6371
:102060001B6B03F002030293029BC0230393022322
:102070000493032306930723079303A9124800F050
:10208000FFFA1248124B03604FF000634360402395
:102090008360C5604FF48063036145618561C561FC
:1020A0000562456200F03AF958B9084B63639C63D6
:1020B00000220521252000F089F8252000F0BAF83B
:1020C000B9E7FFF7BBFCF0E700040240280D002051
:1020D000B8640240DFF834D00D480E490E4A0023A0
:1020E00002E0D458C4500433C4188C42F9D30B4ACC
:1020F0000B4C002301E013600432A242FBD3FFF734
:1021000091FE04F009FDFFF7EFFC7047000002208C
:10211000000000205C080020B47700085C08002064
:10212000A84B0020FEE7000008B50B4B1A6842F4EC
:1021300000721A601A6842F480621A601A6842F4E7
:1021400080721A60032000F02FF80020FFF7BCFD1A
:10215000FFF798FD002008BD003C0240034A1168CB
:10216000034B1B780B441360704700BFCC0D00205D
:1021700004000020014B1868704700BFCC0D002000
:1021800038B50446FFF7F6FF0546B4F1FF3F02D02D
:10219000044B1B781C44FFF7EDFF401BA042FAD311
:1021A00038BD00BF04000020074AD36823F4E06371
:1021B0001B041B0C000200F4E060184340F0BF60F9
:1021C00040F40030D060704700ED00E030B4174BB1
:1021D000DB68C3F30223C3F10704042C28BF0424E3
:1021E0001D1D062D18D9033B4FF0FF3505FA04F4E9
:1021F00021EA0401994005FA03F322EA0303194393
:1022000000280BDB0901C9B200F1604000F5614014
:1022100080F8001330BC70470023E5E700F00F00A2
:102220000901C9B2024B1954F4E700BF00ED00E008
:1022300014ED00E0002807DB00F01F024009012335
:102240009340024A42F82030704700BF00E100E0AE
:102250000268D3B2103B0B49A1FB03131B090A49C7
:10226000C95CC165032B06D822F47F7222F00302F9
:102270008265806D704722F47F7222F0030204327F
:102280008265F6E7ABAAAAAA60760008836A82692B
:1022900092B9012B0AD01BB1022B01D0002070474C
:1022A000C36A13F0807F2CD100207047C36AB3F15A
:1022B000C07F28D000207047B2F5005F05D0022B08
:1022C00029D9032B15D000207047032B03D8DFE852
:1022D00003F01C041C0A00207047C36A13F0807FBF
:1022E00015D100207047C36AB3F1C07F11D0002020
:1022F0007047C36A13F0807F01D00120704700202F
:10230000704701207047012070470120704701206D
:1023100070470120704701207047000070B50446E7
:10232000FFF728FF002C5BD00546002384F83430EB
:10233000022384F835302268136823F00103136008
:1023400023681A6812F0010F0AD0FFF713FF401B31
:102350000528F5D920236365032084F8350070BD76
:102360001A68204810406168A2680A43E1680A437D
:1023700021690A4361690A43A1690A43E1690A4381
:10238000216A0A430243616A04291ED01A60266842
:10239000756925F00705636A1D43042B07D1A36AFD
:1023A0001D43E36A1BB12046FFF770FF90B97561CA
:1023B0002046FFF74DFFE26D3F23934083600020EE
:1023C0006065012384F83530C9E7E16A206B014379
:1023D0000A43DBE740236365012084F83500BEE74C
:1023E0000120BCE73F8010F070B50446866DFFF712
:1023F000C1FE94F83530DBB2022B06D08023636532
:10240000002384F83430012070BD0546226813682B
:1024100023F0160313602268536923F0800353618D
:10242000236CE3B12268136823F008031360226869
:10243000136823F00103136023681B6813F0010F76
:1024400011D0FFF797FE401B0528F5D920236365BF
:10245000002384F83430032084F83500D4E7A36CDB
:10246000002BDFD1E3E7E26D3F239340B360002010
:1024700084F83400012384F83530C5E790F835300E
:10248000DBB2022B03D08023436501207047052374
:1024900080F835300268136823F0010313600020D0
:1024A00070470000F0B583B0044600230193724BDF
:1024B0001D68724BA3FB0535AD0A876D3E68C26D82
:1024C00008239340334210D003681A6812F0040FB7
:1024D0000BD01A6822F004021A60C26D08239340E0
:1024E000BB60436D43F001034365E26D01239340FC
:1024F000334209D02268526912F0800F04D0BB60C9
:10250000636D43F002036365E26D0423934033423D
:1025100009D02268126812F0020F04D0BB60636D0C
:1025200043F004036365E26D10239340334224D0EB
:102530002268126812F0080F1FD0BB6023681A6867
:1025400012F4802F0DD01B6813F4002F04D1236CDC
:102550009BB12046984710E0A36C73B12046984782
:102560000BE01A6812F4807F03D11A6822F0080287
:102570001A60236C0BB120469847E26D20239340EC
:10258000334255D02268126812F0100F50D0BB6051
:1025900094F83530DBB2052B0ED023681A6812F49C
:1025A000802F33D01B6813F4002F2AD1636C002BCB
:1025B0003ED0204698473BE02268136823F016037C
:1025C00013602268536923F080035361236CA3B125
:1025D0002268136823F008031360E26D3F239340E1
:1025E000BB60002384F83430012384F83530236D38
:1025F000002B3FD0204698473CE0A36C002BE7D14E
:10260000EBE7E36BA3B12046984711E01A6812F498
:10261000807F09D11A6822F010021A60002384F822
:102620003430012384F83530E36B0BB120469847F2
:10263000636DFBB1636D13F0010F17D0052384F8B0
:1026400035302268136823F001031360019B0133C6
:102650000193AB4204D823681B6813F0010FF5D136
:10266000002384F83430012384F83530E36C0BB157
:102670002046984703B0F0BD00000020B5814E1BF6
:1026800000230F2B00F2DC80F0B482B05DE086689E
:102690005F000324BC4026EA0406CC68BC403443F7
:1026A0008460466826EA02064C68C4F300129A4029
:1026B0003243426056E0DC08083450F8247003F0DE
:1026C000070296000F22B24027EA02070A69B240C9
:1026D0003A4340F8242059E0072200E00022B240AB
:1026E0003A430234574E46F82420574A1468EA43C6
:1026F00002EA04064F6817F4803F01D045EA040659
:10270000514C2660646802EA04064F6817F4003FE3
:1027100001D045EA04064C4C6660A46802EA04064F
:102720004F6817F4801F01D045EA0406464CA660A6
:10273000E46822404E6816F4001F01D045EA040206
:10274000414CE26001330F2B77D801229A400C688C
:1027500004EA0205AA42F5D14C6804F00304013CE6
:10276000012C94D94A6802F00302032A09D0C468F4
:102770005E000322B24024EA02048A68B240224387
:10278000C2604A6802F00302022A94D004685E0024
:102790000322B24024EA02044A6802F00302B24073
:1027A000224302604A6812F0805FCBD0002201927F
:1027B000264A546C44F480445464526C02F48042BF
:1027C0000192019A9C08A61C1E4A52F8267003F03A
:1027D000030296000F22B24027EA02071C4A9042E9
:1027E0003FF47CAF02F5806290421AD002F580621D
:1027F000904218D002F58062904216D002F58062B5
:10280000904214D002F58062904212D002F58062AC
:10281000904210D002F5806290423FF45DAF0822F2
:102820005DE701225BE7022259E7032257E7042212
:1028300055E7052253E7062251E702B0F0BC704786
:10284000704700BF00380140003C014000380240A2
:102850000000024012B9090481617047816170472C
:1028600008B5054B5B69034200D108BD024B5861B6
:1028700003F004FEF9E700BF003C014003685A6919
:1028800012F4806F11D06FF480625A6100230363E9
:10289000202280F83D2080F83E30026C42F0040295
:1028A000026480F83C300120704700207047F8B582
:1028B00006460C4617461D4622E0FFF75BFC069BCA
:1028C000C01AA84200D8DDB900233363202286F85D
:1028D0003D2086F83E30326C42F02002326486F8A9
:1028E0003C3001201AE033685B6924EA03039BB2A1
:1028F000B3FA83F35B099F420FD1B5F1FF3FDCD1FF
:10290000C4F30743012BEED033689B6924EA030329
:102910009BB2B3FA83F35B09EDE70020F8BDF8B58D
:1029200004460D4616461F463CE01A6842F4007203
:102930001A6023686FF480625A61002323632022A7
:1029400084F83D2084F83E30226C42F00402226478
:1029500084F83C30012033E0FFF70CFCC01BB04290
:1029600000D8FEB900232363202284F83D2084F898
:102970003E30226C42F02002226484F83C30012078
:102980001EE023685B6925EA03039BB2003318BF8E
:102990000123A3B123685A6912F4806FC5D1B6F13F
:1029A000FF3FD9D1C5F30743012BEAD023689B69C8
:1029B00025EA03039BB2003318BF0123E9E7002097
:1029C000F8BD70B504460D46164623685B6913F0E2
:1029D000800F1CD12046FFF751FFD0B9B5F1FF3F62
:1029E000F3D0FFF7C7FB801BA84201D8002DECD124
:1029F00000232363202284F83D2084F83E30226C9B
:102A000042F02002226484F83C30012000E00020E3
:102A100070BD0120FCE700002DE9F04184B00446C0
:102A2000884616461F460B9D0268136843F4807360
:102A3000136000950A9B00224FF00111FFF737FF4A
:102A400060B123681B6813F4807F4FD04FF400738C
:102A500023640323184604B0BDE8F081226808F01F
:102A6000FE0313612B460A9A21492046FFF757FFC0
:102A700008B10123EEE70023039323685A69039208
:102A80009B690393039B2A460A992046FFF799FF07
:102A9000034658B1236C042B01D00123DAE72268E6
:102AA000136843F4007313600123D3E7012F0ED0A2
:102AB0002368320A1A612A460A992046FFF781FFE5
:102AC000034678B1236C042B05D00123C2E72268AA
:102AD000F6B21661BEE72268136843F40073136010
:102AE0000123B7E72268F6B21661B3E70323B1E723
:102AF000020001002DE9F04184B004460E4617465D
:102B000098460B9D0268136843F480631360026863
:102B1000136843F48073136000950A9B00224FF002
:102B20000111FFF7C4FE68B123681B6813F4807FAE
:102B300000F089804FF4007323640323184604B027
:102B4000BDE8F081F6B2236806F0FE021A612B465A
:102B50000A9A3F492046FFF7E2FE08B10123EDE75C
:102B60000023039323685A6903929B690393039B91
:102B70002A460A992046FFF724FF58B1236C042BFC
:102B800001D00123DAE72268136843F4007313606D
:102B90000123D3E7B8F1010F0DD12368FFB21F6104
:102BA0002A460A992046FFF70CFF20B3236C042B1A
:102BB0001AD00123C2E723683A0A1A612A460A9901
:102BC0002046FFF7FEFE58B1236C042B01D00123F1
:102BD000B4E72268136843F4007313600123ADE780
:102BE0002368FFB21F61DBE72268136843F40073B8
:102BF00013600123A2E72268136843F48073136013
:102C000000950A9B00224FF001112046FFF74FFE6E
:102C100048B123681B6813F4807F16D04FF400730B
:102C2000236403238AE7236846F001061E612B46CE
:102C30000A9A07492046FFF772FE034600283FF430
:102C40007DAF01237AE7032378E7032376E700BF0C
:102C50000200010070B504460D46164623685B6904
:102C600013F0040F1CD12046FFF708FED0B9B5F1D0
:102C7000FF3FF3D0FFF77EFA801BA84201D8002D5A
:102C8000ECD100232363202284F83D2084F83E30D9
:102C9000226C42F02002226484F83C30012000E0E3
:102CA000002070BD0120FCE770B505460C461646B5
:102CB0002B685A6912F0400F29D15A6912F0100F8F
:102CC00015D1FFF757FA801BA04201D8002CEFD195
:102CD00000232B63202285F83D2085F83E302A6CA6
:102CE00042F020022A6485F83C30012070BD6FF06C
:102CF00010025A6100232B63202285F83D2085F8BD
:102D00003E302A6C2A6485F83C300120EEE7002032
:102D1000ECE70000002800F0C880F8B5044690F801
:102D20003D30002B75D0242384F83D302268136891
:102D300023F0010313602268136843F40043136017
:102D40002268136823F40043136000F0DFFD62681B
:102D5000584B9A4262D8584B98428CBF00230123AB
:102D6000002B40F0A480554BA3FB00239B0C216853
:102D70004A6822F03F021A434A6025682A6A22F014
:102D80003F0266684B498E424ED8013313432B6293
:102D90002568E96921F44F4121F0FF016368454A44
:102DA00093424BD801385B00B0FBF3F30133C3F31C
:102DB0000B03042B38BF04230B43EB6121680B6822
:102DC00023F0C003E269206A024313430B602168C9
:102DD0008B6823F4034323F0FF032269E068024376
:102DE00013438B602168CB6823F0FF036269A069FD
:102DF00002431343CB602268136843F0010313605E
:102E000000202064202384F83D30206384F83E00B5
:102E1000F8BD80F83C30FEF78DFD84E7284B9842E2
:102E20008CBF002301239BE74FF4967101FB03F352
:102E30002449A1FB03139B090133A7E7A268BAB990
:102E4000461E03EB4307B6FBF7F60136C6F30B0647
:102E5000B6FA86F6760936BBC2B9013803EB4303EE
:102E6000B0FBF3F30133C3F30B0242F40043A3E7D7
:102E7000461E03EB830707EB8707B6FBF7F6013621
:102E8000C6F30B06B6FA86F67609E4E7013803EBDB
:102E9000830303EB8303B0FBF3F20132C2F30B02B3
:102EA00042F4404388E7012386E701207047012070
:102EB000AEE700BFA08601007F841E0083DE1B43B7
:102EC000FF083D00D34D62102DE9F04182B0044669
:102ED0000E4617469846FFF74DF994F83D30DBB2A1
:102EE000202B04D00223184602B0BDE8F08105462D
:102EF0000090192301224C492046FFF7D8FC0028F6
:102F000040F08B8094F83C30012B00F08880012346
:102F100084F83C3023681A6812F0010F03D11A6854
:102F200042F001021A602268136823F40063136000
:102F3000212384F83D30402384F83E30002323646D
:102F4000089B6362BDF824306385638D2385374B0E
:102F5000E36201950A9B009343463A463146204678
:102F6000FFF75AFD00285CD1238D002B34D02A4670
:102F70000A992046FFF725FD10BB626A2368127884
:102F80001A61616A4B1C6362238D013B9BB22385EE
:102F9000628D013A92B262852268506910F0040F86
:102FA000E2D0002BE0D04B781361636A0133636297
:102FB000238D013B2385638D013B9BB26385D3E762
:102FC000236C042B01D001238DE72268136843F49E
:102FD00000731360012386E72A460A992046FFF70B
:102FE00039FE034658B1236C042B01D001237AE744
:102FF0002268136843F400731360012373E72168A8
:103000000A6842F400720A60202284F83D200022FF
:1030100084F83E2084F83C2065E7022363E702231E
:1030200061E701235FE700BF020010000000FFFF1F
:103030002DE9F04186B004460E4617469846FFF744
:1030400099F894F83D30DBB2202B04D002263046AC
:1030500006B0BDE8F08105460090192301229E4983
:103060002046FFF724FC002840F0348194F83C30DF
:10307000012B00F03781012384F83C3023681A6863
:1030800012F0010F03D11A6842F001021A6022689F
:10309000136823F400631360222384F83D30402337
:1030A00084F83E30002323640C9B6362BDF8343007
:1030B0006385638D2385894BE36201950E9B0093A5
:1030C00043463A4631462046FFF714FD064600289F
:1030D00040F00A81238D5BB9029323685A690292FA
:1030E0009A690292029A1A6842F400721A6072E0B7
:1030F000012B0AD0022B1AD00023059323685A69AA
:1031000005929B690593059B65E02268136823F48B
:10311000806313600023039323685A6903929A69BA
:103120000392039A1A6842F400721A6053E022680C
:10313000136823F4806313602268136843F4006308
:1031400013600023049323685A6904929B690493D3
:10315000049B40E02A460E992046FFF7A5FD002873
:1031600040F0C48023681A69636A1A70636A013385
:103170006362238D013B2385638D013B9BB2638595
:1031800029E000950E9B002255492046FFF78FFB52
:10319000002840F0AD802268136843F40073136088
:1031A00023681A69636A1A70626A531C6362238D0A
:1031B000013B2385638D013B9BB2638523681B69BB
:1031C0005370636A01336362238D013B2385638DF2
:1031D000013B9BB26385238D002B72D0032B49D812
:1031E000012BB7D0022BCCD000950E9B00223C497E
:1031F0002046FFF75CFB00287CD12268136823F48B
:103200008063136023681A69636A1A70636A013302
:103210006362238D013B2385638D013B9BB26385F4
:1032200000950E9B00222E492046FFF740FB002808
:1032300062D12268136843F40073136023681A692B
:10324000636A1A70626A531C6362238D013B238593
:10325000638D013B9BB2638523681B695370636A6E
:1032600001336362238D013B2385638D013B9BB258
:103270006385B0E72A460E992046FFF715FD002822
:103280003CD123681A69636A1A70626A531C6362CC
:10329000238D013B2385638D013B9BB263852368AE
:1032A000596911F0040F96D01B695370636A01339A
:1032B0006362238D013B2385638D013B9BB2638554
:1032C00089E7202384F83D30002384F83E3084F8D9
:1032D0003C30BCE60226BAE6020010000000FFFF08
:1032E000040001000226B2E60126B0E60126AEE6A1
:1032F0000126ACE60126AAE60126A8E60126A6E6F6
:10330000002800F0E98170B582B00446036813F02C
:10331000010F3BD0A74B9B6803F00C03042B2CD070
:10332000A44B9B6803F00C03082B21D06368B3F512
:10333000803F4FD0B3F5A02F52D09E4B1A6822F495
:1033400080321A601A6822F480221A606368002BA7
:1033500050D0FEF70FFF0546964B1B6813F4003F55
:1033600014D1FEF707FF401B6428F5D90320B8E10C
:10337000904B5B6813F4800FD8D08E4B1B6813F40E
:10338000003F03D06368002B00F0A881236813F08E
:10339000020F55D0874B9B6813F00C0F3ED0854B26
:1033A0009B6803F00C03082B33D0E368002B68D034
:1033B000814B01221A60FEF7DDFE05467D4B1B683E
:1033C00013F0020F54D1FEF7D5FE401B0228F5D9A9
:1033D000032086E1774A136843F480331360B5E72E
:1033E000744B1A6842F480221A601A6842F48032E0
:1033F0001A60ABE7FEF7BEFE05466E4B1B6813F482
:10340000003FC3D0FEF7B6FE401B6428F5D9032069
:1034100067E1684B5B6813F4800FC6D1654B1B688E
:1034200013F0020F04D0E368012B01D0012058E112
:10343000604A136823F0F803216943EAC10313606B
:10344000236813F0080F40D0636963B35B4B01221C
:103450001A60FEF78FFE0546564B5B6F13F0020FA6
:1034600033D1FEF787FE401B0228F5D9032038E14F
:10347000504A136823F0F803216943EAC10313603B
:10348000DEE74D4B00221A60FEF774FE0546494BFD
:103490001B6813F0020FD3D0FEF76CFE401B02280E
:1034A000F5D903201DE1454B00221A60FEF762FEAC
:1034B0000546404B5B6F13F0020F06D0FEF75AFE35
:1034C000401B0228F5D903200BE1236813F0040FF9
:1034D00079D0384B1B6C13F0805F33D100230193FC
:1034E000344B1A6C42F080521A641B6C03F0805308
:1034F0000193019B0125324B1B6813F4807F23D07D
:10350000A368012B34D0052B38D02A4B1A6F22F038
:1035100001021A671A6F22F004021A67A368002BCF
:1035200036D0FEF727FE0646224B1B6F13F0020F24
:1035300048D1FEF71FFE801B41F288339842F3D931
:103540000320CEE00025D6E71D4A136843F48073BC
:103550001360FEF70FFE0646194B1B6813F4807FBD
:10356000CED1FEF707FE801B0228F5D90320B8E074
:10357000104A136F43F001031367CFE70D4B1A6F27
:1035800042F004021A671A6F42F001021A67C5E797
:10359000FEF7F0FD0646074B1B6F13F0020F11D02C
:1035A000FEF7E8FD801B41F288339842F3D90320EF
:1035B00097E000BF0038024000004742800E4742BB
:1035C00000700040EDB9A369002B00F08980484AE3
:1035D000926802F00C02082A51D0022B17D0454BFA
:1035E00000221A60FEF7C6FD0446414B1B6813F02B
:1035F000007F42D0FEF7BEFD001B0228F5D9032054
:103600006FE03B4A136C23F080531364DBE7394BC4
:1036100000221A60FEF7AEFD0546354B1B6813F01D
:10362000007F06D0FEF7A6FD401B0228F5D9032037
:1036300057E0E369226A1343626A43EA8213A26A8B
:103640005208013A43EA0243E26A43EA0263284A23
:103650005360284B01221A60FEF78CFD0446244B70
:103660001B6813F0007F06D1FEF784FD001B0228C3
:10367000F5D9032035E0002033E0002031E0012BB4
:1036800031D01B4B5B6803F48001E269914201D0A9
:10369000012026E003F03F02216A8A4201D0012086
:1036A0001FE0616A47F6C0721A40B2EB811F01D079
:1036B000012016E003F44031A26A5208013AB1EB4E
:1036C000024F01D001200CE003F07063E26AB3EB1B
:1036D000026F0AD0012004E001207047012000E0C1
:1036E000002002B070BD0120FBE70020F9E700BF19
:1036F0000038024060004742264B9B6803F00C03F1
:10370000042B44D0082B01D0234870472DE9F04BFF
:10371000204B5A6802F03F025B6813F4800F13D00D
:103720001C4B5968C1F3881100231C48A1FB000100
:10373000FCF766FD174B5B68C3F3014301335B0085
:10374000B0FBF3F0BDE8F08B124B5B68C3F388135A
:103750001E4600275C010025E41A65EB0705A90158
:1037600041EA9461A001001B61EB0501CB0043EA33
:103770005073C400A01943EB07018B0243EA905336
:103780008402204619460023FCF73AFDD2E703489D
:10379000704700BF003802400024F400001BB7004F
:1037A000002800F09E8070B50446504B1B6803F063
:1037B00007038B4209D2CBB24C4A1370136803F053
:1037C00007038B4201D0012070BD236813F0020F64
:1037D00017D013F0040F04D0454A936843F4E05324
:1037E0009360236813F0080F04D0414A936843F4B0
:1037F000604393603E4A936823F0F003A06803435C
:1038000093600D46236813F0010F32D06368012BDB
:1038100021D09A1E012A25D9354A126812F0020FCA
:1038200061D033498A6822F0030213438B60FEF7AC
:10383000A1FC06462E4B9B6803F00C036268B3EBB9
:10384000820F16D0FEF796FC801B41F28833984217
:10385000F0D90320B8E7264A126812F4003FE0D1FD
:103860000120B1E7224A126812F0007FD9D101206D
:10387000AAE71E4B1B6803F00703AB4209D9EAB263
:103880001A4B1A701B6803F00703AB4201D00120EA
:103890009AE7236813F0040F06D0154A936823F4BF
:1038A000E053E1680B439360236813F0080F07D0DF
:1038B0000F4A936823F46043216943EAC10393608C
:1038C000FFF71AFF0A4B9B68C3F30313094AD35C43
:1038D000D840094B1860094B1868FEF7F5F900202D
:1038E00072E70120704701206EE700BF003C0240F4
:1038F0000038024048760008000000200800002040
:10390000014B1868704700BF0000002008B5FFF7A2
:10391000F7FF044B9B68C3F38223034AD35CD84070
:1039200008BD00BF003802405876000808B5FFF710
:10393000E7FF044B9B68C3F34233034AD35CD84090
:1039400008BD00BF00380240587600080F2303600E
:103950000B4B9A6802F0030242609A6802F0F00290
:1039600082609A6802F4E052C2609B68DB0803F44C
:10397000E0530361034B1B6803F007030B607047C0
:1039800000380240003C02402DE9F04383B0044679
:103990000F4616461D46FEF7EDFB0A9B181A00EB74
:1039A0000508FEF7E7FB81462A4B1B68C3F3CB33C0
:1039B00008FB03F3019323689B6837EA03030CBFFA
:1039C00001230023B34240D0B5F1FF3FF3D0FEF70F
:1039D000D1FBA0EB090040450AD2B8F1000F07D097
:1039E000019B0BB94FF00008019B013B0193E2E7FB
:1039F0002268536823F0E00353606368B3F5827F65
:103A00000BD0A36AB3F5005F14D0012384F85130C2
:103A1000002384F85030032018E0A368B3F5004F6A
:103A200002D0B3F5806FECD12268136823F0400315
:103A30001360E6E72268136823F4005313602268DA
:103A4000136843F400531360DFE7002003B0BDE8C0
:103A5000F08300BF0000002030B585B0164C24680C
:103A6000164DA5FB0434640D4FF47A7505FB04F480
:103A700003944468B4F5827F0BD0039BC3B1039BCE
:103A8000013B039303689B6813F0800FF5D100237B
:103A90000FE00B460446009200228021FFF774FFDE
:103AA000034630B1636D43F020036365032300E0F8
:103AB0000023184605B030BD00000020819F5E162F
:103AC00000285AD010B50446436A33B94368B3F5A9
:103AD000827F05D00023C36102E0002303614361BC
:103AE0000023A36294F85130002B40D0022384F8C5
:103AF00051302268136823F040031360636803F4B5
:103B00008273A26802F404421343E26802F4006282
:103B10001343226902F002021343626902F00102B8
:103B20001343A26902F400721343E26902F03802FF
:103B30001343226A02F080021343A26A02F4005285
:103B4000216813430B60638B03F00403626A02F085
:103B50001002216813434B602268D36923F4006389
:103B6000D36100206065012384F8513010BD84F8D2
:103B700050302046FDF7F4FFB8E7012070472DE9EB
:103B8000F04383B0DDF8288090F85040012C00F01D
:103B90000B811D4617460E460446012380F850301F
:103BA000FEF7E8FA814694F85100C0B26368012834
:103BB00015D0B3F5827F0AD00223012284F8512068
:103BC000002284F85020184603B0BDE8F083A368B3
:103BD000002B40F0DB80042801D00223EDE7002E0B
:103BE00000F0D680002F00F0D580002D00F0D480AA
:103BF00094F85130DBB2042B02D0052384F8513005
:103C000000236365A763E587A5872663E586A58608
:103C10002364636423681A6812F0400F03D11A68A2
:103C200042F040021A60E368B3F5006F10D0636899
:103C30000BB1012D0AD1226B236812781A73236B02
:103C400001332363E38E013B9BB2E386012569E0E8
:103C500063680BB1012D0AD1226B23681288DA60E8
:103C6000236B02332363E38E013B9BB2E386012582
:103C70001BE023689A6812F0010F0DD0E28F92B218
:103C800052B1DA68A36B1A80A36B0233A363E38F8C
:103C9000013B9BB2E3870125FEF76CFAA0EB09001C
:103CA000404502D3B8F1FF3F78D1E38E9BB21BB9F8
:103CB000E38F9BB2002B52D023689A6812F0020F58
:103CC000D7D0E28E92B2002AD3D0002DD1D0226B71
:103CD0001288DA60236B02332363E38E013B9BB2CD
:103CE000E3860025C5E723689A6812F0010F0DD01E
:103CF000E28F92B252B1DA68A36B1A70A36B0133F0
:103D0000A363E38F013B9BB2E3870125FEF732FA01
:103D1000A0EB0900404502D3B8F1FF3F40D1B8F114
:103D2000000F3FD0E38E9BB213B9E38F9BB2B3B1C8
:103D300023689A6812F0020FD5D0E28E92B2002A60
:103D4000D1D0002DCFD0226B12781A73236B0133A0
:103D50002363E38E013B9BB2E3860025C3E74A461B
:103D600041462046FFF778FE034618B120236365DD
:103D7000012322E7A268002A7FF41FAF0192226884
:103D8000D168019192680192019A16E7022314E723
:103D9000012312E7012310E701230EE703230CE7B9
:103DA00003230AE7032308E702230CE730B4036A7E
:103DB00023F001030362056A4268846924F07304F6
:103DC0000B681C4325F002058B682B43104DA8425D
:103DD00003D005F58065A84205D123F00803CD681E
:103DE0002B4323F004030A4DA84203D005F5806558
:103DF000A84205D122F440724D6915438A692A43CD
:103E0000426084614A684263036230BC704700BF0D
:103E10000000014030B4036A23F480730362036A34
:103E20004268C46924F073040D682C4323F40073C2
:103E30008D6843EA0523124DA84203D005F580653D
:103E4000A84206D123F40063CD6843EA052323F496
:103E500080630B4DA84203D005F58065A84207D1C9
:103E600022F440524D6942EA05128D6942EA051278
:103E70004260C4614A68C263036230BC704700BFDD
:103E80000000014030B4036A23F480530362036AE4
:103E90004468C26922F4E6420D6842EA052223F42E
:103EA00000538D6843EA0533094DA84203D005F558
:103EB0008065A84204D124F480444D6944EA851405
:103EC0004460C2614A680264036230BC704700BF4C
:103ED0000000014010B4036A046A24F00104046283
:103EE000846924F0F00444EA021223F00A030B432D
:103EF000826103625DF8044B704710B4036A23F0DB
:103F0000100303628469036A24F4704444EA0232B1
:103F100023F0A00343EA0113826103625DF8044BBE
:103F20007047836823F07003194341F007018160F3
:103F30007047000090F83D30DBB2012B01D001202A
:103F40007047022380F83D300268D36843F00103D4
:103F5000D3600368184A934220D0B3F1804F1DD03C
:103F6000A2F57C42934219D002F58062934215D0AB
:103F700002F58062934211D002F5784293420DD04F
:103F800002F57052934209D0A2F59432934205D0C3
:103F90001A6842F001021A60002070479A6802F025
:103FA0000702062A05D01A6842F001021A600020B2
:103FB00070470020704700BF000001407047704705
:103FC00070477047704710B5044603681A6912F0CD
:103FD000020F11D0DA6812F0020F0DD06FF002025A
:103FE0001A610123037703689B6913F0030F70D0F4
:103FF000FFF7E6FF0023237723681A6912F0040F06
:1040000012D0DA6812F0040F0ED06FF004021A61B9
:104010000223237723689B6913F4407F5FD02046F7
:10402000FFF7CEFF0023237723681A6912F0080FE9
:1040300012D0DA6812F0080F0ED06FF008021A6181
:10404000042323772368DB6913F0030F4ED0204647
:10405000FFF7B6FF0023237723681A6912F0100FC9
:1040600012D0DA6812F0100F0ED06FF010021A6141
:10407000082323772368DB6913F4407F3DD0204673
:10408000FFF79EFF0023237723681A6912F0010FC0
:1040900003D0DA6812F0010F36D123681A6912F0E2
:1040A000800F03D0DA6812F0800F34D123681A69C8
:1040B00012F0400F03D0DA6812F0400F32D12368BB
:1040C0001A6912F0200F03D0DA6812F0200F30D1F5
:1040D00010BDFFF774FF2046FFF773FF8AE7204605
:1040E000FFF76DFF2046FFF76CFF9BE72046FFF7C9
:1040F00066FF2046FFF765FFACE72046FFF75FFF4E
:104100002046FFF75EFFBDE76FF001021A6120460F
:10411000FDF76AFCC1E76FF080021A61204600F0EB
:1041200028FAC3E76FF040021A612046FFF74AFF02
:10413000C5E76FF020021A61204600F019FAC7E7C0
:104140000368304A904212D0B0F1804F0FD0A2F5F0
:104150007C4290420BD002F58062904207D002F57B
:104160008062904203D002F57842904203D123F05E
:1041700070034A681343234A90422AD0B0F1804F1B
:1041800027D0A2F57C42904223D002F58062904273
:104190001FD002F5806290421BD002F57842904217
:1041A00017D002F57052904213D002F5806290420F
:1041B0000FD002F5806290420BD0A2F59832904267
:1041C00007D002F58062904203D002F580629042EF
:1041D00003D123F44073CA68134323F080034A6970
:1041E000134303608B68C3620B688362054B98427C
:1041F00003D003F58063984201D10B690363012367
:10420000436170470000014038B310B5044690F890
:104210003D30EBB1022384F83D30211D2068FFF7CB
:104220008FFF012384F8463084F83E3084F83F3015
:1042300084F8403084F8413084F8423084F84330C8
:1042400084F8443084F8453084F83D30002010BDB7
:1042500080F83C30FDF728FEDCE70120704738B3DA
:1042600010B5044690F83D30EBB1022384F83D30A0
:10427000211D2068FFF764FF012384F8463084F88D
:104280003E3084F83F3084F8403084F8413084F880
:10429000423084F8433084F8443084F8453084F860
:1042A0003D30002010BD80F83C30FFF787FEDCE792
:1042B0000120704730B4036A23F010030362036ADD
:1042C0004468826922F4E6420D6842EA052223F03E
:1042D00020038D6843EA0513114DA84203D005F56C
:1042E0008065A84206D123F08003CD6843EA051318
:1042F00023F040030A4DA84203D005F58065A8428B
:1043000007D124F440644D6944EA85048D6944EA88
:104310008504446082614A688263036230BC7047EE
:104320000000014038B590F83C30012B60D00D46BC
:104330000446012380F83C300C2A1AD8DFE802F04A
:10434000071919191D19191931191919440000688B
:10435000FFF72CFD2268936943F0080393612268FC
:10436000936923F0040393612268936929690B43DD
:104370009361002084F83C0038BD0068FFF79AFF85
:104380002268936943F4006393612268936923F47C
:104390008063936122689369296943EA01239361E9
:1043A000E7E70068FFF736FD2268D36943F00803AA
:1043B000D3612268D36923F00403D3612268D369EF
:1043C00029690B43D361D4E70068FFF75BFD2268DE
:1043D000D36943F40063D3612268D36923F4806313
:1043E000D3612268D369296943EA0123D361C0E715
:1043F0000220C1E710B4846824F47F4442EA032316
:104400000B43234383605DF8044B704790F83C30C6
:10441000012B66D010B50446012380F83C300223FE
:1044200080F83D300268936823F47F4323F07703DC
:1044300093600B68402B4AD013D9602B3DD01ED916
:10444000702B28D0B3F5005F30D1CB684A688968FB
:104450000068FFF7CFFF2268936843F480439360BE
:1044600024E0102B06D004D9202B03D0302B01D010
:104470001CE0DBB919462068FFF753FD16E0502B0E
:1044800014D1CA6849680068FFF724FD50212068EC
:10449000FFF747FD0AE0CB684A6889680068FFF7C4
:1044A000A9FF2268936843F077039360012384F89F
:1044B0003D30002084F83C0010BDCA68496800689F
:1044C000FFF71BFD60212068FFF72BFDEEE7CA68B0
:1044D00049680068FFF7FEFC40212068FFF721FDD6
:1044E000E4E702207047000090F83C30012B3BD0FD
:1044F00030B4012380F83C30022380F83D3003685B
:104500005C689D6824F070040A6822435A6003685E
:10451000164A93421AD0B3F1804F17D0A2F57C42CD
:10452000934213D002F5806293420FD002F580626D
:1045300093420BD002F57842934207D002F57052B5
:10454000934203D0A2F59432934204D125F0800522
:104550004A6815439D60012380F83D30002380F8B0
:104560003C30184630BC70470220704700000140C4
:10457000704770470268D36823F49073D360026871
:10458000536923F001035361036B012B05D02023F2
:1045900080F83E300023036370470268D36823F03D
:1045A0001003D360F3E790F83D30DBB2212B27D125
:1045B0008368B3F5805F16D0036A5A1C02621A78CA
:1045C00003685A60C38C013B9BB2C384D3B90268B1
:1045D000D36823F08003D3600268D36843F04003BC
:1045E000D360002070470369002BE5D1036A1B8864
:1045F0000268C3F308035360036A02330362E1E70E
:1046000002207047002070472DE9F04B04460268F5
:10461000136923F44053C1680B4313618368026933
:10462000134342691343C2691A430168CB6823F4F8
:10463000164323F00C031343CB600268536923F441
:10464000407381690B43536103683A4A934206D031
:1046500002F58062934202D0FFF758F901E0FFF7BC
:1046600065F9E369B3F5004F30D04FF00009061843
:1046700049EB090716EB000B47EB090C4FEACC039B
:1046800043EA5B734FEACB0293469C4663689A0009
:104690009B0F10EB0B0049EB0C01FBF7B1FD264D16
:1046A000A5FB00325109642202FB110213013233CF
:1046B000A5FB03235B0903F0F00202EB011203F0F8
:1046C0000F03216813448B60BDE8F08B83464FF0E5
:1046D000000C06184CEB0C0716EB000847EB0C0916
:1046E0004FEAC90343EA58734FEAC8029046994615
:1046F00062680021921841EB01031BEB08004CEBB0
:104700000901FBF77DFD0C4DA5FB00325109642228
:1047100002FB1102D3003233A5FB03235B095A00CD
:1047200002F4F87202EB011203F00703216813444C
:104730008B60C9E7001001401F85EB5158B310B5DD
:10474000044690F83D300BB3242384F83D302268B2
:10475000D36823F40053D3602046FFF755FF226847
:10476000136923F4904313612268536923F02A03E9
:1047700053612268D36843F40053D360002020645F
:10478000202384F83D3084F83E3010BD80F83C3062
:10479000FDF742FCD8E701207047704708B5016873
:1047A000CB6823F04003CB60202380F83D30FFF737
:1047B000F4FF002008BD7047704708B5806B0023E8
:1047C000C385C384FFF7F8FF08BD704790F83E30FB
:1047D000DBB2222B50D18368B3F5805F30D0826A80
:1047E000B3F5805F04D0002B37D10369002B34D19F
:1047F00003685B681370836A01338362C38D013B76
:104800009BB2C385002B39D110B504460268D3682A
:1048100023F02003D3600268D36823F48073D3604D
:104820000268536923F001035361202380F83E306E
:10483000036B012B17D0FFF7BEFF0020206310BDD4
:104840000269002ACBD1826A03685B68C3F308035C
:104850001380836A02338362D0E703685B6803F0E6
:104860007F031370C7E70268D36823F01003D36097
:10487000818DFFF7AAFFE0E7022070470020704714
:1048800030B583B0044602681368D068516913F0EC
:104890000F0505D113F0200F02D010F0200F56D1D4
:1048A000002D6AD011F0010102D110F4907F64D084
:1048B00013F0010F06D010F4807F03D0226C42F079
:1048C0000102226413F0040F04D019B1226C42F0EB
:1048D0000202226413F0020F04D019B1226C42F0DC
:1048E0000402226413F0080F07D010F0200F00D14B
:1048F00019B1226C42F008022264226C002A4BD0CB
:1049000013F0200F02D010F0200F24D123685B6930
:1049100003F04003226C12F0080F00D13BB3204695
:10492000FFF728FE23685A6912F0400F1BD05A691E
:1049300022F040025A61A36B8BB14E4A1A65A06BFC
:10494000FDF79CFD40B3A06B036D984724E0204623
:10495000FFF73CFF20E02046FFF738FFD6E7204670
:10496000FFF72AFF18E02046FFF726FF14E0204655
:10497000FFF722FF002323640EE0216B01290DD0F5
:1049800013F0800F02D010F0800F6AD113F0400FA7
:1049900002D010F0400F68D103B030BD13F0100FFB
:1049A000EED010F0100FEBD00023019313680193A9
:1049B00053680193019B536913F0400F30D0A16BF2
:1049C0000B685B689BB2002BE6D0A08D9842E3D9C0
:1049D000E385CB69B3F5807F1AD0D36823F4807365
:1049E000D3602268536923F001035361226853693D
:1049F00023F040035361202384F83E3000232363D7
:104A00002268D36823F01003D360A06BFDF7ECFCA1
:104A1000A18DE38DC91A89B22046FFF7D6FEBBE708
:104A2000A18DE38DC91A89B2E38D9BB2002BB3D05F
:104A30000029B1D0D36823F49073D36022685369FE
:104A400023F001035361202384F83E3000232363C5
:104A50002268D36823F01003D3602046FFF7B5FE29
:104A60009AE72046FFF79FFD96E72046FFF796FE60
:104A700092E700BFBB470008842801D0033070478D
:104A80000020704708B501F0F5F8002008BD2DE9B9
:104A9000F04387B004460F464569A5B1866996B1D3
:104AA000D0F80480D0F80090B0F90800FFF7E4FFD8
:104AB00022690296019500903B464946404601F026
:104AC0006BF8059013E065682668D4F81080B4F997
:104AD0000800FFF7D1FF05AB019300903B461FFA9A
:104AE00088F23146284601F091F8012803D1059853
:104AF00007B0BDE8F0830020FAE708B5034600B927
:104B00000123184601F00EFA002008BD10B582B04E
:104B1000436863B101291AD1032200920022114691
:104B2000012000F02DFC0446204602B010BD0129F2
:104B30000FD103220021012000F06BFC0446002865
:104B4000F2D000231A46194600F088FCECE7002456
:104B5000EAE70024E8E700F1080343604FF0FF3282
:104B60008260C36003610023036070470023036118
:104B7000704743684B609A688A609A685160996090
:104B80000861036801330360704730B40D68B5F104
:104B9000FF3F02D000F1080202E0026904E01A4679
:104BA00053681C68AC42FAD953684B6099608A60BC
:104BB0005160086103680133036030BC70470369CA
:104BC0004268816891608268416851605A68824297
:104BD00006D0002202611A68013A1A60186870470C
:104BE00082685A60F5E7000082B0002301930D4B04
:104BF0001B68B3F1FF3F08D04FF0500383F31188D7
:104C0000BFF36F8FBFF34F8FFEE74FF0500383F377
:104C10001188BFF36F8FBFF34F8F019B002BFCD028
:104C200002B070470C00002008480068006880F35C
:104C300008884FF0000080F3148862B661B6BFF3B5
:104C40004F8FBFF36F8F00DF00BF000008ED00E063
:104C5000DFF80C00016841F470010160704700004A
:104C600088ED00E04FF0807340F8043C21F0010132
:104C700040F8081C054B40F80C3C40F8202C6FF025
:104C8000020340F8243C4438704700BFE94B000859
:104C9000074B19680868B0E8F04F80F30988BFF344
:104CA0006F8F4FF0000080F311887047AFF30080E2
:104CB000F84900204FF0500383F31188BFF36F8F42
:104CC000BFF34F8F0A4A136801331360012B00D0E2
:104CD0007047084B1B6813F0FF0FF9D04FF05003DB
:104CE00083F31188BFF36F8FBFF34F8FFEE700BFD1
:104CF0000C00002004ED00E0094B1B6843B94FF0A5
:104D0000500383F31188BFF36F8FBFF34F8FFEE71C
:104D1000013B034A13600BB983F31188704700BF4E
:104D20000C00002000000000000000000000000057
:104D3000EFF30980BFF36F8F154B1A681EF0100F49
:104D400008BF20ED108A20E9F04F10602DE909001E
:104D50004FF0500080F31188BFF34F8FBFF36F8F78
:104D600001F04EF94FF0000080F3118809BC19687A
:104D70000868B0E8F04F1EF0100F08BFB0EC108AC2
:104D800080F30988BFF36F8F704700BFAFF30080D7
:104D9000F849002008B54FF0500383F31188BFF3A2
:104DA0006F8FBFF34F8F00F0B7FF18B1034B4FF079
:104DB00080521A60002383F3118808BD04ED00E0DF
:104DC000084A0023136008490B60084B1B68084918
:104DD000A1FB03139B09013B06490B6007231360EA
:104DE000704700BF10E000E018E000E00000002085
:104DF000D34D621014E000E03A4B1A683A4B9A42E5
:104E00000DD0384B1A68394B9A4211D14FF05003EC
:104E100083F31188BFF36F8FBFF34F8FFEE74FF01F
:104E2000500383F31188BFF36F8FBFF34F8FFEE7FB
:104E300010B582B02E4B1A78D2B20192FF221A70AE
:104E40001B78DBB28DF803309DF8033003F050037C
:104E5000284A1370284B07221A6009E0264A136873
:104E6000013B13609DF803305B00DBB28DF803302B
:104E70009DF8033013F0800FF0D11F4B1B68032BFC
:104E800008D04FF0500383F31188BFF36F8FBFF347
:104E90004F8FFEE71B0203F4E063174A1360019B88
:104EA000DBB2134A1370154B1A6842F470021A6091
:104EB0001A6842F070421A60FFF782FF0024104B1C
:104EC0001C60FFF7C5FE0F4A136843F040431360B0
:104ED000FFF7AAFE01F094F8FFF786FE204602B025
:104EE00010BD00BF00ED00E071C20F4170C20F4164
:104EF00000E400E0D00D0020D40D002020ED00E003
:104F00000C00002034EF00E0EFF305830F2B0FD9E6
:104F1000104A9B5CDBB2104A12789A4208D94FF0D3
:104F2000500383F31188BFF36F8FBFF34F8FFEE7FA
:104F30000A4B1B6803F4E063094A1268934208D9DC
:104F40004FF0500383F31188BFF36F8FBFF34F8F80
:104F5000FEE77047F0E300E0D00D00200CED00E02C
:104F6000D40D0020124A12F0070F1ED0D11D21F0DF
:104F70000701C1F5705313440A460E480260002130
:104F800041601344083B23F007030B48036059605A
:104F90001960991A51601360084B1960084B196029
:104FA000084B4FF000421A6070474FF47053E4E72B
:104FB000DC0D0020F0490020D80D0020E44900203D
:104FC000E0490020DC49002010B4134B1A688242EB
:104FD0001BD359685C18844203D14068014459606E
:104FE000184641684418A24213D10C4C2468A242CE
:104FF0000DD05268114441601A68126802609842EC
:1050000000D018605DF8044B70471346DEE704607B
:10501000F5E70260F3E700BFF0490020D80D00205B
:1050200070B5044600F05CFE3C4B1B68BBB13C4BCA
:105030001B681C4267D1ACB1083414F0070F11D0C3
:1050400024F00704083404F007035BB14FF0500369
:1050500083F31188BFF36F8FBFF34F8FFEE7FFF726
:1050600081FFE4E7002C50D02E4B1B68A3424ED3A7
:105070002D4B1D6801E02B4615466A68A24202D2FC
:105080002A68002AF7D1254A1268AA4241D01E6830
:1050900008362A681A606B681B1B102B10D9281958
:1050A00010F0070F08D04FF0500383F31188BFF3BF
:1050B0006F8FBFF34F8FFEE743606C60FFF784FF95
:1050C0006A6818490B689B1A0B60184909688B427B
:1050D00001D216490B60124B1B6813436B6000230F
:1050E0002B60134A13680133136000F0A1FE16F021
:1050F000070F10D04FF0500383F31188BFF36F8F69
:10510000BFF34F8FFEE70026EFE70026EDE700260E
:10511000EBE70026E9E7304670BD00BFD80D002060
:10512000DC490020E0490020F0490020E44900204B
:10513000E8490020002834D038B50446A0F108051D
:1051400050F8042C174909680A4208D14FF050035F
:1051500083F31188BFF36F8FBFF34F8FFEE750F8D3
:10516000080C40B14FF0500383F31188BFF36F8FE9
:10517000BFF34F8FFEE722EA010244F8042C00F04F
:10518000AFFD54F8041C084A13680B44136028460A
:10519000FFF71AFF054A13680133136000F048FE59
:1051A00038BD7047DC490020E0490020EC49002070
:1051B000436A23B1036B1868C0F1070070470020F1
:1051C000704710B50446FFF775FDA26BE36B9A427A
:1051D00004D00024FFF790FD204610BD0124F9E71C
:1051E00010B50446FFF766FDA36B23B10024FFF75B
:1051F00083FD204610BD0124F9E770B5044616462C
:10520000856B026C5AB903681BB100200135A56398
:1052100070BD806801F056F80023A360F6E76EB910
:105220004068FCF7F3F8226C636813446360A2687B
:10523000934219D3236863600020E7E7C068FCF756
:10524000E5F8226C5242E3681344E36021688B4224
:1052500002D2A3681A44E260022E01D00020D5E7F2
:1052600025B1013D0020D1E70020CFE70020CDE7A8
:1052700038B50546FFF71EFD95F8454064B203E0DA
:1052800000F0B4FF013C64B2002C08DD6B6A33B15E
:1052900005F1240000F018FF0028F3D0F0E7FF2309
:1052A00085F84530FFF728FDFFF704FD95F84440E9
:1052B00064B203E000F09AFF013C64B2002C08DD08
:1052C0002B6933B105F1100000F0FEFE0028F3D089
:1052D000F0E7FF2385F84430FFF70EFD38BD0000EE
:1052E00038B540B94FF0500383F31188BFF36F8F87
:1052F000BFF34F8FFEE704460D46FFF7DBFC216846
:10530000E26B236C03FB0210A0600020A0636160CD
:10531000013A02FB0313E360FF2384F8443084F86E
:105320004530A5B923691BB9FFF7E6FC012038BD5C
:1053300004F1100000F0C8FE0028F5D0084B4FF033
:1053400080521A60BFF34F8FBFF36F8FECE704F109
:105350001000FFF700FC04F12400FFF7FCFBE3E77B
:1053600004ED00E010B5029B0C4639B91B60D86310
:105370001C6401211846FFF7B3FF10BD1A60F6E761
:1053800040B94FF0500383F31188BFF36F8FBFF321
:105390004F8FFEE710B584B0044653B192B189B97E
:1053A0004FF0500383F31188BFF36F8FBFF34F8F1C
:1053B000FEE74FF0500383F31188BFF36F8FBFF305
:1053C0004F8FFEE74AB941B14FF0500383F3118884
:1053D000BFF36F8FBFF34F8FFEE748200390039812
:1053E000482808D04FF0500383F31188BFF36F8F24
:1053F000BFF34F8FFEE720461C46039B012384F832
:10540000463000949DF81830FFF7ACFF204604B0FA
:1054100010BD40B94FF0500383F31188BFF36F8F75
:10542000BFF34F8FFEE7F0B583B0054617460E4633
:1054300001FB00F04830FFF7F3FD044650B10023B4
:1054400080F8463000903B4600F14802314628463D
:10545000FFF788FF204603B0F0BD0000F0B585B02F
:10546000019260B1044699B9026C8AB14FF05003C1
:1054700083F31188BFF36F8FBFF34F8FFEE74FF0B9
:10548000500383F31188BFF36F8FBFF34F8FFEE795
:10549000022B0BD1E26B012A08D04FF0500383F3AB
:1054A0001188BFF36F8FBFF34F8FFEE71E460F4685
:1054B00000F0A2FE50B9019B53B14FF0500383F3AB
:1054C0001188BFF36F8FBFF34F8FFEE700253AE0DF
:1054D000002538E0324639462046FFF78EFE636AE3
:1054E0004BB9A8B13B4B4FF080521A60BFF34F8FBE
:1054F000BFF36F8F0CE004F1240000F0E5FD38B13C
:10550000344B4FF080521A60BFF34F8FBFF36F8F51
:10551000FFF7F2FB012005B0F0BDFFF7EDFB002027
:10552000F9E702A800F016FE012519E0002384F82F
:10553000443021E0002384F8453023E02046FFF783
:1055400097FE00F075FCFFF7B5FBA26BE36B9A4288
:10555000C0D3022EBED0019B002BDED0002DE0D0A8
:10556000FFF7CAFB00F0BCFBFFF7A4FB94F8443044
:105570005BB2B3F1FF3FD9D094F845305BB2B3F1E1
:10558000FF3FD7D0FFF7B8FB01A902A800F0EEFD5E
:10559000C8B92046FFF715FE0028CFD0019904F1C5
:1055A000100000F079FD2046FFF762FE00F040FC9D
:1055B0000028C8D1074B4FF080521A60BFF34F8FBD
:1055C000BFF36F8FBFE72046FFF752FE00F030FCBD
:1055D0000020A0E704ED00E060B170B50446036C64
:1055E0008BB14FF0500383F31188BFF36F8FBFF37C
:1055F0004F8FFEE74FF0500383F31188BFF36F8F97
:10560000BFF34F8FFEE703682BB30E46FFF77CFC1A
:10561000EFF311854FF0500383F31188BFF36F8FC1
:10562000BFF34F8FA26BE36B934226D994F84530BA
:105630005BB20132A263B3F1FF3F18D1636AF3B1E9
:1056400004F1240000F040FDD8B1E6B10120306043
:1056500085F3118870BD8368002BD6D04FF05003BE
:1056600083F31188BFF36F8FBFF34F8FFEE70133D2
:105670005BB284F845300120EAE70020E8E701202A
:10568000E6E70120E4E70120E2E7000070B584B01E
:10569000019140B94FF0500383F31188BFF36F8F2E
:1056A000BFF34F8FFEE70446036C43B14FF0500346
:1056B00083F31188BFF36F8FBFF34F8FFEE700F0C6
:1056C0009BFD50B9019B5BB14FF0500383F31188F0
:1056D000BFF36F8FBFF34F8FFEE700252E4651E0DB
:1056E00000252E464EE0013BA363236813B900F06A
:1056F0009BFEA060236963B104F1100000F0E4FC9C
:1057000038B1484B4FF080521A60BFF34F8FBFF350
:105710006F8FFFF7F1FA0125284604B070BD45B13F
:105720004FF0500383F31188BFF36F8FBFF34F8F98
:10573000FEE7FFF7E1FAEFE702A800F00BFD012614
:105740002AE0002384F8443032E0002384F8453016
:1057500034E0FFF7AFFAA06800F05EFD0546FFF702
:10576000CBFA3BE02046FFF783FD00F061FB09E048
:105770002046FFF77DFD00F05BFB2046FFF730FD84
:10578000002840D1FFF796FAA36B002BABD1019B09
:10579000002BC4D0002ECFD0FFF7AEFA00F0A0FA55
:1057A000FFF788FA94F844305BB2B3F1FF3FC8D0FA
:1057B00094F845305BB2B3F1FF3FC6D0FFF79CFAD7
:1057C00001A902A800F0D2FC0028D1D12046FFF7A1
:1057D00007FD0028C6D02368002BBAD0019904F138
:1057E000240000F059FC2046FFF742FD00F020FBAA
:1057F0000028C7D10B4B4FF080521A60BFF34F8F78
:10580000BFF36F8FBEE7002D86D0FFF753FA204617
:10581000FFF7CEFC0146A06800F0ACFDFFF76CFA84
:10582000002579E704ED00E0F0B403684BB343686A
:105830005B68436000F10807BB4204D04368D3F8BB
:105840000CC0002609E05B684360F7E75B684360D3
:1058500008E02E46B6B9AC4514D043685B68436097
:105860009F42F3D04368DD6800230F2BF2D8EA187B
:1058700092F83420CC5C9442ECD1002AE9D0013378
:10588000F3E700263046F0BC70470000084B1B6869
:105890001B683BB1064B1B68DB68DB685A68054B2D
:1058A0001A607047034B4FF0FF321A60704700BF19
:1058B000FC490020CC4A00202DE9F047804699465B
:1058C000089D099F0A9C266B02F18042013A06EB73
:1058D000820626F0070689B30A4600230F2B07D855
:1058E000D05CE11881F83400D15C09B10133F5E7EF
:1058F000002384F84330062D00D90625E56265644F
:105900004FF0000AC4F848A0201DFFF72FF904F15A
:105910001800FFF72BF92461C5F10705A561646242
:10592000C4F84CA084F850A04A4641463046FFF7E0
:1059300099F9206007B13C60BDE8F087002384F846
:105940003430D8E738B5002407E004EB8402930034
:105950000E481844FFF7FFF80134062CF5D90C4D1A
:105960002846FFF7F8F80B4C2046FFF7F4F80A48F2
:10597000FFF7F1F80948FFF7EEF80948FFF7EBF8F1
:10598000084B1D60084B1C6038BD00BF044A002056
:10599000A44A0020B84A0020D84A0020044B002026
:1059A000F04A0020FC490020004A002010B50446BF
:1059B000FFF780F9204A1368013313601F4B1B68FF
:1059C0005BB11F4B1B686BB91C4B1B68DA6AE36A3F
:1059D0009A4207D8194B1C6004E0184B1C601368EE
:1059E000012B26D0174A136801331360E36A0122A2
:1059F0009A401549086802430A6003EB83039A0042
:105A0000211D12481044FFF7B4F8FFF775F90C4B4D
:105A10001B686BB1094B1B68DA6AE36A9A4207D2CA
:105A20000B4B4FF080521A60BFF34F8FBFF36F8F55
:105A300010BDFFF787FFD5E7904A0020F849002006
:105A4000EC4A00209C4A0020A04A0020044A002082
:105A500004ED00E010B5044690F8513033B9006B06
:105A6000FFF768FB2046FFF765FB10BD012B0AD04E
:105A7000022BFAD04FF0500383F31188BFF36F8FDE
:105A8000BFF34F8FFEE7FFF755FBEEE70F4B1B68A9
:105A9000D3B110B5FFF70EF90D4BDB68DC68201DA4
:105AA000FFF78DF80B4A1368013B1360074A136830
:105AB000013B1360FFF720F92046FFF7CBFF034BB4
:105AC0001B68002BE6D110BD704700BF944A002030
:105AD000044B0020904A002008B5FFF7D7FF064B83
:105AE0001B68012BF9D9054B4FF080521A60BFF3A8
:105AF0004F8FBFF36F8FF0E7044A002004ED00E002
:105B000070B504460E461D4B1D681D4B18680430C9
