:020000040800F2
:1000000000000220C10E0008A50B0008A70B000885
:10001000A90B0008AB0B0008AD0B000800000000A6
:10002000000000000000000000000000C12F0008D8
:10003000AF0B00080000000061300008C530000868
:10004000110F0008110F0008110F0008110F000810
:10005000110F0008110F0008110F0008110F000800
:10006000110F0008110F0008110F0008110F0008F0
:10007000110F0008110F0008110F0008110F0008E0
:10008000110F0008110F0008110F0008110F0008D0
:10009000110F0008110F0008110F0008110F0008C0
:1000A000110F0008110F0008110F0008110F0008B0
:1000B000110F0008B10B0008110F0008110F000804
:1000C000110F0008110F0008110F0008110F000890
:1000D000110F0008C10B0008110F0008110F0008D4
:1000E000110F0008110F0008110F0008110F000870
:1000F000110F0008110F0008110F0008110F000860
:10010000110F0008110F0008110F0008110F00084F
:10011000110F0008110F0008110F0008D10B000883
:10012000110F0008110F0008E10B0008F10B000887
:10013000110F0008110F0008110F0008110F00081F
:10014000110F0008110F0008110F0008110F00080F
:10015000110F0008110F0008010C0008110F000812
:10016000110F0008110F0008110F0008110F0008EF
:10017000110F0008110F0008110F00080000000007
:08018000110F0008110F000827
:1001900010B5054C237833B9044B13B10448AFF3C1
:1001A00000800123237010BD4404002000000000E3
:1001B000E04C000808B5034B1BB103490348AFF3FB
:1001C000008008BD0000000048040020E04C00084A
:1001D00053B94AB9002908BF00281CBF4FF0FF31AE
:1001E0004FF0FF3000F072B9ADF1080C6DE904CEAC
:1001F00000F006F8DDF804E0DDE9022304B0704702
:100200002DE9F047089E04468846002B4BD18A42D0
:10021000154667D9B2FA82F24AB1C2F1200701FA53
:1002200002F320FA07F7954047EA030894404FEAA3
:10023000154E230CB8FBFEF71FFA85FC0EFB178842
:1002400043EA084307FB0CF1994209D9EB1807F17F
:10025000FF3080F01B81994240F21881023F2B440D
:100260005B1AA4B2B3FBFEF00EFB103344EA034466
:1002700000FB0CFCA44509D92C1900F1FF3380F0D8
:100280000781A44540F2048102382C4440EA07402B
:10029000A4EB0C0400271EB1D4400023C6E90043A0
:1002A0003946BDE8F0878B4209D9002E00F0EB807B
:1002B0000027C6E9000138463946BDE8F087B3FAA1
:1002C00083F7002F47D18B4202D3824200F2FA809B
:1002D000841A61EB030301209846002EE0D0C6E9A2
:1002E0000048DDE702B9FFDEB2FA82F2002A40F0F0
:1002F0008F80491B4FEA154E1FFA85F80127B1FB85
:10030000FEFC230C0EFB1C1143EA014308FB0CF11D
:10031000994207D9EB180CF1FF3002D2994200F252
:10032000CD808446591AA3B2B1FBFEF00EFB101427
:1003300043EA044408FB00F8A04507D92C1900F152
:10034000FF3302D2A04500F2B6801846A4EB0804A1
:1003500040EA0C409FE7C7F1200CBB4022FA0CFE9C
:100360004EEA030E01FA07F420FA0CF521FA0CF319
:100370004FEA1E482543B3FBF8F92C0C08FB193350
:100380001FFA8EFA44EA034309FB0AF49C4202FA7C
:1003900007F200FA07F10BD91EEB030309F1FF3056
:1003A00080F087809C4240F28480A9F10209734466
:1003B0001B1BADB2B3FBF8F008FB103345EA034456
:1003C00000FB0AFAA24508D91EEB040400F1FF3332
:1003D0006BD2A24569D90238744440EA0940A0FBB7
:1003E0000289A4EB0A044C45C2464B4654D351D073
:1003F000002E69D0B1EB0A0564EB030404FA0CFC8F
:10040000FD40FC404CEA0505C6E90054002747E7DB
:10041000C2F1200320FA03F7954001FA02F021FA15
:1004200003F34FEA154E3843010CB3FBFEF71FFAF6
:1004300085F80EFB173341EA034107FB08F38B42B3
:1004400004FA02F407D9691807F1FF3C2FD28B4256
:100450002DD9023F2944CB1A81B2B3FBFEF00EFB2B
:10046000103341EA034100FB08F38B4207D96918B6
:1004700000F1FF3C17D28B4215D902382944C91A22
:1004800040EA07473BE73746304609E70746E7E6D5
:100490001846FBE64145ABD2B8EB020A69EB0E0207
:1004A00001381346A4E76046E9E7184695E7674632
:1004B000D1E781467CE702382C4447E7ACF1020CD7
:1004C0002B442FE7384608E73746E9E6704700BF78
:1004D000844641EA000313F003036DD1403A41D34F
:1004E00051F8043B40F8043B51F8043B40F8043B0E
:1004F00051F8043B40F8043B51F8043B40F8043BFE
:1005000051F8043B40F8043B51F8043B40F8043BED
:1005100051F8043B40F8043B51F8043B40F8043BDD
:1005200051F8043B40F8043B51F8043B40F8043BCD
:1005300051F8043B40F8043B51F8043B40F8043BBD
:1005400051F8043B40F8043B51F8043B40F8043BAD
:1005500051F8043B40F8043B51F8043B40F8043B9D
:10056000403ABDD2303211D351F8043B40F8043B3D
:1005700051F8043B40F8043B51F8043B40F8043B7D
:1005800051F8043B40F8043B103AEDD20C3205D34D
:1005900051F8043B40F8043B043AF9D2043208D045
:1005A000D2071CBF11F8013B00F8013B01D30B88B7
:1005B00003806046704700BF082A13D38B078DD095
:1005C00010F003038AD0C3F10403D21ADB071CBF67
:1005D00011F8013B00F8013B80D331F8023B20F8D1
:1005E000023B7BE7043AD9D3013A11F8013B00F80A
:1005F000013BF9D20B7803704B7843708B78837092
:100600006046704710B582B000240194114B1A6BFC
:1006100042F480021A631B6B03F480030193019B75
:10062000224605213A2000F0B3FC3A2000F0E4FC19
:10063000224605213B2000F0ABFC3B2000F0DCFC17
:1006400022460521462000F0A3FC462000F0D4FC01
:1006500002B010BD0038024008B5012002F0DFFBF7
:10066000FBE7000008B505E001224FF480510F4878
:1006700000F0D2FF04F078F90028F5D100224FF401
:1006800080510A4800F0C8FF094801F0E5FD4FF02D
:10069000FF31084B186803F091F90128F7D1064A99
:1006A0000649074804F06EF9F1E700BF001C02405C
:1006B0008408002064040020D8060020C006002022
:1006C000CC060020034B0360034B0B6080231360B8
:1006D000704700BF6C0600206C040020F0B591B09C
:1006E00000270E970F9701210EA802F0A1FB104BD7
:1006F0001860104C07AD26460FCE0FC596E80700D0
:1007000085E80700394607A802F053FB0A4B18603A
:100710006D461C340FCC0FC594E8070085E8070030
:100720003946684602F045FB044B186011B0F0BD35
:1007300064040020F84C00086804002060040020D5
:100740002DE9F0418AB0002405940694079408949A
:1007500009940094374B1A6B42F002021A631A6B29
:1007600002F002020092009A01941A6B42F0010218
:100770001A631A6B02F001020192019A02941A6B39
:1007800042F080021A631A6B02F080020292029A0F
:1007900003941A6B42F020021A631A6B02F02002D3
:1007A0000392039A04941A6B42F004021A631B6BBF
:1007B00003F004030493049BDFF88C8022464FF47B
:1007C000E051404600F028FF1B4F0122102138461F
:1007D00000F022FF194E01221146304600F01CFFA6
:1007E0004FF4E0530593012506950794089405A955
:1007F000404600F027FE1023059306950795022436
:10080000089405A9384600F01DFE302305930C4BD3
:100810000693079505A90B4800F014FE059506956B
:100820000795089405A9304600F00CFE0AB0BDE813
:10083000F08100BF00380240000002400004024086
:100840000000211000080240001C024010B582B0D8
:10085000044602680E4B9A4205D022680D4B9A421C
:1008600004D002B010BD00F06FFBF6E70A4B186829
:1008700010B101A903F048F8019B002BF1D0074B00
:100880004FF080521A60BFF34F8FBFF36F8FE8E7CE
:1008900000140040000400406404002004ED00E067
:1008A00072B6FEE700B595B03022002108A804F02A
:1008B0003FF9002303930493059306930793019351
:1008C000204A116C41F080511164126C02F0805288
:1008D0000192019A02931C4B1A6842F480421A60FA
:1008E0001B6803F480430293029B012308934FF497
:1008F0008033099302230E934FF480020F92062255
:100900001092A822119212930423139308A800F0C6
:1009100089FE98B90F2303930223049300230593C0
:100920004FF4A05306934FF480530793052103A877
:1009300001F0C8F820B915B05DF804FBFFF7B0FF6F
:10094000FFF7AEFF003802400070004008B500F02D
:10095000E1FAFFF7A7FFFFF7F3FEFFF753FE00F002
:1009600037FA00F009F800F0F9F900F05BF9FFF749
:10097000B5FE02F019FAFEE708B50F480F4B036009
:100980004FF48273436000238360C36002220261DC
:10099000012242614FF4007282613822C261036217
:1009A000436283620A23C36201F01CFA00B908BDE6
:1009B000FFF776FFFBE700BF9C07002000300140F7
:1009C0002DE9F04188B00023039304930593069327
:1009D000079302683C4B9A4202D008B0BDE8F08110
:1009E00004460025009503F584335A6C42F4805286
:1009F0005A645A6C02F480520092009A01951A6B64
:100A000042F002021A631A6B02F002020192019A8A
:100A100002951A6B42F001021A631B6B03F001038B
:100A20000293029B182303934FF00208CDF8108025
:100A3000032706970526079603A9244800F002FD20
:100A400080230393CDF8108005950697079603A998
:100A50001F4800F0F7FC1F481F4B03604FF0C063B6
:100A600043608560C5604FF48063036145618561C3
:100A7000C5614FF440330362456200F031FBE8B9D1
:100A8000144BE3649C631548154B03604FF0C0633F
:100A90004360402383600023C3604FF4806202619F
:100AA00043618361C3614FF400320262436200F02C
:100AB00017FB30B9094BA3649C638EE7FFF7F0FE88
:100AC000DEE7FFF7EDFEF5E70030014000040240ED
:100AD00000000240DC060020406402403C07002089
:100AE0005864024000B583B0002200920D4B596C4F
:100AF00041F480415964596C01F48041009100999E
:100B00000192196C41F0805119641B6C03F0805301
:100B10000193019B0F216FF0010000F039FA03B03F
:100B20005DF804FB0038024010B588B00022014691
:100B3000372000F02DFA372000F05EFA00240194EF
:100B4000144B1A6C42F020021A641B6C03F0200351
:100B50000193019B02A903A801F08AF801F068F84B
:100B600043000D48A0FB03239B0C013B0B480C4AA0
:100B7000026040F2E732C26043600461846001F0C9
:100B8000D5FC10B1012008B010BD044801F064FB91
:100B9000F9E700BF0038024083DE1B43F407002062
:100BA00000140040FEE7FEE7FEE7FEE7FEE77047C1
:100BB00008B5024801F099FB08BD00BF8408002079
:100BC00008B5024801F0EEFF08BD00BF2C09002067
:100BD00008B5024801F089FB08BD00BFF4070020FA
:100BE00008B5024800F040FB08BD00BFDC0600204D
:100BF00008B5024800F038FB08BD00BF3C070020E4
:100C000008B5024800F030FB08BD00BFCC0800204A
:100C1000034AD2F8883043F47003C2F88830704732
:100C200000ED00E000B587B0002302930393049326
:100C30000593009301931548154A026042F2CF02D2
:100C4000426083606322C2600361836101F06EFCD5
:100C500098B906A94FF4805341F8103D0B4801F0B4
:100C600067FD68B90023009301936946074801F0C6
:100C7000CDFD40B907B05DF804FBFFF711FEE8E7D2
:100C8000FFF70EFEEEE7FFF70BFEF3E78408002008
:100C90000004004000B583B00368154A934205D0B4
:100CA000144A934216D003B05DF804FB0022009270
:100CB000114B196C41F0020119641B6C03F0020323
:100CC0000093009B05211D2000F062F91D2000F01B
:100CD00093F9E8E700230193074B5A6C42F4003282
:100CE0005A645B6C03F400330193019BDBE700BFA4
:100CF00000040040004401400038024000B587B0C5
:100D00000023019302930393049305930268104B0D
:100D10009A4202D007B05DF804FB002300930D4B0C
:100D20001A6B42F020021A631B6B03F0200300933E
:100D3000009B402301930223029301220392049318
:100D40000323059301A9044800F07CFBE2E700BF00
:100D500000440140003802400014024000B589B050
:100D6000002301930293039304930593069307933F
:100D70001548164A02604360836041F28732C260C0
:100D80000361836101F0D2FBA0B90F4801F0F9FBC8
:100D900098B960230193002202920392059201A95F
:100DA000094801F051FC58B90748FFF7A7FF09B0FF
:100DB0005DF804FBFFF774FDE7E7FFF771FDE8E777
:100DC000FFF76EFDF0E700BF3C0800200044014043
:100DD00008B50A480A4B03604FF4E133436000232F
:100DE0008360C36003610C2242618361C36101F0CF
:100DF00037FE00B908BDFFF753FDFBE72C090020C3
:100E00000010014030B589B000230393049305938B
:100E100006930793026803F1804303F588339A42EF
:100E200001D009B030BD04460025019503F5943387
:100E30005A6C42F010025A645A6C02F0100201928D
:100E4000019A02951A6B42F002021A631B6B03F0BF
:100E500002030293029BC023039302230493032300
:100E600006930723079303A9124800F0EBFA1248F0
:100E7000124B03604FF00063436040238360C56002
:100E80004FF48063036145618561C5610562456218
:100E900000F026F958B9084B63639C6300220521D2
:100EA000252000F075F8252000F0A6F8B9E7FFF737
:100EB000F7FCF0E700040240CC080020B8640240D0
:100EC000DFF834D00D480E490E4A002302E0D45812
:100ED000C4500433C4188C42F9D30B4A0B4C002382
:100EE00001E013600432A242FBD3FFF791FE03F04E
:100EF000FBFDFFF72BFD70470000022000000020E3
:100F000044040020AC4D000844040020E8460020C2
:100F1000FEE7000008B50B4B1A6842F400721A6035
:100F20001A6842F480621A601A6842F480721A6089
:100F3000032000F01BF80020FFF7F6FDFFF7D2FDBD
:100F4000002008BD003C0240034A1168034B1B7897
:100F50000B441360704700BF70090020040000209C
:100F6000014B1868704700BF70090020074AD3681A
:100F700023F4E0631B041B0C000200F4E060184340
:100F800040F0BF6040F40030D060704700ED00E0FA
:100F900030B4174BDB68C3F30223C3F10704042CFE
:100FA00028BF04241D1D062D18D9033B4FF0FF3523
:100FB00005FA04F421EA0401994005FA03F322EA50
:100FC0000303194300280BDB0901C9B200F160409B
:100FD00000F5614080F8001330BC70470023E5E75E
:100FE00000F00F000901C9B2024B1954F4E700BF29
:100FF00000ED00E014ED00E0002807DB00F01F0228
:10100000400901239340024A42F82030704700BF54
:1010100000E100E00268D3B2103B0B49A1FB0313CF
:101020001B090A49C95CC165032B06D822F47F72EB
:1010300022F003028265806D704722F47F7222F0F5
:10104000030204328265F6E7ABAAAAAA5C4D000847
:10105000836A826992B9012B0AD01BB1022B01D09D
:1010600000207047C36A13F0807F2CD100207047A6
:10107000C36AB3F1C07F28D000207047B2F5005F8B
:1010800005D0022B29D9032B15D000207047032B44
:1010900003D8DFE803F01C041C0A00207047C36A71
:1010A00013F0807F15D100207047C36AB3F1C07F71
:1010B00011D000207047C36A13F0807F01D0012057
:1010C00070470020704701207047012070470120C1
:1010D00070470120704701207047012070470000D1
:1010E00070B50446FFF73CFF002C5BD0054600239B
:1010F00084F83430022384F835302268136823F0F2
:101100000103136023681A6812F0010F0AD0FFF779
:1011100027FF401B0528F5D920236365032084F8A9
:10112000350070BD1A68204810406168A2680A4303
:10113000E1680A4321690A4361690A43A1690A43D4
:10114000E1690A43216A0A430243616A04291ED005
:101150001A602668756925F00705636A1D43042B2C
:1011600007D1A36A1D43E36A1BB12046FFF770FF56
:1011700090B975612046FFF74DFFE26D3F23934024
:10118000836000206065012384F83530C9E7E16A97
:10119000206B01430A43DBE740236365012084F8A9
:1011A0003500BEE70120BCE73F8010F070B5044673
:1011B000866DFFF7D5FE94F83530DBB2022B06D0F2
:1011C00080236365002384F83430012070BD054618
:1011D0002268136823F0160313602268536923F012
:1011E00080035361236CE3B12268136823F0080382
:1011F00013602268136823F00103136023681B68DF
:1012000013F0010F11D0FFF7ABFE401B0528F5D9F5
:1012100020236365002384F83430032084F83500EC
:10122000D4E7A36C002BDFD1E3E7E26D3F239340CB
:10123000B360002084F83400012384F83530C5E71A
:1012400090F83530DBB2022B03D0802343650120B8
:101250007047052380F835300268136823F00103D6
:101260001360002070470000F0B583B004460023EF
:101270000193724B1D68724BA3FB0535AD0A876D58
:101280003E68C26D08239340334210D003681A6849
:1012900012F0040F0BD01A6822F004021A60C26D1B
:1012A00008239340BB60436D43F001034365E26D47
:1012B00001239340334209D02268526912F0800F13
:1012C00004D0BB60636D43F002036365E26D0423E9
:1012D0009340334209D02268126812F0020F04D002
:1012E000BB60636D43F004036365E26D10239340BC
:1012F000334224D02268126812F0080F1FD0BB605E
:1013000023681A6812F4802F0DD01B6813F4002F85
:1013100004D1236C9BB12046984710E0A36C73B1B5
:10132000204698470BE01A6812F4807F03D11A68B0
:1013300022F008021A60236C0BB120469847E26D38
:1013400020239340334255D02268126812F0100FC8
:1013500050D0BB6094F83530DBB2052B0ED023683B
:101360001A6812F4802F33D01B6813F4002F2AD18F
:10137000636C002B3ED0204698473BE02268136800
:1013800023F0160313602268536923F0800353612E
:10139000236CA3B12268136823F008031360E26D85
:1013A0003F239340BB60002384F83430012384F84A
:1013B0003530236D002B3FD0204698473CE0A36C8E
:1013C000002BE7D1EBE7E36BA3B12046984711E090
:1013D0001A6812F4807F09D11A6822F010021A608C
:1013E000002384F83430012384F83530E36B0BB1EB
:1013F00020469847636DFBB1636D13F0010F17D062
:10140000052384F835302268136823F00103136044
:10141000019B01330193AB4204D823681B6813F08E
:10142000010FF5D1002384F83430012384F83530DE
:10143000E36C0BB12046984703B0F0BD00000020DC
:10144000B5814E1B00230F2B00F2DC80F0B482B07C
:101450005DE086685F000324BC4026EA0406CC6891
:10146000BC4034438460466826EA02064C68C4F3F4
:1014700000129A403243426056E0DC08083450F8CB
:10148000247003F0070296000F22B24027EA0207F9
:101490000A69B2403A4340F8242059E0072200E0AC
:1014A0000022B2403A430234574E46F82420574AAD
:1014B0001468EA4302EA04064F6817F4803F01D03B
:1014C00045EA0406514C2660646802EA04064F6847
:1014D00017F4003F01D045EA04064C4C6660A4684E
:1014E00002EA04064F6817F4801F01D045EA04069B
:1014F000464CA660E46822404E6816F4001F01D0F6
:1015000045EA0402414CE26001330F2B77D80122F7
:101510009A400C6804EA0205AA42F5D14C6804F02E
:101520000304013C012C94D94A6802F00302032A07
:1015300009D0C4685E000322B24024EA02048A682B
:10154000B2402243C2604A6802F00302022A94D0E9
:1015500004685E000322B24024EA02044A6802F0F2
:101560000302B240224302604A6812F0805FCBD08F
:1015700000220192264A546C44F480445464526C14
:1015800002F480420192019A9C08A61C1E4A52F85D
:10159000267003F0030296000F22B24027EA0207EA
:1015A0001C4A90423FF47CAF02F5806290421AD010
:1015B00002F58062904218D002F58062904216D007
:1015C00002F58062904214D002F58062904212D0FF
:1015D00002F58062904210D002F5806290423FF4A2
:1015E0005DAF08225DE701225BE7022259E7032293
:1015F00057E7042255E7052253E7062251E702B0D8
:10160000F0BC7047704700BF00380140003C01400B
:10161000003802400000024012B90904816170479D
:1016200081617047002800F0E98170B582B00446FE
:10163000036813F0010F3BD0A74B9B6803F00C032A
:10164000042B2CD0A44B9B6803F00C03082B21D057
:101650006368B3F5803F4FD0B3F5A02F52D09E4BB7
:101660001A6822F480321A601A6822F480221A6002
:101670006368002B50D0FFF773FC0546964B1B6840
:1016800013F4003F14D1FFF76BFC401B6428F5D91D
:101690000320B8E1904B5B6813F4800FD8D08E4BD9
:1016A0001B6813F4003F03D06368002B00F0A8818F
:1016B000236813F0020F55D0874B9B6813F00C0F73
:1016C0003ED0854B9B6803F00C03082B33D0E368B6
:1016D000002B68D0814B01221A60FFF741FC0546C0
:1016E0007D4B1B6813F0020F54D1FFF739FC401BF0
:1016F0000228F5D9032086E1774A136843F4803342
:101700001360B5E7744B1A6842F480221A601A68B5
:1017100042F480321A60ABE7FFF722FC05466E4BBD
:101720001B6813F4003FC3D0FFF71AFC401B64286A
:10173000F5D9032067E1684B5B6813F4800FC6D1CD
:10174000654B1B6813F0020F04D0E368012B01D036
:10175000012058E1604A136823F0F803216943EA45
:10176000C1031360236813F0080F40D0636963B3AB
:101770005B4B01221A60FFF7F3FB0546564B5B6F8C
:1017800013F0020F33D1FFF7EBFB401B0228F5D912
:10179000032038E1504A136823F0F803216943EA33
:1017A000C1031360DEE74D4B00221A60FFF7D8FB40
:1017B0000546494B1B6813F0020FD3D0FFF7D0FB4F
:1017C000401B0228F5D903201DE1454B00221A6079
:1017D000FFF7C6FB0546404B5B6F13F0020F06D0C8
:1017E000FFF7BEFB401B0228F5D903200BE123685D
:1017F00013F0040F79D0384B1B6C13F0805F33D19A
:1018000000230193344B1A6C42F080521A641B6C13
:1018100003F080530193019B0125324B1B6813F4A5
:10182000807F23D0A368012B34D0052B38D02A4BDE
:101830001A6F22F001021A671A6F22F004021A6767
:10184000A368002B36D0FFF78BFB0646224B1B6F9D
:1018500013F0020F48D1FFF783FB801B41F288335E
:101860009842F3D90320CEE00025D6E71D4A13683D
:1018700043F480731360FFF773FB0646194B1B6834
:1018800013F4807FCED1FFF76BFB801B0228F5D9C4
:101890000320B8E0104A136F43F001031367CFE74A
:1018A0000D4B1A6F42F004021A671A6F42F00102E0
:1018B0001A67C5E7FFF754FB0646074B1B6F13F08B
:1018C000020F11D0FFF74CFB801B41F28833984286
:1018D000F3D9032097E000BF0038024000004742E0
:1018E000800E474200700040EDB9A369002B00F064
:1018F0008980484A926802F00C02082A51D0022BD3
:1019000017D0454B00221A60FFF72AFB0446414BD3
:101910001B6813F0007F42D0FFF722FB001B022858
:10192000F5D903206FE03B4A136C23F08053136416
:10193000DBE7394B00221A60FFF712FB0546354BF7
:101940001B6813F0007F06D0FFF70AFB401B02283C
:10195000F5D9032057E0E369226A1343626A43EA38
:101960008213A26A5208013A43EA0243E26A43EA56
:101970000263284A5360284B01221A60FFF7F0FAED
:101980000446244B1B6813F0007F06D1FFF7E8FAEA
:10199000001B0228F5D9032035E0002033E00020A9
:1019A00031E0012B31D01B4B5B6803F48001E2690D
:1019B000914201D0012026E003F03F02216A8A42D1
:1019C00001D001201FE0616A47F6C0721A40B2EBF5
:1019D000811F01D0012016E003F44031A26A5208B1
:1019E000013AB1EB024F01D001200CE003F070632B
:1019F000E26AB3EB026F0AD0012004E001207047D5
:101A0000012000E0002002B070BD0120FBE70020B3
:101A1000F9E700BF0038024060004742264B9B6850
:101A200003F00C03042B44D0082B01D0234870474B
:101A30002DE9F04B204B5A6802F03F025B6813F42B
:101A4000800F13D01C4B5968C1F3881100231C4828
:101A5000A1FB0001FEF7BCFB174B5B68C3F301431E
:101A600001335B00B0FBF3F0BDE8F08B124B5B6819
:101A7000C3F388131E4600275C010025E41A65EBBA
:101A80000705A90141EA9461A001001B61EB050172
:101A9000CB0043EA5073C400A01943EB07018B024B
:101AA00043EA90538402204619460023FEF790FB38
:101AB000D2E70348704700BF003802400024F4001A
:101AC000001BB700002800F09E8070B50446504B04
:101AD0001B6803F007038B4209D2CBB24C4A137048
:101AE000136803F007038B4201D0012070BD236807
:101AF00013F0020F17D013F0040F04D0454A936877
:101B000043F4E0539360236813F0080F04D0414A74
:101B1000936843F4604393603E4A936823F0F00374
:101B2000A068034393600D46236813F0010F32D081
:101B30006368012B21D09A1E012A25D9354A1268E3
:101B400012F0020F61D033498A6822F00302134376
:101B50008B60FFF705FA06462E4B9B6803F00C03DB
:101B60006268B3EB820F16D0FFF7FAF9801B41F2DF
:101B700088339842F0D90320B8E7264A126812F455
:101B8000003FE0D10120B1E7224A126812F0007F45
:101B9000D9D10120AAE71E4B1B6803F00703AB4213
:101BA00009D9EAB21A4B1A701B6803F00703AB425B
:101BB00001D001209AE7236813F0040F06D0154ADC
:101BC000936823F4E053E1680B439360236813F0B8
:101BD000080F07D00F4A936823F46043216943EA52
:101BE000C1039360FFF71AFF0A4B9B68C3F303130B
:101BF000094AD35CD840094B1860094B1868FEF7B6
:101C000093FF002072E70120704701206EE700BFBC
:101C1000003C024000380240444D00080000002013
:101C200008000020014B1868704700BF000000202A
:101C300008B5FFF7F7FF044B9B68C3F38223034A01
:101C4000D35CD84008BD00BF00380240544D0008A6
:101C500008B5FFF7E7FF044B9B68C3F34233034A21
:101C6000D35CD84008BD00BF00380240544D000886
:101C70000F2303600B4B9A6802F0030242609A68DC
:101C800002F0F00282609A6802F4E052C2609B683F
:101C9000DB0803F4E0530361034B1B6803F0070305
:101CA0000B60704700380240003C02402DE9F043D1
:101CB00083B004460F4616461D46FFF751F90A9BAE
:101CC000181A00EB0508FFF74BF981462A4B1B68F1
:101CD000C3F3CB3308FB03F3019323689B6837EA14
:101CE00003030CBF01230023B34240D0B5F1FF3FF3
:101CF000F3D0FFF735F9A0EB090040450AD2B8F15F
:101D0000000F07D0019B0BB94FF00008019B013B6E
:101D10000193E2E72268536823F0E00353606368AD
:101D2000B3F5827F0BD0A36AB3F5005F14D0012313
:101D300084F85130002384F85030032018E0A36861
:101D4000B3F5004F02D0B3F5806FECD12268136871
:101D500023F040031360E6E72268136823F400537E
:101D600013602268136843F400531360DFE7002018
:101D700003B0BDE8F08300BF0000002030B585B09F
:101D8000164C2468164DA5FB0434640D4FF47A7587
:101D900005FB04F403944468B4F5827F0BD0039BE5
:101DA000C3B1039B013B039303689B6813F0800F4F
:101DB000F5D100230FE00B4604460092002280215B
:101DC000FFF774FF034630B1636D43F02003636592
:101DD000032300E00023184605B030BD00000020BA
:101DE000819F5E1600285AD010B50446436A33B965
:101DF0004368B3F5827F05D00023C36102E000236E
:101E0000036143610023A36294F85130002B40D05A
:101E1000022384F851302268136823F040031360D2
:101E2000636803F48273A26802F404421343E26815
:101E300002F400621343226902F002021343626952
:101E400002F001021343A26902F400721343E26933
:101E500002F038021343226A02F080021343A26A9E
:101E600002F40052216813430B60638B03F00403F8
:101E7000626A02F01002216813434B602268D36942
:101E800023F40063D36100206065012384F851309E
:101E900010BD84F850302046FEF792FDB8E70120CF
:101EA00070472DE9F04383B0DDF8288090F850406A
:101EB000012C00F00B811D4617460E4604460123F7
:101EC00080F85030FFF74CF8814694F85100C0B2CA
:101ED0006368012815D0B3F5827F0AD0022301225E
:101EE00084F85120002284F85020184603B0BDE841
:101EF000F083A368002B40F0DB80042801D002238C
:101F0000EDE7002E00F0D680002F00F0D580002DE8
:101F100000F0D48094F85130DBB2042B02D00523BA
:101F200084F8513000236365A763E587A58726639E
:101F3000E586A5862364636423681A6812F0400F5F
:101F400003D11A6842F040021A60E368B3F5006FEB
:101F500010D063680BB1012D0AD1226B236812786F
:101F60001A73236B01332363E38E013B9BB2E38639
:101F7000012569E063680BB1012D0AD1226B23684A
:101F80001288DA60236B02332363E38E013B9BB23A
:101F9000E38601251BE023689A6812F0010F0DD03B
:101FA000E28F92B252B1DA68A36B1A80A36B02334C
:101FB000A363E38F013B9BB2E3870125FEF7D0FFCC
:101FC000A0EB0900404502D3B8F1FF3F78D1E38E82
:101FD0009BB21BB9E38F9BB2002B52D023689A6847
:101FE00012F0020FD7D0E28E92B2002AD3D0002D89
:101FF000D1D0226B1288DA60236B02332363E38E25
:10200000013B9BB2E3860025C5E723689A6812F07E
:10201000010F0DD0E28F92B252B1DA68A36B1A7041
:10202000A36B0133A363E38F013B9BB2E3870125DD
:10203000FEF796FFA0EB0900404502D3B8F1FF3F41
:1020400040D1B8F1000F3FD0E38E9BB213B9E38FBC
:102050009BB2B3B123689A6812F0020FD5D0E28E1A
:1020600092B2002AD1D0002DCFD0226B12781A73F1
:10207000236B01332363E38E013B9BB2E386002590
:10208000C3E74A4641462046FFF778FE034618B1AB
:1020900020236365012322E7A268002A7FF41FAF93
:1020A00001922268D168019192680192019A16E723
:1020B000022314E7012312E7012310E701230EE7AF
:1020C00003230CE703230AE7032308E702230CE7B3
:1020D00030B4036A23F001030362056A426884692D
:1020E00024F073040B681C4325F002058B682B4316
:1020F000104DA84203D005F58065A84205D123F014
:102100000803CD682B4323F004030A4DA84203D0F3
:1021100005F58065A84205D122F440724D6915434A
:102120008A692A43426084614A684263036230BC20
:10213000704700BF0000014030B4036A23F480738D
:102140000362036A4268C46924F073040D682C4377
:1021500023F400738D6843EA0523124DA84203D08F
:1021600005F58065A84206D123F40063CD6843EAF3
:10217000052323F480630B4DA84203D005F5806549
:10218000A84207D122F440524D6942EA05128D69F6
:1021900042EA05124260C4614A68C263036230BC0D
:1021A000704700BF0000014030B4036A23F480533D
:1021B0000362036A4468C26922F4E6420D6842EA97
:1021C000052223F400538D6843EA0533094DA842E4
:1021D00003D005F58065A84204D124F480444D69FC
:1021E00044EA85144460C2614A680264036230BCF8
:1021F000704700BF0000014010B4036A046A24F075
:1022000001040462846924F0F00444EA021223F019
:102210000A030B43826103625DF8044B704710B4FC
:10222000036A23F0100303628469036A24F4704490
:1022300044EA023223F0A00343EA011382610362FD
:102240005DF8044B7047836823F07003194341F035
:10225000070181607047000090F83D30DBB2012B30
:1022600001D001207047022380F83D300268D36816
:1022700043F00103D3600368184A934220D0B3F1BE
:10228000804F1DD0A2F57C42934219D002F58062A6
:10229000934215D002F58062934211D002F5784244
:1022A00093420DD002F57052934209D0A2F59432B8
:1022B000934205D01A6842F001021A60002070476C
:1022C0009A6802F00702062A05D01A6842F0010255
:1022D0001A60002070470020704700BF00000140D6
:1022E0007047704770477047704710B504460368E1
:1022F0001A6912F0020F11D0DA6812F0020F0DD035
:102300006FF002021A610123037703689B6913F0DF
:10231000030F70D0FFF7E6FF0023237723681A69C5
:1023200012F0040F12D0DA6812F0040F0ED06FF022
:1023300004021A610223237723689B6913F4407F08
:102340005FD02046FFF7CEFF0023237723681A696A
:1023500012F0080F12D0DA6812F0080F0ED06FF0EA
:1023600008021A61042323772368DB6913F0030F43
:102370004ED02046FFF7B6FF0023237723681A6963
:1023800012F0100F12D0DA6812F0100F0ED06FF0AA
:1023900010021A61082323772368DB6913F4407F56
:1023A0003DD02046FFF79EFF0023237723681A695C
:1023B00012F0010F03D0DA6812F0010F36D1236852
:1023C0001A6912F0800F03D0DA6812F0800F34D14E
:1023D00023681A6912F0400F03D0DA6812F0400F38
:1023E00032D123681A6912F0200F03D0DA6812F094
:1023F000200F30D110BDFFF774FF2046FFF773FFA9
:102400008AE72046FFF76DFF2046FFF76CFF9BE74A
:102410002046FFF766FF2046FFF765FFACE7204642
:10242000FFF75FFF2046FFF75EFFBDE76FF0010299
:102430001A612046FEF70AFAC1E76FF080021A61BE
:10244000204600F028FAC3E76FF040021A612046E8
:10245000FFF74AFFC5E76FF020021A61204600F03F
:1024600019FAC7E70368304A904212D0B0F1804FA2
:102470000FD0A2F57C4290420BD002F580629042D0
:1024800007D002F58062904203D002F57842904274
:1024900003D123F070034A681343234A90422AD0A1
:1024A000B0F1804F27D0A2F57C42904223D002F5B4
:1024B000806290421FD002F5806290421BD002F5EC
:1024C0007842904217D002F57052904213D002F534
:1024D000806290420FD002F5806290420BD0A2F54C
:1024E0009832904207D002F58062904203D002F504
:1024F0008062904203D123F44073CA68134323F0EF
:1025000080034A69134303608B68C3620B6883626C
:10251000054B984203D003F58063984201D10B69C3
:1025200003630123436170470000014038B310B5D5
:10253000044690F83D30EBB1022384F83D30211D74
:102540002068FFF78FFF012384F8463084F83E307F
:1025500084F83F3084F8403084F8413084F84230C9
:1025600084F8433084F8443084F8453084F83D30B2
:10257000002010BD80F83C30FEF78CFBDCE701202A
:10258000704738B310B5044690F83D30EBB10223E4
:1025900084F83D30211D2068FFF764FF012384F893
:1025A000463084F83E3084F83F3084F8403084F878
:1025B000413084F8423084F8433084F8443084F861
:1025C000453084F83D30002010BD80F83C30FFF7E6
:1025D00087FEDCE70120704730B4036A23F0100364
:1025E0000362036A4468826922F4E6420D6842EAA3
:1025F000052223F020038D6843EA0513114DA842FC
:1026000003D005F58065A84206D123F08003CD688C
:1026100043EA051323F040030A4DA84203D005F511
:102620008065A84207D124F440644D6944EA8504DA
:102630008D6944EA8504446082614A68826303626A
:1026400030BC70470000014038B590F83C30012B99
:1026500060D00D460446012380F83C300C2A1AD87D
:10266000DFE802F0071919191D191919311919197B
:1026700044000068FFF72CFD2268936943F00803CB
:1026800093612268936923F004039361226893693C
:1026900029690B439361002084F83C0038BD006831
:1026A000FFF79AFF2268936943F4006393612268FD
:1026B000936923F48063936122689369296943EAEB
:1026C00001239361E7E70068FFF736FD2268D369CD
:1026D00043F00803D3612268D36923F00403D36174
:1026E0002268D36929690B43D361D4E70068FFF7F7
:1026F0005BFD2268D36943F40063D3612268D36928
:1027000023F48063D3612268D369296943EA0123F2
:10271000D361C0E70220C1E710B4846824F47F4489
:1027200042EA03230B43234383605DF8044B704765
:1027300090F83C30012B66D010B50446012380F898
:102740003C30022380F83D300268936823F47F43D5
:1027500023F0770393600B68402B4AD013D9602B8A
:102760003DD01ED9702B28D0B3F5005F30D1CB6897
:102770004A6889680068FFF7CFFF2268936843F4CE
:102780008043936024E0102B06D004D9202B03D083
:10279000302B01D01CE0DBB919462068FFF753FD50
:1027A00016E0502B14D1CA6849680068FFF724FD71
:1027B00050212068FFF747FD0AE0CB684A68896826
:1027C0000068FFF7A9FF2268936843F077039360DE
:1027D000012384F83D30002084F83C0010BDCA6815
:1027E00049680068FFF71BFD60212068FFF72BFD9B
:1027F000EEE7CA6849680068FFF7FEFC40212068E0
:10280000FFF721FDE4E702207047000090F83C301C
:10281000012B3BD030B4012380F83C30022380F8F8
:102820003D3003685C689D6824F070040A682243A8
:102830005A600368164A93421AD0B3F1804F17D0FA
:10284000A2F57C42934213D002F5806293420FD0EE
:1028500002F5806293420BD002F57842934207D092
:1028600002F57052934203D0A2F59432934204D100
:1028700025F080054A6815439D60012380F83D30AE
:10288000002380F83C30184630BC70470220704767
:1028900000000140704770470268D36823F49073CA
:1028A000D3600268536923F001035361036B012B6A
:1028B00005D0202380F83E30002303637047026870
:1028C000D36823F01003D360F3E790F83D30DBB218
:1028D000212B27D18368B3F5805F16D0036A5A1C79
:1028E00002621A7803685A60C38C013B9BB2C384AE
:1028F000D3B90268D36823F08003D3600268D36839
:1029000043F04003D360002070470369002BE5D1FA
:10291000036A1B880268C3F308035360036A023327
:102920000362E1E702207047002070472DE9F04B79
:1029300004460268136923F44053C1680B431361D2
:1029400083680269134342691343C2691A430168E9
:10295000CB6823F4164323F00C031343CB600268C7
:10296000536923F4407381690B43536103683A4A06
:10297000934206D002F58062934202D0FFF758F9E5
:1029800001E0FFF765F9E369B3F5004F30D04FF090
:102990000009061849EB090716EB000B47EB090C79
:1029A0004FEACC0343EA5B734FEACB0293469C4663
:1029B00063689A009B0F10EB0B0049EB0C01FDF7CD
:1029C00007FC264DA5FB00325109642202FB1102CF
:1029D00013013233A5FB03235B0903F0F00202EB82
:1029E000011203F00F03216813448B60BDE8F08BE4
:1029F00083464FF0000C06184CEB0C0716EB000852
:102A000047EB0C094FEAC90343EA58734FEAC8027F
:102A10009046994662680021921841EB01031BEB36
:102A200008004CEB0901FDF7D3FB0C4DA5FB003270
:102A30005109642202FB1102D3003233A5FB0323A8
:102A40005B095A0002F4F87202EB011203F007036B
:102A5000216813448B60C9E7001001401F85EB51CA
:102A600058B310B5044690F83D300BB3242384F8D6
:102A70003D302268D36823F40053D3602046FFF72B
:102A800055FF2268136923F4904313612268536948
:102A900023F02A0353612268D36843F40053D360C0
:102AA00000202064202384F83D3084F83E3010BD9F
:102AB00080F83C30FEF7A6F9D8E701207047704750
:102AC00008B50168CB6823F04003CB60202380F871
:102AD0003D30FFF7F4FF002008BD7047704708B590
:102AE000806B0023C385C384FFF7F8FF08BD7047E0
:102AF00090F83E30DBB2222B50D18368B3F5805F73
:102B000030D0826AB3F5805F04D0002B37D10369DF
:102B1000002B34D103685B681370836A01338362CE
:102B2000C38D013B9BB2C385002B39D110B5044640
:102B30000268D36823F02003D3600268D36823F4CB
:102B40008073D3600268536923F00103536120232B
:102B500080F83E30036B012B17D0FFF7BEFF00203B
:102B6000206310BD0269002ACBD1826A03685B68CA
:102B7000C3F308031380836A02338362D0E70368D8
:102B80005B6803F07F031370C7E70268D36823F024
:102B90001003D360818DFFF7AAFFE0E702207047A2
:102BA0000020704730B583B0044602681368D068CF
:102BB000516913F00F0505D113F0200F02D010F06A
:102BC000200F56D1002D6AD011F0010102D110F46E
:102BD000907F64D013F0010F06D010F4807F03D0F3
:102BE000226C42F00102226413F0040F04D019B1E8
:102BF000226C42F00202226413F0020F04D019B1D9
:102C0000226C42F00402226413F0080F07D010F087
:102C1000200F00D119B1226C42F008022264226C0C
:102C2000002A4BD013F0200F02D010F0200F24D137
:102C300023685B6903F04003226C12F0080F00D197
:102C40003BB32046FFF728FE23685A6912F0400F75
:102C50001BD05A6922F040025A61A36B8BB14E4AD5
:102C60001A65A06BFEF7ECFA40B3A06B036D9847B2
:102C700024E02046FFF73CFF20E02046FFF738FF26
:102C8000D6E72046FFF72AFF18E02046FFF726FF89
:102C900014E02046FFF722FF002323640EE0216B9F
:102CA00001290DD013F0800F02D010F0800F6AD1EF
:102CB00013F0400F02D010F0400F68D103B030BDC8
:102CC00013F0100FEED010F0100FEBD00023019393
:102CD0001368019353680193019B536913F0400FEC
:102CE00030D0A16B0B685B689BB2002BE6D0A08D47
:102CF0009842E3D9E385CB69B3F5807F1AD0D368D6
:102D000023F48073D3602268536923F00103536175
:102D10002268536923F040035361202384F83E3036
:102D2000002323632268D36823F01003D360A06BD1
:102D3000FEF73CFAA18DE38DC91A89B22046FFF750
:102D4000D6FEBBE7A18DE38DC91A89B2E38D9BB294
:102D5000002BB3D00029B1D0D36823F49073D36093
:102D60002268536923F001035361202384F83E3025
:102D7000002323632268D36823F01003D360204626
:102D8000FFF7B5FE9AE72046FFF79FFD96E720463E
:102D9000FFF796FE92E700BFDF2A0008842801D0E3
:102DA000033070470020704708B501F0C9F80020D3
:102DB00008BD2DE9F04387B004460F464569A5B12B
:102DC000866996B1D0F80480D0F80090B0F9080078
:102DD000FFF7E4FF22690296019500903B464946C1
:102DE000404601F03FF8059013E065682668D4F886
:102DF0001080B4F90800FFF7D1FF05AB01930090F4
:102E00003B461FFA88F23146284601F065F8012852
:102E100003D1059807B0BDE8F0830020FAE708B5B4
:102E2000034600B90123184601F0CEF9002008BD81
:102E300010B582B0436863B101291AD10322009210
:102E400000221146012000F033FC0446204602B067
:102E500010BD01290FD103220021012000F071FCD7
:102E600004460028F2D000231A46194600F08EFCD2
:102E7000ECE70024EAE70024E8E700F108034360F8
:102E80004FF0FF328260C36003610023036070472C
:102E900000230361704743684B609A688A609A68B0
:102EA000516099600861036801330360704730B472
:102EB0000D68B5F1FF3F02D000F1080202E002699F
:102EC00004E01A4653681C68AC42FAD953684B6058
:102ED00099608A605160086103680133036030BC07
:102EE00070470369426881689160826841685160F7
:102EF0005A68824206D0002202611A68013A1A60BA
:102F00001868704782685A60F5E7000082B00023B5
:102F100001930D4B1B68B3F1FF3F08D04FF05003F6
:102F200083F31188BFF36F8FBFF34F8FFEE74FF02E
:102F3000500383F31188BFF36F8FBFF34F8F019B53
:102F4000002BFCD002B070470C000020084800683D
:102F5000006880F308884FF0000080F3148862B6A0
:102F600061B6BFF34F8FBFF36F8F00DF00BF00006C
:102F700008ED00E0DFF80C00016841F47001016029
:102F80007047000088ED00E04FF0807340F8043C8B
:102F900021F0010140F8081C054B40F80C3C40F8BA
:102FA000202C6FF0020340F8243C4438704700BFE7
:102FB0000D2F0008000000000000000000000000CD
:102FC000074B19680868B0E8F04F80F30988BFF331
:102FD0006F8F4FF0000080F311887047AFF30080CF
:102FE0009C4500204FF0500383F31188BFF36F8F8F
:102FF000BFF34F8F0A4A136801331360012B00D0CF
:103000007047084B1B6813F0FF0FF9D04FF05003C7
:1030100083F31188BFF36F8FBFF34F8FFEE700BFBD
:103020000C00002004ED00E0094B1B6843B94FF091
:10303000500383F31188BFF36F8FBFF34F8FFEE709
:10304000013B034A13600BB983F31188704700BF3B
:103050000C00002000000000000000000000000044
:10306000EFF30980BFF36F8F154B1A681EF0100F36
:1030700008BF20ED108A20E9F04F10602DE909000B
:103080004FF0500080F31188BFF34F8FBFF36F8F65
:1030900001F0C0F84FF0000080F3118809BC1968F6
:1030A0000868B0E8F04F1EF0100F08BFB0EC108AAF
:1030B00080F30988BFF36F8F704700BFAFF30080C4
:1030C0009C45002008B54FF0500383F31188BFF3EF
:1030D0006F8FBFF34F8F00F071FF18B1034B4FF0AC
:1030E00080521A60002383F3118808BD04ED00E0CC
:1030F000084A0023136008490B60084B1B68084905
:10310000A1FB03139B09013B06490B6007231360D6
:10311000704700BF10E000E018E000E00000002071
:10312000D34D621014E000E03A4B1A683A4B9A42D1
:103130000DD0384B1A68394B9A4211D14FF05003D9
:1031400083F31188BFF36F8FBFF34F8FFEE74FF00C
:10315000500383F31188BFF36F8FBFF34F8FFEE7E8
:1031600010B582B02E4B1A78D2B20192FF221A709B
:103170001B78DBB28DF803309DF8033003F0500369
:10318000284A1370284B07221A6009E0264A136860
:10319000013B13609DF803305B00DBB28DF8033018
:1031A0009DF8033013F0800FF0D11F4B1B68032BE9
:1031B00008D04FF0500383F31188BFF36F8FBFF334
:1031C0004F8FFEE71B0203F4E063174A1360019B75
:1031D000DBB2134A1370154B1A6842F470021A607E
:1031E0001A6842F070421A60FFF782FF0024104B09
:1031F0001C60FFF7BFFE0F4A136843F040431360A3
:10320000FFF7A4FE01F006F8FFF780FE204602B0AB
:1032100010BD00BF00ED00E071C20F4170C20F4150
:1032200000E400E0740900207809002020ED00E0AF
:103230000C00002034EF00E0EFF305830F2B0FD9D3
:10324000104A9B5CDBB2104A12789A4208D94FF0C0
:10325000500383F31188BFF36F8FBFF34F8FFEE7E7
:103260000A4B1B6803F4E063094A1268934208D9C9
:103270004FF0500383F31188BFF36F8FBFF34F8F6D
:10328000FEE77047F0E300E0740900200CED00E079
:1032900078090020124A12F0070F1ED0D11D21F02C
:1032A0000701C1F5705313440A460E48026000211D
:1032B00041601344083B23F007030B480360596047
:1032C0001960991A51601360084B1960084B196016
:1032D000084B4FF000421A6070474FF47053E4E718
:1032E00080090020944500207C09002088450020AA
:1032F000844500208045002010B4134B1A68824298
:103300001BD359685C18844203D14068014459605A
:10331000184641684418A24213D10C4C2468A242BA
:103320000DD05268114441601A68126802609842D8
:1033300000D018605DF8044B70471346DEE7046068
:10334000F5E70260F3E700BF944500207C09002008
:1033500070B5044600F02AFE3C4B1B68BBB13C4BE9
:103360001B681C4267D1ACB1083414F0070F11D0B0
:1033700024F00704083404F007035BB14FF0500356
:1033800083F31188BFF36F8FBFF34F8FFEE7FFF713
:1033900081FFE4E7002C50D02E4B1B68A3424ED394
:1033A0002D4B1D6801E02B4615466A68A24202D2E9
:1033B0002A68002AF7D1254A1268AA4241D01E681D
:1033C00008362A681A606B681B1B102B10D9281945
:1033D00010F0070F08D04FF0500383F31188BFF3AC
:1033E0006F8FBFF34F8FFEE743606C60FFF784FF82
:1033F0006A6818490B689B1A0B60184909688B4268
:1034000001D216490B60124B1B6813436B600023FB
:103410002B60134A13680133136000F05BFE16F053
:10342000070F10D04FF0500383F31188BFF36F8F55
:10343000BFF34F8FFEE70026EFE70026EDE70026FB
:10344000EBE70026E9E7304670BD00BF7C090020AD
:1034500080450020844500209445002088450020B8
:103460008C450020002834D038B50446A0F108056A
:1034700050F8042C174909680A4208D14FF050034C
:1034800083F31188BFF36F8FBFF34F8FFEE750F8C0
:10349000080C40B14FF0500383F31188BFF36F8FD6
:1034A000BFF34F8FFEE722EA010244F8042C00F03C
:1034B0007DFD54F8041C084A13680B441360284629
:1034C000FFF71AFF054A13680133136000F002FE8C
:1034D00038BD70478045002084450020904500207D
:1034E000436A23B1036B1868C0F1070070470020DE
:1034F000704710B50446FFF775FDA26BE36B9A4267
:1035000004D00024FFF790FD204610BD0124F9E708
:1035100010B50446FFF766FDA36B23B10024FFF747
:1035200083FD204610BD0124F9E770B50446164618
:10353000856B026C5AB903681BB100200135A56385
:1035400070BD806800F0C8FF0023A360F6E76EB985
:103550004068FCF7BDFF226C636813446360A26897
:10356000934219D3236863600020E7E7C068FCF743
:10357000AFFF226C5242E3681344E36021688B4240
:1035800002D2A3681A44E260022E01D00020D5E7DF
:1035900025B1013D0020D1E70020CFE70020CDE795
:1035A00038B50546FFF71EFD95F8454064B203E0C7
:1035B00000F026FF013C64B2002C08DD6B6A33B1D9
:1035C00005F1240000F08AFE0028F3D0F0E7FF2385
:1035D00085F84530FFF728FDFFF704FD95F84440D6
:1035E00064B203E000F00CFF013C64B2002C08DD83
:1035F0002B6933B105F1100000F070FE0028F3D004
:10360000F0E7FF2385F84430FFF70EFD38BD0000DA
:1036100038B540B94FF0500383F31188BFF36F8F73
:10362000BFF34F8FFEE704460D46FFF7DBFC216832
:10363000E26B236C03FB0210A0600020A0636160BA
:10364000013A02FB0313E360FF2384F8443084F85B
:103650004530A5B923691BB9FFF7E6FC012038BD49
:1036600004F1100000F03AFE0028F5D0084B4FF0AE
:1036700080521A60BFF34F8FBFF36F8FECE704F1F6
:103680001000FFF7FAFB04F12400FFF7F6FBE3E775
:1036900004ED00E010B5029B0C4639B91B60D863FD
:1036A0001C6401211846FFF7B3FF10BD1A60F6E74E
:1036B00040B94FF0500383F31188BFF36F8FBFF30E
:1036C0004F8FFEE710B584B0044653B192B189B96B
:1036D0004FF0500383F31188BFF36F8FBFF34F8F09
:1036E000FEE74FF0500383F31188BFF36F8FBFF3F2
:1036F0004F8FFEE74AB941B14FF0500383F3118871
:10370000BFF36F8FBFF34F8FFEE7482003900398FE
:10371000482808D04FF0500383F31188BFF36F8F10
:10372000BFF34F8FFEE720461C46039B012384F81E
:10373000463000949DF81830FFF7ACFF204604B0E7
:1037400010BD40B94FF0500383F31188BFF36F8F62
:10375000BFF34F8FFEE7F0B583B0054617460E4620
:1037600001FB00F04830FFF7F3FD044650B10023A1
:1037700080F8463000903B4600F14802314628462A
:10378000FFF788FF204603B0F0BD0000F0B585B01C
:10379000019260B1044699B9026C8AB14FF05003AE
:1037A00083F31188BFF36F8FBFF34F8FFEE74FF0A6
:1037B000500383F31188BFF36F8FBFF34F8FFEE782
:1037C000022B0BD1E26B012A08D04FF0500383F398
:1037D0001188BFF36F8FBFF34F8FFEE71E460F4672
:1037E00000F014FE50B9019B53B14FF0500383F326
:1037F0001188BFF36F8FBFF34F8FFEE700253AE0CC
:10380000002538E0324639462046FFF78EFE636ACF
:103810004BB9A8B13B4B4FF080521A60BFF34F8FAA
:10382000BFF36F8F0CE004F1240000F057FD38B1B6
:10383000344B4FF080521A60BFF34F8FBFF36F8F3E
:10384000FFF7F2FB012005B0F0BDFFF7EDFB002014
:10385000F9E702A800F088FD012519E0002384F8AB
:10386000443021E0002384F8453023E02046FFF770
:1038700097FE00F02FFCFFF7B5FBA26BE36B9A42BB
:10388000C0D3022EBED0019B002BDED0002DE0D095
:10389000FFF7CAFB00F08AFBFFF7A4FB94F8443063
:1038A0005BB2B3F1FF3FD9D094F845305BB2B3F1CE
:1038B000FF3FD7D0FFF7B8FB01A902A800F060FDD9
:1038C000C8B92046FFF715FE0028CFD0019904F1B2
:1038D000100000F0EBFC2046FFF762FE00F0FAFB60
:1038E0000028C8D1074B4FF080521A60BFF34F8FAA
:1038F000BFF36F8FBFE72046FFF752FE00F0EAFBF1
:103900000020A0E704ED00E060B170B50446036C50
:103910008BB14FF0500383F31188BFF36F8FBFF368
:103920004F8FFEE74FF0500383F31188BFF36F8F83
:10393000BFF34F8FFEE703682BB30E46FFF77CFC07
:10394000EFF311854FF0500383F31188BFF36F8FAE
:10395000BFF34F8FA26BE36B934226D994F84530A7
:103960005BB20132A263B3F1FF3F18D1636AF3B1D6
:1039700004F1240000F0B2FCD8B1E6B101203060BF
:1039800085F3118870BD8368002BD6D04FF05003AB
:1039900083F31188BFF36F8FBFF34F8FFEE70133BF
:1039A0005BB284F845300120EAE70020E8E7012017
:1039B000E6E70120E4E70120E2E7000070B584B00B
:1039C000019140B94FF0500383F31188BFF36F8F1B
:1039D000BFF34F8FFEE70446036C43B14FF0500333
:1039E00083F31188BFF36F8FBFF34F8FFEE700F0B3
:1039F0000DFD50B9019B5BB14FF0500383F311886B
:103A0000BFF36F8FBFF34F8FFEE700252E4651E0C7
:103A100000252E464EE0013BA363236813B900F056
:103A20000DFEA060236963B104F1100000F056FCA4
:103A300038B1484B4FF080521A60BFF34F8FBFF33D
:103A40006F8FFFF7F1FA0125284604B070BD45B12C
:103A50004FF0500383F31188BFF36F8FBFF34F8F85
:103A6000FEE7FFF7E1FAEFE702A800F07DFC012690
:103A70002AE0002384F8443032E0002384F8453003
:103A800034E0FFF7AFFAA06800F0D0FC0546FFF77E
:103A9000CBFA3BE02046FFF783FD00F01BFB09E07B
:103AA0002046FFF77DFD00F015FB2046FFF730FDB7
:103AB000002840D1FFF796FAA36B002BABD1019BF6
:103AC000002BC4D0002ECFD0FFF7AEFA00F06EFA74
:103AD000FFF788FA94F844305BB2B3F1FF3FC8D0E7
:103AE00094F845305BB2B3F1FF3FC6D0FFF79CFAC4
:103AF00001A902A800F044FC0028D1D12046FFF71C
:103B000007FD0028C6D02368002BBAD0019904F124
:103B1000240000F0CBFB2046FFF742FD00F0DAFA6C
:103B20000028C7D10B4B4FF080521A60BFF34F8F64
:103B3000BFF36F8FBEE7002D86D0FFF753FA204604
:103B4000FFF7CEFC0146A06800F01EFDFFF76CFAFF
:103B5000002579E704ED00E0084B1B681B683BB1CA
:103B6000064B1B68DB68DB685A68054B1A607047B8
:103B7000034B4FF0FF321A60704700BFA045002092
:103B8000704600202DE9F04780469946089D099F20
:103B90000A9C266B02F18042013A06EB820626F06F
:103BA000070689B30A4600230F2B07D8D05CE1181B
:103BB00081F83400D15C09B10133F5E7002384F8C2
:103BC0004330062D00D90625E56265644FF0000AF2
:103BD000C4F848A0201DFFF75BF904F11800FFF7B7
:103BE00057F92461C5F10705A5616462C4F84CA0CA
:103BF00084F850A04A4641463046FFF7C5F9206098
:103C000007B13C60BDE8F087002384F83430D8E782
:103C100038B5002407E004EB840293000E481844F2
:103C2000FFF72BF90134062CF5D90C4D2846FFF788
:103C300024F90B4C2046FFF720F90A48FFF71DF93D
:103C40000948FFF71AF90948FFF717F9084B1D60F3
:103C5000084B1C6038BD00BFA84500204846002026
:103C60005C4600207C460020A846002094460020A8
:103C7000A0450020A445002010B50446FFF7B2F986
:103C8000204A1368013313601F4B1B685BB11F4B45
:103C90001B686BB91C4B1B68DA6AE36A9A4207D847
:103CA000194B1C6004E0184B1C601368012B26D0D4
:103CB000174A136801331360E36A01229A401549D9
:103CC000086802430A6003EB83039A00211D12482F
:103CD0001044FFF7E0F8FFF7A7F90C4B1B686BB136
:103CE000094B1B68DA6AE36A9A4207D20B4B4FF022
:103CF00080521A60BFF34F8FBFF36F8F10BDFFF775
:103D000087FFD5E7344600209C45002090460020E0
:103D10004046002044460020A845002004ED00E075
:103D200010B5044690F8513033B9006BFFF79AFB99
:103D30002046FFF797FB10BD012B0AD0022BFAD0CB
:103D40004FF0500383F31188BFF36F8FBFF34F8F92
:103D5000FEE7FFF787FBEEE70F4B1B68D3B110B50B
:103D6000FFF740F90D4BDB68DC68201DFFF7B9F861
:103D70000B4A1368013B1360074A1368013B136049
:103D8000FFF752F92046FFF7CBFF034B1B68002BD0
:103D9000E6D110BD704700BF38460020A84600207D
:103DA0003446002008B5FFF7D7FF064B1B68012BF0
:103DB000F9D9054B4FF080521A60BFF34F8FBFF314
:103DC0006F8FF0E7A845002004ED00E070B50446D1
:103DD0000E461D4B1D681D4B18680430FFF781F817
:103DE00050B91A4B1B68DA6A012303FA02F2184928
:103DF0000B6823EA02030B60B4F1FF3F13D02C449D
:103E0000124B1B685C60A54216D8124B18680F4B0A
:103E100019680431FFF74BF80F4B1B68A34212D906
:103E20000D4B1C600FE0002EE9D0084B19680431DF
:103E30000A48FFF730F806E0094B1868034B196889
:103E40000431FFF734F870BDBC4600209C450020CB
:103E500044460020A04500207046002094460020E3
:103E6000A445002070B586B00B9D0C9C45B94FF061
:103E7000500383F31188BFF36F8FBFF34F8FFEE7BB
:103E800044B94FF0500383F31188BFF36F8FBFF332
:103E90004F8FFEE754260496049E542E08D04FF010
:103EA000500383F31188BFF36F8FBFF34F8FFEE78B
:103EB000049E2563022584F8515000250395029441
:103EC00005AD01950A9D0095FFF75CFE2046FFF7C2
:103ED000D3FE059806B070BD2DE9F04385B00746C6
:103EE0008846154699469000FFF732FA08B3064611
:103EF0005420FFF72DFA0446B8B10663E4B100235D
:103F000084F85130039302940D9B01930C9B009312
:103F10004B462A4641463846FFF734FE2046FFF717
:103F2000ABFE012005B0BDE8F0833046FFF79AFAFA
:103F3000E4E74FF0FF30F5E74FF0FF30F2E7000025
:103F400010B588B000240594069407AA06A905A810
:103F5000FCF7B8FB059B0293069B01930094234654
:103F6000079A0D490D48FFF77DFF08B908B010BD4D
:103F70004FF0500383F31188BFF36F8FBFF34F8F60
:103F8000074B4FF0FF321A60064B01221A60064BB6
:103F90001C60FFF7C9F8E9E7644D0008A53D00087B
:103FA0007046002090460020BC460020024A13685C
:103FB00001331360704700BF3C460020F8B53A4B10
:103FC0001B68002B69D1394B1D6801351D60C5B9CF
:103FD000374B1B681B6843B14FF0500383F31188C4
:103FE000BFF36F8FBFF34F8FFEE7314A1168314B3C
:103FF000186810601960304A136801331360FFF7C6
:10400000ABFD2E4B1B68AB423DD900242C4B1B68EB
:10401000DB6A03EB83039A002A4B9B58012B00D9E0
:104020000124294B1B68002B3CD001243AE00124D9
:104030001F4B1B681B6843B31D4B1B68DB68DE68A6
:1040400073689D4226D3371D3846FEF74AFFB36A90
:104050001BB106F11800FEF744FFF36A01229A40F3
:104060001A49086802430A6003EB83039A00394641
:1040700014481044FEF70FFFF26A114B1B68DB6A0D
:104080009A42D4D2D4E70024D2E70C4B4FF0FF324F
:104090001A60BBE7094A1360B8E70D4A1368013399
:1040A000136000242046F8BD3C460020BC4600209A
:1040B000A0450020A4450020744600207046002042
:1040C0009C450020A8450020C04600204446002012
:1040D0007846002038B5334B1B6843B94FF0500386
:1040E00083F31188BFF36F8FBFF34F8FFEE7FEF7A7
:1040F00079FF2C4B1A68013A1A601B68002B4DD1CE
:10410000294B1B6823B90024FEF78EFF204638BDDB
:104110000024264B1B681BB3244BDB68DC6804F1CE
:104120001800FEF7DEFE251D2846FEF7DAFEE36ADC
:1041300001229A401E49086802430A6003EB830388
:104140009A0029461B481044FEF7A5FEE26A1A4B66
:104150001B68DB6A9A42DCD3184B01221A60D8E74D
:104160000CB1FFF7F9FC164B1C6854B1FFF726FFA2
:1041700010B1124B01221A60013CF7D1104B002202
:104180001A600E4B1B685BB10E4B4FF080521A60E9
:10419000BFF34F8FBFF36F8F0124B5E70024B3E760
:1041A0000024B1E73C460020344600207C46002035
:1041B00044460020A84500209C450020C046002021
:1041C0007846002004ED00E010B5A8B104460F4B7E
:1041D0001B6843B14FF0500383F31188BFF36F8F17
:1041E000BFF34F8FFEE7FFF7E1FE00212046FFF708
:1041F000EDFDFFF76FFF38B9054B4FF080521A60A5
:10420000BFF34F8FBFF36F8F10BD00BF3C46002040
:1042100004ED00E0204B1B681BB1204B01221A600B
:1042200070471E4B00221A601D4B1B68B3FA83F3C4
:10423000DBB2C3F11F0303EB83018A0019498A58DB
:1042400042B94FF0500383F31188BFF36F8FBFF370
:104250004F8FFEE710B413489A00D418A100014410
:104260004C6864684C601A449100083108448442E8
:104270000BD003EB83039A000A4B13445B68DA68A4
:10428000094B1A605DF8044B7047616805481422B9
:1042900002FB03025160ECE73C460020C0460020D0
:1042A00044460020A84500209C45002040B94FF01E
:1042B000500383F31188BFF36F8FBFF34F8FFEE777
:1042C00010B50C46044B19681831FEF7F0FD0121BA
:1042D0002046FFF77BFD10BD9C45002038B5C36824
:1042E000DC6844B94FF0500383F31188BFF36F8F3C
:1042F000BFF34F8FFEE704F118052846FEF7F1FDE6
:10430000134B1B68E3B9251D2846FEF7EAFDE36A57
:1043100001229A400F49086802430A6003EB8303B5
:104320009A0029460C481044FEF7B5FDE26A0B4B93
:104330001B68DB6A9A4208D90120094B186038BD16
:1043400029460848FEF7A7FDF0E70020F7E700BF81
:104350003C46002044460020A84500209C45002003
:10436000C04600207C460020034B1B680360034BC3
:104370001B684360704700BF74460020BC460020A5
:10438000F8B550B1054689B94FF0500383F3118851
:10439000BFF36F8FBFF34F8FFEE74FF0500383F3F0
:1043A0001188BFF36F8FBFF34F8FFEE70C46FEF708
:1043B00019FE114B196868680A1A2368B3F1FF3FA8
:1043C00016D02F680D4E3668B74201D0884211D9F9
:1043D000934203D800232360012405E09B1A236045
:1043E0002846FFF7C1FF0024FEF71EFE2046F8BD59
:1043F0000024F9E70124F7E7BC46002074460020BA
:10440000014B01221A607047C0460020054B1B6813
:1044100033B1054B1B680BB1002070470220704779
:1044200001207047904600203C46002000284BD0D9
:1044300038B50446C26A25490968C96A8A4239D230
:104440008169002905DB21490968C96AC1F10701B1
:104450008161606902EB820291001D4A0A44904228
:1044600005D01A4A1268D26AE262012038BD251DC1
:104470002846FEF736FD40B9E26A012303FA02F24C
:1044800014490B6823EA02030B60104B1B68DB6ABC
:10449000E362012404FA03F20E49086802430A6049
:1044A00003EB83039A00294609481044FEF7F3FC06
:1044B0002046DBE7426C054B1B68DB6A9A4201D25F
:1044C0000120D3E70020D1E7002070479C45002061
:1044D000A845002044460020002849D038B50446AD
:1044E000264A1268824208D04FF0500383F31188A5
:1044F000BFF36F8FBFF34F8FFEE7826C42B94FF06F
:10450000500383F31188BFF36F8FBFF34F8FFEE724
:10451000013A8264C06A616C88422BD062BB251D5F
:104520002846FEF7DEFC70B9E26A142303FB02F3AF
:104530001349CB583BB9012303FA02F211490B6826
:1045400023EA02030B60636CE362C3F10702A2611A
:10455000012404FA03F20B49086802430A60294661
:10456000074A142000FB0320FEF795FC204638BDC7
:10457000002070470020FAE70020F8E79C45002063
:10458000A84500204446002000284FD038B50346F7
:10459000806C40B94FF0500383F31188BFF36F8FE5
:1045A000BFF34F8FFEE75A6C8A4200D20A46D96A9F
:1045B000914201D0012800D038BD1D4800689842C2
:1045C00008D14FF0500383F31188BFF36F8FBFF30F
:1045D0004F8FFEE7DA629869002802DBC2F107021A
:1045E0009A615A691348142404FB01018A42E3D1F9
:1045F0001C461D1D2846FEF774FC40B9E26A0123E3
:1046000003FA02F20C490B6823EA02030B60E26A28
:10461000012393400849086803430B602946054B72
:10462000142000FB0230FEF736FCC5E7704700BFE0
:104630009C450020A845002044460020054B1B68EF
:1046400023B1044B1A68936C01339364014B1868CF
:10465000704700BF9C4500207047704730B40C4A3B
:104660005568A82303FB00F09268002105E0EC1ACE
:10467000224411441A46814207D2054B9B689A4254
:10468000FBD0F4D9D21A1144F4E730BC704700BF14
:1046900010E000E010B504E04FF47A70FFF7DEFFA1
:1046A0002046431E9CB20028F6D110BD08B500225A
:1046B00010210248FCF7B0FF08BD00BF0000024017
:1046C00008B5012210210248FCF7A6FF08BD00BF73
:1046D0000000024008B5002201210248FCF79CFFBF
:1046E00008BD00BF0004024008B50122114602487F
:1046F000FCF792FF08BD00BF0004024000B587B080
:104700008DF80F00012300930DF117020DF10F0139
:104710000348FDF7C6FB9DF8170007B05DF804FBE2
:104720009C07002010B50C46FFF7E8FF2046FFF776
:10473000E5FF10BD10B50C4640F08000FFF7DEFF2E
:104740005520FFF7DBFF207010BD38B50D4614462D
:1047500040F08000FFF7D2FF06E05520FFF7CEFFC4
:1047600005F8010B013CE4B2002CF6D138BD000085
:10477000F8B5FFF79BFF8020FFF7C0FF5520FFF73C
:10478000BDFF5520FFF7BAFFFFF79AFF9620FFF70E
:1047900065FFFFF78BFF8020FFF7B0FF5520FFF785
:1047A000ADFF5520FFF7AAFFFFF78AFF9620FFF71E
:1047B00055FFFFF77BFFB6217E20FFF7B3FFFFF722
:1047C0007FFF5020FFF766FFFFF770FF8020FFF7A5
:1047D00095FF5520FFF792FF5520FFF78FFFFFF75A
:1047E0006FFF9620FFF73AFFFFF760FF8020FFF78B
:1047F00085FF5520FFF782FF5520FFF77FFF044616
:10480000FFF75EFF9620FFF729FF1E2C32D1002410
:10481000052C2DD8FFF74AFF174A04EB4403D118A3
:104820004D78D65C29463046FFF77CFFFFF748FFFE
:104830009620FFF713FFFFF739FF46F08000FFF7E0
:104840005DFF5520FFF75AFF5520FFF757FF06463B
:10485000FFF736FF9620FFF701FFB54202D1013482
:10486000E4B2D5E704EB4407034B1F44B87802E0F9
:10487000002000E0FF20F8BD6C4D0008F0B583B0CB
:10488000002502AC04F8015DFFF724FF214628460D
:10489000FFF750FFFFF728FF9620FFF7DFFEFFF737
:1048A00019FF21462846FFF745FFFFF71DFF962019
:1048B000FFF7D4FEFFF70EFFB6211420FFF732FFFB
:1048C000FFF712FF5020FFF7E5FEFFF703FF214639
:1048D0002846FFF72FFFFFF707FF9620FFF7BEFEE2
:1048E000FFF7F8FE21462846FFF724FFFFF7FCFEFE
:1048F0009620FFF7B3FE9DF807300F2B2ED12C46E4
:10490000052C29D8FFF7E6FE164A04EB4403D1181C
:104910004D78D65C29463046FFF704FFFFF7E4FEEA
:104920009620FFF79BFEFFF7D5FE0DF107013046FD
:10493000FFF700FFFFF7D8FE9620FFF78FFE9DF8E8
:1049400007309D4202D10134E4B2D9E704EB4407B9
:10495000044B1F44B87802E0002000E0FF2003B0C1
:10496000F0BD00BF804D000810B5FFF775FEFFF7E2
:1049700074FEFFF7FDFE0446FFF780FF2043C0B240
:1049800010BD0000F0B583B007460E461446002562
:1049900000950195FFF78AFE9220FFF7AFFE0622F1
:1049A00069461220FFF7D1FEFFF78AFE9DF801301D
:1049B0001B021BB29DF80020134307EE903AF8EE5D
:1049C000E77A474A92ED007A67EE877AC6ED007A79
:1049D0009DF803301B021BB29DF802100B4307EE3B
:1049E000103AD2ED006AB8EEC77A27EE267A86ED45
:1049F000017A9DF805301B021BB29DF80420134379
:104A000007EE903AF8EEE77A67EEA67AC6ED027AFC
:104A1000FFF760FE082269462846FFF796FEFFF77B
:104A200063FE9DF800300F2B27D0FFF73FFEA2203A
:104A3000FFF764FE022269462220FFF786FEFFF799
:104A40003FFE9DF800209DF801305B0943EAC20358
:104A5000B3F5806F01DBA3F5006307EE903AF8EE43
:104A6000E77AB4EE007A67EE877AB3EE077A77EEEC
:104A7000877AC4ED007A03B0F0BD9DF803301B02C5
:104A80001BB29DF80220134307EE903AF8EEE77A46
:104A9000144A92ED007A67EE877AC7ED007A9DF8A6
:104AA00005301B021BB29DF804100B4307EE103AB1
:104AB000D2ED006AB8EEC77A27EE267A87ED017A42
:104AC0009DF807301B021BB29DF80620134307EE2A
:104AD000903AF8EEE77A67EEA67AC7ED027AA4E795
:104AE000100000201400002070B50D4E0D4D761BF7
:104AF000B61006D00024013455F8043B9847A6426E
:104B0000F9D1094E094D761B00F0EAF8B61006D02F
:104B10000024013455F8043B9847A642F9D170BDF2
:104B2000A04D0008A04D0008A84D0008A04D0008A9
:104B3000F0B4860743D0541E002A3ED0CAB20346C2
:104B400002E014F1FF3438D303F8012B9D07F8D1AC
:104B5000032C2BD9CDB245EA05250F2C45EA054596
:104B600016D9A4F110073F0903F1200606EB07163A
:104B700003F1100242E9045542E902551032B242F3
:104B8000F8D104F00F040137032C03EB07130DD900
:104B90001E462246043A032A46F8045BFAD8221F2E
:104BA00022F003020432134404F003042CB1C9B20E
:104BB0001C4403F8011B9C42FBD1F0BC7047144617
:104BC0000346C5E7024B13B1024800F005B8704731
:104BD00000000000E54B0008002301461A46184675
:104BE00000F01EB838B50A4C0A4D641BA4100AD058
:104BF00004F18043013B05EB8305013C55F8043982
:104C00009847002CF9D1BDE8384000F06FB800BFDC
:104C1000AC4D0008A84D0008704700BF704700BFAA
:104C20002DE9F8432B4D0646286898460F469146D5
:104C3000FFF7F2FF284B1C68D4F84831002B3DD019
:104C40005A681F2A0DDC02F1010C16BB0232C3F8B0
:104C500004C0286843F82270FFF7E0FF0020BDE899
:104C6000F8831E4B7BB34FF4C870AFF3008003464C
:104C700048B3D4F848210021C0E900214FF0010CCD
:104C8000C4F848010A46C0F88811C0F88C11002EFB
:104C9000DCD003EB82010124C1F88890D3F88801AD
:104CA00094402043022EC3F88801C1F80881CDD179
:104CB000D3F88C110C43C3F88C41C7E704F5A673F5
:104CC000C4F84831BCE72868FFF7A8FF4FF0FF3071
:104CD000C5E700BF40040020944D0008000000001C
:104CE000F8B500BFF8BC08BC9E467047F8B500BFD9
:084CF000F8BC08BC9E467047A9
:104CF800384D0008590600080000000000000000B8
:104D0800800000000000000000000000304D000896
:104D18006506000800000000000000008000000098
:104D28000000000000000000424D49303838000003
:104D380064656661756C745461736B0000000000F3
:104D48000000000001020304060708090000000033
:104D580001020304000610160006101649444C45CB
:104D6800000000007D04017C000240AB0341000507
:104D780053080658040700000F00081082091100A4
:104D88000A15800B16000C18010D000018000020F1
:084D980068B4FF7F0100000078
:084DA000C54B0008B501000835
:044DA800910100086D
:104DAC000024F4000100000010000000AAAAAAAA26
:104DBC00E7416B3A58A08B3A000000000403002036
:104DCC006C030020D4030020000000000000000051
:104DDC0000000000000000000000000000000000C7
:104DEC0000000000000000000000000000000000B7
:104DFC0000000000000000000000000000000000A7
:104E0C000000000000000000000000000000000096
:104E1C000000000000000000000000000000000086
:104E2C000000000000000000000000000000000076
:104E3C000000000000000000000000000000000066
:104E4C000000000000000000000000000000000056
:104E5C000000000000000000000000000000000046
:104E6C0001000000000000000E33CDAB34126DE6E3
:104E7C00ECDE05000B00000000000000000000004C
:104E8C000000000000000000000000000000000016
:104E9C000000000000000000000000000000000006
:104EAC0000000000000000000000000000000000F6
:104EBC0000000000000000000000000000000000E6
:0451EC00C446002095
:0400000508000EC120
:00000001FF
