:020000040800F2
:1000000000000220B5110008450E0008470E000848
:10001000490E00084B0E00084D0E000800000000BD
:10002000000000000000000000000000913D0008FA
:100030004F0E000800000000313E0008953E000809
:100040000512000805120008051200080512000834
:100050000512000805120008051200080512000824
:1000600005120008510E00080512000805120008CC
:100070000512000805120008051200080512000804
:1000800005120008051200080512000805120008F4
:1000900005120008051200080512000805120008E4
:1000A00005120008051200080512000805120008D4
:1000B000051200085D0E0008051200080512000870
:1000C00005120008051200080512000805120008B4
:1000D000051200086D0E0008051200080512000840
:1000E0000512000805120008051200080512000894
:1000F0000512000805120008051200080512000884
:100100000512000805120008051200080512000873
:100110000512000805120008051200087D0E0008EF
:1001200005120008051200088D0E00089D0E00083B
:100130000512000805120008051200080512000843
:100140000512000805120008051200080512000833
:100150000512000805120008AD0E0008051200087F
:100160000512000805120008051200080512000813
:100170000512000805120008051200080000000022
:08018000051200080512000839
:1001C00010B5054C237833B9044B13B10448AFF391
:1001D00000800123237010BD5C0800200000000097
:1001E0004C66000808B5034B1BB103490348AFF345
:1001F000008008BD00000000600800204C66000878
:1002000053B94AB9002908BF00281CBF4FF0FF317D
:100210004FF0FF3000F072B9ADF1080C6DE904CE7B
:1002200000F006F8DDF804E0DDE9022304B07047D1
:100230002DE9F047089E04468846002B4BD18A42A0
:10024000154667D9B2FA82F24AB1C2F1200701FA23
:1002500002F320FA07F7954047EA030894404FEA73
:10026000154E230CB8FBFEF71FFA85FC0EFB178812
:1002700043EA084307FB0CF1994209D9EB1807F14F
:10028000FF3080F01B81994240F21881023F2B44DD
:100290005B1AA4B2B3FBFEF00EFB103344EA034436
:1002A00000FB0CFCA44509D92C1900F1FF3380F0A8
:1002B0000781A44540F2048102382C4440EA0740FB
:1002C000A4EB0C0400271EB1D4400023C6E9004370
:1002D0003946BDE8F0878B4209D9002E00F0EB804B
:1002E0000027C6E9000138463946BDE8F087B3FA71
:1002F00083F7002F47D18B4202D3824200F2FA806B
:10030000841A61EB030301209846002EE0D0C6E971
:100310000048DDE702B9FFDEB2FA82F2002A40F0BF
:100320008F80491B4FEA154E1FFA85F80127B1FB54
:10033000FEFC230C0EFB1C1143EA014308FB0CF1ED
:10034000994207D9EB180CF1FF3002D2994200F222
:10035000CD808446591AA3B2B1FBFEF00EFB1014F7
:1003600043EA044408FB00F8A04507D92C1900F122
:10037000FF3302D2A04500F2B6801846A4EB080471
:1003800040EA0C409FE7C7F1200CBB4022FA0CFE6C
:100390004EEA030E01FA07F420FA0CF521FA0CF3E9
:1003A0004FEA1E482543B3FBF8F92C0C08FB193320
:1003B0001FFA8EFA44EA034309FB0AF49C4202FA4C
:1003C00007F200FA07F10BD91EEB030309F1FF3026
:1003D00080F087809C4240F28480A9F10209734436
:1003E0001B1BADB2B3FBF8F008FB103345EA034426
:1003F00000FB0AFAA24508D91EEB040400F1FF3302
:100400006BD2A24569D90238744440EA0940A0FB86
:100410000289A4EB0A044C45C2464B4654D351D042
:10042000002E69D0B1EB0A0564EB030404FA0CFC5E
:10043000FD40FC404CEA0505C6E90054002747E7AB
:10044000C2F1200320FA03F7954001FA02F021FAE5
:1004500003F34FEA154E3843010CB3FBFEF71FFAC6
:1004600085F80EFB173341EA034107FB08F38B4283
:1004700004FA02F407D9691807F1FF3C2FD28B4226
:100480002DD9023F2944CB1A81B2B3FBFEF00EFBFB
:10049000103341EA034100FB08F38B4207D9691886
:1004A00000F1FF3C17D28B4215D902382944C91AF2
:1004B00040EA07473BE73746304609E70746E7E6A5
:1004C0001846FBE64145ABD2B8EB020A69EB0E02D7
:1004D00001381346A4E76046E9E7184695E7674602
:1004E000D1E781467CE702382C4447E7ACF1020CA7
:1004F0002B442FE7384608E73746E9E6704700BF48
:10050000844641EA000313F003036DD1403A41D31E
:1005100051F8043B40F8043B51F8043B40F8043BDD
:1005200051F8043B40F8043B51F8043B40F8043BCD
:1005300051F8043B40F8043B51F8043B40F8043BBD
:1005400051F8043B40F8043B51F8043B40F8043BAD
:1005500051F8043B40F8043B51F8043B40F8043B9D
:1005600051F8043B40F8043B51F8043B40F8043B8D
:1005700051F8043B40F8043B51F8043B40F8043B7D
:1005800051F8043B40F8043B51F8043B40F8043B6D
:10059000403ABDD2303211D351F8043B40F8043B0D
:1005A00051F8043B40F8043B51F8043B40F8043B4D
:1005B00051F8043B40F8043B103AEDD20C3205D31D
:1005C00051F8043B40F8043B043AF9D2043208D015
:1005D000D2071CBF11F8013B00F8013B01D30B8887
:1005E00003806046704700BF082A13D38B078DD065
:1005F00010F003038AD0C3F10403D21ADB071CBF37
:1006000011F8013B00F8013B80D331F8023B20F8A0
:10061000023B7BE7043AD9D3013A11F8013B00F8D9
:10062000013BF9D20B7803704B7843708B78837061
:10063000604670470000000000000000000000005D
:1006400090F800F06DE9024520F007016FF0000C12
:1006500010F0070491F820F040F049804FF00004BA
:100660006FF00700D1E9002391F840F000F1080095
:1006700082FA4CF2A4FA8CF283FA4CF3A2FA8CF3CD
:100680004BBBD1E9022382FA4CF200F10800A4FA34
:100690008CF283FA4CF3A2FA8CF3E3B9D1E9042388
:1006A00082FA4CF200F10800A4FA8CF283FA4CF3BF
:1006B000A2FA8CF37BB9D1E9062301F1200182FA79
:1006C0004CF200F10800A4FA8CF283FA4CF3A2FA7F
:1006D0008CF3002BC6D0002A04BF04301A4612BA8D
:1006E000B2FA82F2FDE8024500EBD2007047D1E990
:1006F000002304F00305C4F100004FEAC50514F01F
:10070000040F91F840F00CFA05F562EA05021CBFEF
:1007100063EA050362464FF00004A9E710B582B012
:1007200000240194114B1A6B42F480021A631B6B74
:1007300003F480030193019B224605213A2000F037
:10074000B5FD3A2000F0E6FD224605213B2000F0F1
:10075000ADFD3B2000F0DEFD22460521462000F0E5
:10076000A5FD462000F0D6FD02B010BD00380240C5
:1007700008B5012003F03BFAFBE7000008B505E0EF
:1007800001224FF480510F4801F0D4F805F0A2F88F
:100790000028F5D100224FF480510A4801F0CAF830
:1007A000094802F041FC4FF0FF31084B186803F094
:1007B000EDFF0128F7D1064A0649074805F098F8E9
:1007C000F1E700BF001C0240E00C00207C08002084
:1007D0004C4B0020344B0020404B0020034B036067
:1007E000034B0B6080231360704700BF8C0A00200E
:1007F0008C080020F0B59BB00027189719970121AD
:1008000018A803F0FDF91C4B1860169717970121E3
:1008100016A803F0F5F9194B1860194C0FAD2646D0
:100820000FCE0FC596E8070085E8070039460FA8E8
:1008300003F0A7F9134B186008AD04F11C060FCEA6
:100840000FC596E8070085E80700394608A803F0B9
:1008500098F90D4B186001AD38340FCC0FC594E8F2
:10086000070085E80700394601A803F08AF9074B1D
:1008700018601BB0F0BD00BF7C080020800800207D
:10088000646600088808002078080020840800209A
:100890002DE9F0438DB000240794089409940A943C
:1008A0000B9401944D4B1A6B42F002021A631A6BBF
:1008B00002F002020192019A02941A6B42F00102C4
:1008C0001A631A6B02F001020292029A03941A6BE5
:1008D00042F004021A631A6B02F004020392039AB4
:1008E00004941A6B42F080021A631A6B02F08002C1
:1008F0000492049A05941A6B42F040021A631A6B30
:1009000002F040020592059A06941A6B42F020020A
:100910001A631B6B03F020030693069B304E0122E3
:100920004021304601F006F8DFF8C08022464FF43F
:10093000E051404600F0FEFFDFF8B49001221021A4
:10094000484600F0F7FF274F01221146384600F0D5
:10095000F1FF402307930125089509950A9507A9FA
:10096000304600F0FDFE4FF4E053079308950994DC
:100970000A9407A9404600F0F3FE08230793DFF826
:100980007480CDF82080099507A9304600F0E8FE74
:10099000102307930895099502260A9607A9484649
:1009A00000F0DEFE30230793CDF82080099507A9DB
:1009B0000D4800F0D5FE0795089509950A9607A9F8
:1009C000384600F0CDFE22460521092000F06EFCDD
:1009D000092000F09FFC0DB0BDE8F0830038024014
:1009E000001802400004024000080240001C0240BF
:1009F000000002400000211008B50B480B4B0360BB
:100A00000B4B436000238360C3604FF4804202615C
:100A100043618361C361036201F0F6F900B908BD67
:100A200000F08CF8FBE700BFE00A0020005C00400B
:100A3000801A06002DE9F04389B000230393049344
:100A40000593069307930268234B9A4202D009B09C
:100A5000BDE8F08300250095204C236B43F0040390
:100A60002363236B03F004030093009B0195236B26
:100A700043F001032363236B03F001030193019B04
:100A80004FF4007303934FF01209CDF810904FF01C
:100A90000108CDF81480032706970426079603A9BA
:100AA0000F4800F05DFE4FF480730393CDF8109073
:100AB000CDF814800697079603A90A4800F050FE67
:100AC0000295236C43F400032364236C03F40003B6
:100AD0000293029BBBE700BF005C0040003802406D
:100AE000000802400000024010B582B004460268CF
:100AF0000E4B9A4205D022680D4B9A4204D002B0A8
:100B000010BD00F09BFBF6E70A4B186810B101A975
:100B100003F0E2FD019B002BF1D0074B4FF0805218
:100B20001A60BFF34F8FBFF36F8FE8E700140040E8
:100B3000000400407C08002004ED00E072B6FEE7EF
:100B400000B595B03022002108A805F045FB002330
:100B5000039304930593069307930193204A116C22
:100B600041F080511164126C02F080520192019A9E
:100B700002931C4B1A6842F480421A601B6803F40B
:100B800080430293029B012308934FF4803309931F
:100B900002230E934FF480020F9206221092A82295
:100BA000119212930423139308A801F023FC98B91F
:100BB0000F23039302230493002305934FF4A053C0
:100BC00006934FF480530793052103A801F062FEBA
:100BD00020B915B05DF804FBFFF7B0FFFFF7AEFFDB
:100BE000003802400070004008B500F00DFBFFF730
:100BF000A7FFFFF74DFEFFF791FD00F063FA00F04D
:100C00000BF800F025FA00F087F9FFF7F5FEFFF783
:100C1000F1FD02F0B1FFFEE708B50F480F4B03608E
:100C20004FF48273436000238360C3600222026139
:100C3000012242614FF4007282613822C261036274
:100C4000436283620A23C36201F0B4FF00B908BDA6
:100C5000FFF774FFFBE700BFF40B002000300140FA
:100C60002DE9F04188B00023039304930593069384
:100C7000079302683C4B9A4202D008B0BDE8F0816D
:100C800004460025009503F584335A6C42F48052E3
:100C90005A645A6C02F480520092009A01951A6BC1
:100CA00042F002021A631A6B02F002020192019AE8
:100CB00002951A6B42F001021A631B6B03F00103E9
:100CC0000293029B182303934FF00208CDF8108083
:100CD000032706970526079603A9244800F040FD40
:100CE00080230393CDF8108005950697079603A9F6
:100CF0001F4800F035FD1F481F4B03604FF0C063D5
:100D000043608560C5604FF4806303614561856120
:100D1000C5614FF440330362456200F06FFBE8B9F0
:100D2000144BE3649C631548154B03604FF0C0639C
:100D30004360402383600023C3604FF480620261FC
:100D400043618361C3614FF400320262436200F089
:100D500055FB30B9094BA3649C638EE7FFF7EEFEA9
:100D6000DEE7FFF7EBFEF5E700300140000402404C
:100D700000000240340B002040640240940B00202D
:100D80005864024000B583B0002200920D4B596CAC
:100D900041F480415964596C01F4804100910099FB
:100DA0000192196C41F0805119641B6C03F080535F
:100DB0000193019B0F216FF0010000F077FA03B05F
:100DC0005DF804FB0038024010B588B000220146EF
:100DD000372000F06BFA372000F09CFA00240194D1
:100DE000144B1A6C42F020021A641B6C03F02003AF
:100DF0000193019B02A903A801F022FE01F000FE6D
:100E000043000D48A0FB03239B0C013B0B480C4AFD
:100E1000026040F2E732C26043600461846002F025
:100E20006DFA10B1012008B010BD044802F0FCF8C2
:100E3000F9E700BF0038024083DE1B434C0C002062
:100E400000140040FEE7FEE7FEE7FEE7FEE770471E
:100E500008B5082000F07EFD08BD000008B5024876
:100E600002F02BF908BD00BFE00C002008B50248D5
:100E700002F080FD08BD00BF880D002008B50248C3
:100E800002F01BF908BD00BF4C0C002008B5024859
:100E900000F078FB08BD00BF340B002008B5024805
:100EA00000F070FB08BD00BF940B002008B502489D
:100EB00000F068FB08BD00BF280D002010B50346F8
:100EC0000C4A0D490D48006840B10C4800680344C5
:100ED000521A934206D8094A136010BD0748084CBD
:100EE0000460F2E704F0A2FE0C2303604FF0FF3031
:100EF000F3E700BF0000022000040000940C002073
:100F0000B04B0020034AD2F8883043F47003C2F893
:100F10008830704700ED00E000B587B000230293F1
:100F2000039304930593009301931548154A0260B7
:100F300042F2CF02426083606322C2600361836138
:100F400002F0DCF998B906A94FF4805341F8103D3E
:100F50000B4802F0D5FA68B9002300930193694663
:100F6000074802F03BFB40B907B05DF804FBFFF710
:100F7000E5FDE8E7FFF7E2FDEEE7FFF7DFFDF3E76A
:100F8000E00C00200004004000B583B00368154A5F
:100F9000934205D0144A934216D003B05DF804FB87
:100FA00000220092114B196C41F0020119641B6C74
:100FB00003F002030093009B05211D2000F076F949
:100FC0001D2000F0A7F9E8E700230193074B5A6CB6
:100FD00042F400325A645B6C03F400330193019BCA
:100FE000DBE700BF0004004000440140003802403D
:100FF00000B587B0002301930293039304930593F4
:101000000268104B9A4202D007B05DF804FB00233F
:1010100000930D4B1A6B42F020021A631B6B03F016
:1010200020030093009B402301930223029301229B
:10103000039204930323059301A9044800F090FB55
:10104000E2E700BF004401400038024000140240C3
:1010500000B589B000230193029303930493059391
:10106000069307931548164A02604360836041F275
:101070008732C2600361836102F040F9A0B90F4872
:1010800002F067F998B9602301930022029203925B
:10109000059201A9094802F0BFF958B90748FFF7BE
:1010A000A7FF09B05DF804FBFFF748FDE7E7FFF78E
:1010B00045FDE8E7FFF742FDF0E700BF980C002090
:1010C0000044014008B50A480A4B03604FF4E1337D
:1010D000436000238360C36003610C22426183612B
:1010E000C36102F0A5FB00B908BDFFF727FDFBE7D0
:1010F000880D00200010014030B589B00023039313
:101100000493059306930793026803F1804303F564
:1011100088339A4201D009B030BD044600250195BC
:1011200003F594335A6C42F010025A645A6C02F080
:1011300010020192019A02951A6B42F002021A63A0
:101140001B6B03F002030293029BC0230393022351
:101150000493032306930723079303A9124800F07F
:10116000FFFA1248124B03604FF0006343604023C4
:101170008360C5604FF48063036145618561C5612B
:101180000562456200F03AF958B9084B63639C6305
:1011900000220521252000F089F8252000F0BAF86A
:1011A000B9E7FFF7CBFCF0E700040240280D002070
:1011B000B8640240DFF834D00D480E490E4A0023CF
:1011C00002E0D458C4500433C4188C42F9D30B4AFB
:1011D0000B4C002301E013600432A242FBD3FFF763
:1011E00091FE04F029FDFFF7FFFC7047000002208C
:1011F000000000205C080020486700085C08002010
:10120000AC4B0020FEE7000008B50B4B1A6842F417
:1012100000721A601A6842F480621A601A6842F416
:1012200080721A60032000F02FF80020FFF7CCFD39
:10123000FFF7A8FD002008BD003C0240034A1168EA
:10124000034B1B780B441360704700BFCC0D00208C
:1012500004000020014B1868704700BFCC0D00202F
:1012600038B50446FFF7F6FF0546B4F1FF3F02D05C
:10127000044B1B781C44FFF7EDFF401BA042FAD340
:1012800038BD00BF04000020074AD36823F4E063A0
:101290001B041B0C000200F4E060184340F0BF6028
:1012A00040F40030D060704700ED00E030B4174BE0
:1012B000DB68C3F30223C3F10704042C28BF042412
:1012C0001D1D062D18D9033B4FF0FF3505FA04F418
:1012D00021EA0401994005FA03F322EA03031943C2
:1012E00000280BDB0901C9B200F1604000F5614044
:1012F00080F8001330BC70470023E5E700F00F00D2
:101300000901C9B2024B1954F4E700BF00ED00E037
:1013100014ED00E0002807DB00F01F024009012364
:101320009340024A42F82030704700BF00E100E0DD
:101330000268D3B2103B0B49A1FB03131B090A49F6
:10134000C95CC165032B06D822F47F7222F0030228
:101350008265806D704722F47F7222F003020432AE
:101360008265F6E7ABAAAAAAEC660008836A8269DE
:1013700092B9012B0AD01BB1022B01D0002070477B
:10138000C36A13F0807F2CD100207047C36AB3F189
:10139000C07F28D000207047B2F5005F05D0022B37
:1013A00029D9032B15D000207047032B03D8DFE881
:1013B00003F01C041C0A00207047C36A13F0807FEE
:1013C00015D100207047C36AB3F1C07F11D000204F
:1013D0007047C36A13F0807F01D00120704700205E
:1013E000704701207047012070470120704701209D
:1013F00070470120704701207047000070B5044617
:10140000FFF728FF002C5BD00546002384F834301A
:10141000022384F835302268136823F00103136037
:1014200023681A6812F0010F0AD0FFF713FF401B60
:101430000528F5D920236365032084F8350070BDA5
:101440001A68204810406168A2680A43E1680A43AC
:1014500021690A4361690A43A1690A43E1690A43B0
:10146000216A0A430243616A04291ED01A60266871
:10147000756925F00705636A1D43042B07D1A36A2C
:101480001D43E36A1BB12046FFF770FF90B97561F9
:101490002046FFF74DFFE26D3F239340836000201D
:1014A0006065012384F83530C9E7E16A206B0143A8
:1014B0000A43DBE740236365012084F83500BEE77B
:1014C0000120BCE73F8010F070B50446866DFFF741
:1014D000C1FE94F83530DBB2022B06D08023636561
:1014E000002384F83430012070BD0546226813685B
:1014F00023F0160313602268536923F080035361BD
:10150000236CE3B12268136823F008031360226898
:10151000136823F00103136023681B6813F0010FA5
:1015200011D0FFF797FE401B0528F5D920236365EE
:10153000002384F83430032084F83500D4E7A36C0A
:10154000002BDFD1E3E7E26D3F239340B36000203F
:1015500084F83400012384F83530C5E790F835303D
:10156000DBB2022B03D080234365012070470523A3
:1015700080F835300268136823F0010313600020FF
:1015800070470000F0B583B0044600230193724B0E
:101590001D68724BA3FB0535AD0A876D3E68C26DB1
:1015A00008239340334210D003681A6812F0040FE6
:1015B0000BD01A6822F004021A60C26D082393400F
:1015C000BB60436D43F001034365E26D012393402B
:1015D000334209D02268526912F0800F04D0BB60F8
:1015E000636D43F002036365E26D0423934033426D
:1015F00009D02268126812F0020F04D0BB60636D3C
:1016000043F004036365E26D10239340334224D01A
:101610002268126812F0080F1FD0BB6023681A6896
:1016200012F4802F0DD01B6813F4002F04D1236C0B
:101630009BB12046984710E0A36C73B120469847B1
:101640000BE01A6812F4807F03D11A6822F00802B6
:101650001A60236C0BB120469847E26D202393401B
:10166000334255D02268126812F0100F50D0BB6080
:1016700094F83530DBB2052B0ED023681A6812F4CB
:10168000802F33D01B6813F4002F2AD1636C002BFA
:101690003ED0204698473BE02268136823F01603AB
:1016A00013602268536923F080035361236CA3B154
:1016B0002268136823F008031360E26D3F23934010
:1016C000BB60002384F83430012384F83530236D67
:1016D000002B3FD0204698473CE0A36C002BE7D17D
:1016E000EBE7E36BA3B12046984711E01A6812F4C8
:1016F000807F09D11A6822F010021A60002384F852
:101700003430012384F83530E36B0BB12046984721
:10171000636DFBB1636D13F0010F17D0052384F8DF
:1017200035302268136823F001031360019B0133F5
:101730000193AB4204D823681B6813F0010FF5D165
:10174000002384F83430012384F83530E36C0BB186
:101750002046984703B0F0BD00000020B5814E1B25
:1017600000230F2B00F2DC80F0B482B05DE08668CD
:101770005F000324BC4026EA0406CC68BC40344326
:101780008460466826EA02064C68C4F300129A4058
:101790003243426056E0DC08083450F8247003F00D
:1017A000070296000F22B24027EA02070A69B240F8
:1017B0003A4340F8242059E0072200E00022B240DA
:1017C0003A430234574E46F82420574A1468EA43F5
:1017D00002EA04064F6817F4803F01D045EA040688
:1017E000514C2660646802EA04064F6817F4003F13
:1017F00001D045EA04064C4C6660A46802EA04067F
:101800004F6817F4801F01D045EA0406464CA660D5
:10181000E46822404E6816F4001F01D045EA040235
:10182000414CE26001330F2B77D801229A400C68BB
:1018300004EA0205AA42F5D14C6804F00304013C15
:10184000012C94D94A6802F00302032A09D0C46823
:101850005E000322B24024EA02048A68B2402243B6
:10186000C2604A6802F00302022A94D004685E0053
:101870000322B24024EA02044A6802F00302B240A2
:10188000224302604A6812F0805FCBD000220192AE
:10189000264A546C44F480445464526C02F48042EE
:1018A0000192019A9C08A61C1E4A52F8267003F069
:1018B000030296000F22B24027EA02071C4A904218
:1018C0003FF47CAF02F5806290421AD002F580624C
:1018D000904218D002F58062904216D002F58062E4
:1018E000904214D002F58062904212D002F58062DC
:1018F000904210D002F5806290423FF45DAF082222
:101900005DE701225BE7022259E7032257E7042241
:1019100055E7052253E7062251E702B0F0BC7047B5
:10192000704700BF00380140003C014000380240D1
:101930000000024012B9090481617047816170475B
:10194000436901EA030221EA030141EA024181619C
:101950007047000008B5054B5B69034200D108BD24
:10196000024B586103F004FEF9E700BF003C014060
:1019700003685A6912F4806F11D06FF480625A6163
:1019800000230363202280F83D2080F83E30026C63
:1019900042F00402026480F83C30012070470020CD
:1019A0007047F8B506460C4617461D4622E0FFF77D
:1019B00051FC069BC01AA84200D8DDB9002333634E
:1019C000202286F83D2086F83E30326C42F020021C
:1019D000326486F83C3001201AE033685B6924EAFF
:1019E00003039BB2B3FA83F35B099F420FD1B5F1B6
:1019F000FF3FDCD1C4F30743012BEED033689B6972
:101A000024EA03039BB2B3FA83F35B09EDE70020FA
:101A1000F8BDF8B504460D4616461F463CE01A6868
:101A200042F400721A6023686FF480625A610023E6
:101A30002363202284F83D2084F83E30226C42F05B
:101A40000402226484F83C30012033E0FFF702FCFA
:101A5000C01BB04200D8FEB900232363202284F8C3
:101A60003D2084F83E30226C42F02002226484F84B
:101A70003C3001201EE023685B6925EA03039BB22A
:101A8000003318BF0123A3B123685A6912F4806F91
:101A9000C5D1B6F1FF3FD9D1C5F30743012BEAD039
:101AA00023689B6925EA03039BB2003318BF012317
:101AB000E9E70020F8BD70B504460D4616462368D8
:101AC0005B6913F0800F1CD12046FFF751FFD0B99E
:101AD000B5F1FF3FF3D0FFF7BDFB801BA84201D853
:101AE000002DECD100232363202284F83D2084F8CC
:101AF0003E30226C42F02002226484F83C30012007
:101B000000E0002070BD0120FCE700002DE9F0415D
:101B100084B00446884616461F460B9D026813682B
:101B200043F48073136000950A9B00224FF001116B
:101B3000FFF737FF60B123681B6813F4807F4FD035
:101B40004FF4007323640323184604B0BDE8F0810A
:101B5000226808F0FE0313612B460A9A21492046A9
:101B6000FFF757FF08B10123EEE700230393236833
:101B70005A6903929B690393039B2A460A9920465C
:101B8000FFF799FF034658B1236C042B01D00123C2
:101B9000DAE72268136843F4007313600123D3E784
:101BA000012F0ED02368320A1A612A460A9920466C
:101BB000FFF781FF034678B1236C042B05D0012386
:101BC000C2E72268F6B21661BEE72268136843F4E2
:101BD000007313600123B7E72268F6B21661B3E71A
:101BE0000323B1E7020001002DE9F04184B004466F
:101BF0000E46174698460B9D0268136843F48063AF
:101C000013600268136843F48073136000950A9BA5
:101C100000224FF00111FFF7C4FE68B123681B6872
:101C200013F4807F00F089804FF400732364032352
:101C3000184604B0BDE8F081F6B2236806F0FE0253
:101C40001A612B460A9A3F492046FFF7E2FE08B187
:101C50000123EDE70023039323685A6903929B69EC
:101C60000393039B2A460A992046FFF724FF58B1A5
:101C7000236C042B01D00123DAE72268136843F4B4
:101C8000007313600123D3E7B8F1010F0DD123686E
:101C9000FFB21F612A460A992046FFF70CFF20B3C6
:101CA000236C042B1AD00123C2E723683A0A1A6175
:101CB0002A460A992046FFF7FEFE58B1236C042BF2
:101CC00001D00123B4E72268136843F40073136062
:101CD0000123ADE72368FFB21F61DBE722681368C9
:101CE00043F4007313600123A2E72268136843F4EE
:101CF0008073136000950A9B00224FF0011120466B
:101D0000FFF74FFE48B123681B6813F4807F16D09D
:101D10004FF40073236403238AE7236846F0010627
:101D20001E612B460A9A07492046FFF772FE0346BA
:101D300000283FF47DAF01237AE7032378E70323EC
:101D400076E700BF0200010070B504460D46164656
:101D500023685B6913F0040F1CD12046FFF708FECF
:101D6000D0B9B5F1FF3FF3D0FFF774FA801BA8425A
:101D700001D8002DECD100232363202284F83D20DC
:101D800084F83E30226C42F02002226484F83C3019
:101D9000012000E0002070BD0120FCE770B5054681
:101DA0000C4616462B685A6912F0400F29D15A6921
:101DB00012F0100F15D1FFF74DFA801BA04201D889
:101DC000002CEFD100232B63202285F83D2085F8DD
:101DD0003E302A6C42F020022A6485F83C30012013
:101DE00070BD6FF010025A6100232B63202285F82A
:101DF0003D2085F83E302A6C2A6485F83C3001206D
:101E0000EEE70020ECE70000002800F0C880F8B5FD
:101E1000044690F83D30002B75D0242384F83D30E3
:101E20002268136823F0010313602268136843F4E7
:101E3000004313602268136823F40043136000F02A
:101E4000DFFD6268584B9A4262D8584B98428CBF6B
:101E500000230123002B40F0A480554BA3FB00235B
:101E60009B0C21684A6822F03F021A434A602568A9
:101E70002A6A22F03F0266684B498E424ED80133EF
:101E800013432B622568E96921F44F4121F0FF01DA
:101E90006368454A93424BD801385B00B0FBF3F3CB
:101EA0000133C3F30B03042B38BF04230B43EB6153
:101EB00021680B6823F0C003E269206A02431343E0
:101EC0000B6021688B6823F4034323F0FF0322692E
:101ED000E068024313438B602168CB6823F0FF0363
:101EE0006269A06902431343CB602268136843F020
:101EF0000103136000202064202384F83D30206318
:101F000084F83E00F8BD80F83C30FEF793FD84E78E
:101F1000284B98428CBF002301239BE74FF4967116
:101F200001FB03F32449A1FB03139B090133A7E73A
:101F3000A268BAB9461E03EB4307B6FBF7F60136B3
:101F4000C6F30B06B6FA86F6760936BBC2B9013877
:101F500003EB4303B0FBF3F30133C3F30B0242F48F
:101F60000043A3E7461E03EB830707EB8707B6FB97
:101F7000F7F60136C6F30B06B6FA86F67609E4E7FD
:101F8000013803EB830303EB8303B0FBF3F201326D
:101F9000C2F30B0242F4404388E7012386E70120A5
:101FA00070470120AEE700BFA08601007F841E00BD
:101FB00083DE1B43FF083D00D34D62102DE9F04145
:101FC00082B004460E4617469846FFF743F994F848
:101FD0003D30DBB2202B04D00223184602B0BDE80E
:101FE000F08105460090192301224C492046FFF755
:101FF000D8FC002840F08B8094F83C30012B00F096
:102000008880012384F83C3023681A6812F0010F9D
:1020100003D11A6842F001021A602268136823F49F
:1020200000631360212384F83D30402384F83E3060
:1020300000232364089B6362BDF824306385638DAD
:102040002385374BE36201950A9B009343463A464A
:1020500031462046FFF75AFD00285CD1238D002B26
:1020600034D02A460A992046FFF725FD10BB626A44
:10207000236812781A61616A4B1C6362238D013BED
:102080009BB22385628D013A92B2628522685069C3
:1020900010F0040FE2D0002BE0D04B781361636A9C
:1020A00001336362238D013B2385638D013B9BB22A
:1020B0006385D3E7236C042B01D001238DE72268CD
:1020C000136843F400731360012386E72A460A99D4
:1020D0002046FFF739FE034658B1236C042B01D08C
:1020E00001237AE72268136843F400731360012325
:1020F00073E721680A6842F400720A60202284F8BB
:102100003D20002284F83E2084F83C2065E702232D
:1021100063E7022361E701235FE700BF02001000CD
:102120000000FFFF2DE9F04186B004460E46174639
:102130009846FFF78FF894F83D30DBB2202B04D09F
:102140000226304606B0BDE8F0810546009019230E
:1021500001229E492046FFF724FC002840F03481EC
:1021600094F83C30012B00F03781012384F83C3097
:1021700023681A6812F0010F03D11A6842F00102B5
:102180001A602268136823F400631360222384F822
:102190003D30402384F83E30002323640C9B63626F
:1021A000BDF834306385638D2385894BE3620195E7
:1021B0000E9B009343463A4631462046FFF714FDF6
:1021C0000646002840F00A81238D5BB902932368FC
:1021D0005A6902929A690292029A1A6842F400724B
:1021E0001A6072E0012B0AD0022B1AD0002305934B
:1021F00023685A6905929B690593059B65E02268EF
:10220000136823F4806313600023039323685A69DF
:1022100003929A690392039A1A6842F400721A6050
:1022200053E02268136823F4806313602268136804
:1022300043F4006313600023049323685A690492F3
:102240009B690493049B40E02A460E992046FFF7C1
:10225000A5FD002840F0C48023681A69636A1A70DB
:10226000636A01336362238D013B2385638D013BE8
:102270009BB2638529E000950E9B002255492046BC
:10228000FFF78FFB002840F0AD802268136843F40D
:102290000073136023681A69636A1A70626A531CB8
:1022A0006362238D013B2385638D013B9BB2638574
:1022B00023681B695370636A01336362238D013B9A
:1022C0002385638D013B9BB26385238D002B72D0E8
:1022D000032B49D8012BB7D0022BCCD000950E9BF5
:1022E00000223C492046FFF75CFB00287CD1226895
:1022F000136823F48063136023681A69636A1A7091
:10230000636A01336362238D013B2385638D013B47
:102310009BB2638500950E9B00222E492046FFF755
:1023200040FB002862D12268136843F400731360F5
:1023300023681A69636A1A70626A531C6362238D88
:10234000013B2385638D013B9BB2638523681B6939
:102350005370636A01336362238D013B2385638D70
:10236000013B9BB26385B0E72A460E992046FFF7F2
:1023700015FD00283CD123681A69636A1A70626AE5
:10238000531C6362238D013B2385638D013B9BB20C
:1023900063852368596911F0040F96D01B69537047
:1023A000636A01336362238D013B2385638D013BA7
:1023B0009BB2638589E7202384F83D30002384F8AD
:1023C0003E3084F83C30BCE60226BAE6020010003B
:1023D0000000FFFF040001000226B2E60126B0E67D
:1023E0000126AEE60126ACE60126AAE60126A8E60D
:1023F0000126A6E6002800F0E98170B582B0044607
:10240000036813F0010F3BD0A74B9B6803F00C034C
:10241000042B2CD0A44B9B6803F00C03082B21D079
:102420006368B3F5803F4FD0B3F5A02F52D09E4BD9
:102430001A6822F480321A601A6822F480221A6024
:102440006368002B50D0FEF705FF0546964B1B68CE
:1024500013F4003F14D1FEF7FDFE401B6428F5D9AC
:102460000320B8E1904B5B6813F4800FD8D08E4BFB
:102470001B6813F4003F03D06368002B00F0A881B1
:10248000236813F0020F55D0874B9B6813F00C0F95
:102490003ED0854B9B6803F00C03082B33D0E368D8
:1024A000002B68D0814B01221A60FEF7D3FE05464F
:1024B0007D4B1B6813F0020F54D1FEF7CBFE401B7F
:1024C0000228F5D9032086E1774A136843F4803364
:1024D0001360B5E7744B1A6842F480221A601A68D8
:1024E00042F480321A60ABE7FEF7B4FE05466E4B4D
:1024F0001B6813F4003FC3D0FEF7ACFE401B6428FA
:10250000F5D9032067E1684B5B6813F4800FC6D1EF
:10251000654B1B6813F0020F04D0E368012B01D058
:10252000012058E1604A136823F0F803216943EA67
:10253000C1031360236813F0080F40D0636963B3CD
:102540005B4B01221A60FEF785FE0546564B5B6F1A
:1025500013F0020F33D1FEF77DFE401B0228F5D9A0
:10256000032038E1504A136823F0F803216943EA55
:10257000C1031360DEE74D4B00221A60FEF76AFECE
:102580000546494B1B6813F0020FD3D0FEF762FEDD
:10259000401B0228F5D903201DE1454B00221A609B
:1025A000FEF758FE0546404B5B6F13F0020F06D056
:1025B000FEF750FE401B0228F5D903200BE12368EB
:1025C00013F0040F79D0384B1B6C13F0805F33D1BC
:1025D00000230193344B1A6C42F080521A641B6C36
:1025E00003F080530193019B0125324B1B6813F4C8
:1025F000807F23D0A368012B34D0052B38D02A4B01
:102600001A6F22F001021A671A6F22F004021A6789
:10261000A368002B36D0FEF71DFE0646224B1B6F2B
:1026200013F0020F48D1FEF715FE801B41F28833EC
:102630009842F3D90320CEE00025D6E71D4A13685F
:1026400043F480731360FEF705FE0646194B1B68C2
:1026500013F4807FCED1FEF7FDFD801B0228F5D953
:102660000320B8E0104A136F43F001031367CFE76C
:102670000D4B1A6F42F004021A671A6F42F0010202
:102680001A67C5E7FEF7E6FD0646074B1B6F13F01A
:10269000020F11D0FEF7DEFD801B41F28833984215
:1026A000F3D9032097E000BF003802400000474202
:1026B000800E474200700040EDB9A369002B00F086
:1026C0008980484A926802F00C02082A51D0022BF5
:1026D00017D0454B00221A60FEF7BCFD0446414B63
:1026E0001B6813F0007F42D0FEF7B4FD001B0228E8
:1026F000F5D903206FE03B4A136C23F08053136439
:10270000DBE7394B00221A60FEF7A4FD0546354B86
:102710001B6813F0007F06D0FEF79CFD401B0228CB
:10272000F5D9032057E0E369226A1343626A43EA5A
:102730008213A26A5208013A43EA0243E26A43EA78
:102740000263284A5360284B01221A60FEF782FD7B
:102750000446244B1B6813F0007F06D1FEF77AFD78
:10276000001B0228F5D9032035E0002033E00020CB
:1027700031E0012B31D01B4B5B6803F48001E2692F
:10278000914201D0012026E003F03F02216A8A42F3
:1027900001D001201FE0616A47F6C0721A40B2EB17
:1027A000811F01D0012016E003F44031A26A5208D3
:1027B000013AB1EB024F01D001200CE003F070634D
:1027C000E26AB3EB026F0AD0012004E001207047F7
:1027D000012000E0002002B070BD0120FBE70020D6
:1027E000F9E700BF0038024060004742264B9B6873
:1027F00003F00C03042B44D0082B01D0234870476E
:102800002DE9F04B204B5A6802F03F025B6813F44D
:10281000800F13D01C4B5968C1F3881100231C484A
:10282000A1FB0001FDF7ECFC174B5B68C3F3014310
:1028300001335B00B0FBF3F0BDE8F08B124B5B683B
:10284000C3F388131E4600275C010025E41A65EBDC
:102850000705A90141EA9461A001001B61EB050194
:10286000CB0043EA5073C400A01943EB07018B026D
:1028700043EA90538402204619460023FDF7C0FC2A
:10288000D2E70348704700BF003802400024F4003C
:10289000001BB700002800F09E8070B50446504B26
:1028A0001B6803F007038B4209D2CBB24C4A13706A
:1028B000136803F007038B4201D0012070BD236829
:1028C00013F0020F17D013F0040F04D0454A936899
:1028D00043F4E0539360236813F0080F04D0414A97
:1028E000936843F4604393603E4A936823F0F00397
:1028F000A068034393600D46236813F0010F32D0A4
:102900006368012B21D09A1E012A25D9354A126805
:1029100012F0020F61D033498A6822F00302134398
:102920008B60FEF797FC06462E4B9B6803F00C036A
:102930006268B3EB820F16D0FEF78CFC801B41F26D
:1029400088339842F0D90320B8E7264A126812F477
:10295000003FE0D10120B1E7224A126812F0007F67
:10296000D9D10120AAE71E4B1B6803F00703AB4235
:1029700009D9EAB21A4B1A701B6803F00703AB427D
:1029800001D001209AE7236813F0040F06D0154AFE
:10299000936823F4E053E1680B439360236813F0DA
:1029A000080F07D00F4A936823F46043216943EA74
:1029B000C1039360FFF71AFF0A4B9B68C3F303132D
:1029C000094AD35CD840094B1860094B1868FEF7D8
:1029D000FBF9002072E70120704701206EE700BF7D
:1029E000003C024000380240D4660008000000208D
:1029F00008000020014B1868704700BF000000204D
:102A000008B5FFF7F7FF044B9B68C3F38223034A23
:102A1000D35CD84008BD00BF00380240E46600081F
:102A200008B5FFF7E7FF044B9B68C3F34233034A43
:102A3000D35CD84008BD00BF00380240E4660008FF
:102A40000F2303600B4B9A6802F0030242609A68FE
:102A500002F0F00282609A6802F4E052C2609B6861
:102A6000DB0803F4E0530361034B1B6803F0070327
:102A70000B60704700380240003C02402DE9F043F3
:102A800083B004460F4616461D46FEF7E3FB0A9B3D
:102A9000181A00EB0508FEF7DDFB81462A4B1B6880
:102AA000C3F3CB3308FB03F3019323689B6837EA36
:102AB00003030CBF01230023B34240D0B5F1FF3F15
:102AC000F3D0FEF7C7FBA0EB090040450AD2B8F1EE
:102AD000000F07D0019B0BB94FF00008019B013B91
:102AE0000193E2E72268536823F0E00353606368D0
:102AF000B3F5827F0BD0A36AB3F5005F14D0012336
:102B000084F85130002384F85030032018E0A36883
:102B1000B3F5004F02D0B3F5806FECD12268136893
:102B200023F040031360E6E72268136823F40053A0
:102B300013602268136843F400531360DFE700203A
:102B400003B0BDE8F08300BF0000002030B585B0C1
:102B5000164C2468164DA5FB0434640D4FF47A75A9
:102B600005FB04F403944468B4F5827F0BD0039B07
:102B7000C3B1039B013B039303689B6813F0800F71
:102B8000F5D100230FE00B4604460092002280217D
:102B9000FFF774FF034630B1636D43F020036365B4
:102BA000032300E00023184605B030BD00000020DC
:102BB000819F5E1600285AD010B50446436A33B987
:102BC0004368B3F5827F05D00023C36102E0002390
:102BD000036143610023A36294F85130002B40D07D
:102BE000022384F851302268136823F040031360F5
:102BF000636803F48273A26802F404421343E26838
:102C000002F400621343226902F002021343626974
:102C100002F001021343A26902F400721343E26955
:102C200002F038021343226A02F080021343A26AC0
:102C300002F40052216813430B60638B03F004031A
:102C4000626A02F01002216813434B602268D36964
:102C500023F40063D36100206065012384F85130C0
:102C600010BD84F850302046FDF7FAFFB8E7012088
:102C700070472DE9F04383B0DDF8288090F850408C
:102C8000012C00F00B811D4617460E460446012319
:102C900080F85030FEF7DEFA814694F85100C0B259
:102CA0006368012815D0B3F5827F0AD00223012280
:102CB00084F85120002284F85020184603B0BDE863
:102CC000F083A368002B40F0DB80042801D00223AE
:102CD000EDE7002E00F0D680002F00F0D580002D0B
:102CE00000F0D48094F85130DBB2042B02D00523DD
:102CF00084F8513000236365A763E587A5872663C1
:102D0000E586A5862364636423681A6812F0400F81
:102D100003D11A6842F040021A60E368B3F5006F0D
:102D200010D063680BB1012D0AD1226B2368127891
:102D30001A73236B01332363E38E013B9BB2E3865B
:102D4000012569E063680BB1012D0AD1226B23686C
:102D50001288DA60236B02332363E38E013B9BB25C
:102D6000E38601251BE023689A6812F0010F0DD05D
:102D7000E28F92B252B1DA68A36B1A80A36B02336E
:102D8000A363E38F013B9BB2E3870125FEF762FA61
:102D9000A0EB0900404502D3B8F1FF3F78D1E38EA4
:102DA0009BB21BB9E38F9BB2002B52D023689A6869
:102DB00012F0020FD7D0E28E92B2002AD3D0002DAB
:102DC000D1D0226B1288DA60236B02332363E38E47
:102DD000013B9BB2E3860025C5E723689A6812F0A1
:102DE000010F0DD0E28F92B252B1DA68A36B1A7064
:102DF000A36B0133A363E38F013B9BB2E387012500
:102E0000FEF728FAA0EB0900404502D3B8F1FF3FD6
:102E100040D1B8F1000F3FD0E38E9BB213B9E38FDE
:102E20009BB2B3B123689A6812F0020FD5D0E28E3C
:102E300092B2002AD1D0002DCFD0226B12781A7313
:102E4000236B01332363E38E013B9BB2E3860025B2
:102E5000C3E74A4641462046FFF778FE034618B1CD
:102E600020236365012322E7A268002A7FF41FAFB5
:102E700001922268D168019192680192019A16E745
:102E8000022314E7012312E7012310E701230EE7D1
:102E900003230CE703230AE7032308E702230CE7D5
:102EA00030B4036A23F001030362056A426884694F
:102EB00024F073040B681C4325F002058B682B4338
:102EC000104DA84203D005F58065A84205D123F036
:102ED0000803CD682B4323F004030A4DA84203D016
:102EE00005F58065A84205D122F440724D6915436D
:102EF0008A692A43426084614A684263036230BC43
:102F0000704700BF0000014030B4036A23F48073AF
:102F10000362036A4268C46924F073040D682C4399
:102F200023F400738D6843EA0523124DA84203D0B1
:102F300005F58065A84206D123F40063CD6843EA15
:102F4000052323F480630B4DA84203D005F580656B
:102F5000A84207D122F440524D6942EA05128D6918
:102F600042EA05124260C4614A68C263036230BC2F
:102F7000704700BF0000014030B4036A23F480535F
:102F80000362036A4468C26922F4E6420D6842EAB9
:102F9000052223F400538D6843EA0533094DA84206
:102FA00003D005F58065A84204D124F480444D691E
:102FB00044EA85144460C2614A680264036230BC1A
:102FC000704700BF0000014010B4036A046A24F097
:102FD00001040462846924F0F00444EA021223F03C
:102FE0000A030B43826103625DF8044B704710B41F
:102FF000036A23F0100303628469036A24F47044B3
:1030000044EA023223F0A00343EA0113826103621F
:103010005DF8044B7047836823F07003194341F057
:10302000070181607047000090F83D30DBB2012B52
:1030300001D001207047022380F83D300268D36838
:1030400043F00103D3600368184A934220D0B3F1E0
:10305000804F1DD0A2F57C42934219D002F58062C8
:10306000934215D002F58062934211D002F5784266
:1030700093420DD002F57052934209D0A2F59432DA
:10308000934205D01A6842F001021A60002070478E
:103090009A6802F00702062A05D01A6842F0010277
:1030A0001A60002070470020704700BF00000140F8
:1030B0007047704770477047704710B50446036803
:1030C0001A6912F0020F11D0DA6812F0020F0DD057
:1030D0006FF002021A610123037703689B6913F002
:1030E000030F70D0FFF7E6FF0023237723681A69E8
:1030F00012F0040F12D0DA6812F0040F0ED06FF045
:1031000004021A610223237723689B6913F4407F2A
:103110005FD02046FFF7CEFF0023237723681A698C
:1031200012F0080F12D0DA6812F0080F0ED06FF00C
:1031300008021A61042323772368DB6913F0030F65
:103140004ED02046FFF7B6FF0023237723681A6985
:1031500012F0100F12D0DA6812F0100F0ED06FF0CC
:1031600010021A61082323772368DB6913F4407F78
:103170003DD02046FFF79EFF0023237723681A697E
:1031800012F0010F03D0DA6812F0010F36D1236874
:103190001A6912F0800F03D0DA6812F0800F34D170
:1031A00023681A6912F0400F03D0DA6812F0400F5A
:1031B00032D123681A6912F0200F03D0DA6812F0B6
:1031C000200F30D110BDFFF774FF2046FFF773FFCB
:1031D0008AE72046FFF76DFF2046FFF76CFF9BE76D
:1031E0002046FFF766FF2046FFF765FFACE7204665
:1031F000FFF75FFF2046FFF75EFFBDE76FF00102BC
:103200001A612046FDF770FCC1E76FF080021A6179
:10321000204600F028FAC3E76FF040021A6120460A
:10322000FFF74AFFC5E76FF020021A61204600F061
:1032300019FAC7E70368304A904212D0B0F1804FC4
:103240000FD0A2F57C4290420BD002F580629042F2
:1032500007D002F58062904203D002F57842904296
:1032600003D123F070034A681343234A90422AD0C3
:10327000B0F1804F27D0A2F57C42904223D002F5D6
:10328000806290421FD002F5806290421BD002F50E
:103290007842904217D002F57052904213D002F556
:1032A000806290420FD002F5806290420BD0A2F56E
:1032B0009832904207D002F58062904203D002F526
:1032C0008062904203D123F44073CA68134323F011
:1032D00080034A69134303608B68C3620B6883628F
:1032E000054B984203D003F58063984201D10B69E6
:1032F00003630123436170470000014038B310B5F8
:10330000044690F83D30EBB1022384F83D30211D96
:103310002068FFF78FFF012384F8463084F83E30A1
:1033200084F83F3084F8403084F8413084F84230EB
:1033300084F8433084F8443084F8453084F83D30D4
:10334000002010BD80F83C30FDF71EFEDCE70120B8
:10335000704738B310B5044690F83D30EBB1022306
:1033600084F83D30211D2068FFF764FF012384F8B5
:10337000463084F83E3084F83F3084F8403084F89A
:10338000413084F8423084F8433084F8443084F883
:10339000453084F83D30002010BD80F83C30FFF708
:1033A00087FEDCE70120704730B4036A23F0100386
:1033B0000362036A4468826922F4E6420D6842EAC5
:1033C000052223F020038D6843EA0513114DA8421E
:1033D00003D005F58065A84206D123F08003CD68AF
:1033E00043EA051323F040030A4DA84203D005F534
:1033F0008065A84207D124F440644D6944EA8504FD
:103400008D6944EA8504446082614A68826303628C
:1034100030BC70470000014038B590F83C30012BBB
:1034200060D00D460446012380F83C300C2A1AD89F
:10343000DFE802F0071919191D191919311919199D
:1034400044000068FFF72CFD2268936943F00803ED
:1034500093612268936923F004039361226893695E
:1034600029690B439361002084F83C0038BD006853
:10347000FFF79AFF2268936943F40063936122681F
:10348000936923F48063936122689369296943EA0D
:1034900001239361E7E70068FFF736FD2268D369EF
:1034A00043F00803D3612268D36923F00403D36196
:1034B0002268D36929690B43D361D4E70068FFF719
:1034C0005BFD2268D36943F40063D3612268D3694A
:1034D00023F48063D3612268D369296943EA012315
:1034E000D361C0E70220C1E710B4846824F47F44AC
:1034F00042EA03230B43234383605DF8044B704788
:1035000090F83C30012B66D010B50446012380F8BA
:103510003C30022380F83D300268936823F47F43F7
:1035200023F0770393600B68402B4AD013D9602BAC
:103530003DD01ED9702B28D0B3F5005F30D1CB68B9
:103540004A6889680068FFF7CFFF2268936843F4F0
:103550008043936024E0102B06D004D9202B03D0A5
:10356000302B01D01CE0DBB919462068FFF753FD72
:1035700016E0502B14D1CA6849680068FFF724FD93
:1035800050212068FFF747FD0AE0CB684A68896848
:103590000068FFF7A9FF2268936843F07703936000
:1035A000012384F83D30002084F83C0010BDCA6837
:1035B00049680068FFF71BFD60212068FFF72BFDBD
:1035C000EEE7CA6849680068FFF7FEFC4021206802
:1035D000FFF721FDE4E702207047000090F83C303F
:1035E000012B3BD030B4012380F83C30022380F81B
:1035F0003D3003685C689D6824F070040A682243CB
:103600005A600368164A93421AD0B3F1804F17D01C
:10361000A2F57C42934213D002F5806293420FD010
:1036200002F5806293420BD002F57842934207D0B4
:1036300002F57052934203D0A2F59432934204D122
:1036400025F080054A6815439D60012380F83D30D0
:10365000002380F83C30184630BC70470220704789
:1036600000000140704770470268D36823F49073EC
:10367000D3600268536923F001035361036B012B8C
:1036800005D0202380F83E30002303637047026892
:10369000D36823F01003D360F3E790F83D30DBB23A
:1036A000212B27D18368B3F5805F16D0036A5A1C9B
:1036B00002621A7803685A60C38C013B9BB2C384D0
:1036C000D3B90268D36823F08003D3600268D3685B
:1036D00043F04003D360002070470369002BE5D11D
:1036E000036A1B880268C3F308035360036A02334A
:1036F0000362E1E702207047002070472DE9F04B9C
:1037000004460268136923F44053C1680B431361F4
:1037100083680269134342691343C2691A4301680B
:10372000CB6823F4164323F00C031343CB600268E9
:10373000536923F4407381690B43536103683A4A28
:10374000934206D002F58062934202D0FFF758F907
:1037500001E0FFF765F9E369B3F5004F30D04FF0B2
:103760000009061849EB090716EB000B47EB090C9B
:103770004FEACC0343EA5B734FEACB0293469C4685
:1037800063689A009B0F10EB0B0049EB0C01FCF7F0
:1037900037FD264DA5FB00325109642202FB1102C0
:1037A00013013233A5FB03235B0903F0F00202EBA4
:1037B000011203F00F03216813448B60BDE8F08B06
:1037C00083464FF0000C06184CEB0C0716EB000874
:1037D00047EB0C094FEAC90343EA58734FEAC802A2
:1037E0009046994662680021921841EB01031BEB59
:1037F00008004CEB0901FCF703FD0C4DA5FB003262
:103800005109642202FB1102D3003233A5FB0323CA
:103810005B095A0002F4F87202EB011203F007038D
:10382000216813448B60C9E7001001401F85EB51EC
:1038300058B310B5044690F83D300BB3242384F8F8
:103840003D302268D36823F40053D3602046FFF74D
:1038500055FF2268136923F490431361226853696A
:1038600023F02A0353612268D36843F40053D360E2
:1038700000202064202384F83D3084F83E3010BDC1
:1038800080F83C30FDF738FCD8E7012070477047DE
:1038900008B50168CB6823F04003CB60202380F893
:1038A0003D30FFF7F4FF002008BD7047704708B5B2
:1038B000806B0023C385C384FFF7F8FF08BD704702
:1038C00090F83E30DBB2222B50D18368B3F5805F95
:1038D00030D0826AB3F5805F04D0002B37D1036902
:1038E000002B34D103685B681370836A01338362F1
:1038F000C38D013B9BB2C385002B39D110B5044663
:103900000268D36823F02003D3600268D36823F4ED
:103910008073D3600268536923F00103536120234D
:1039200080F83E30036B012B17D0FFF7BEFF00205D
:10393000206310BD0269002ACBD1826A03685B68EC
:10394000C3F308031380836A02338362D0E70368FA
:103950005B6803F07F031370C7E70268D36823F046
:103960001003D360818DFFF7AAFFE0E702207047C4
:103970000020704730B583B0044602681368D068F1
:10398000516913F00F0505D113F0200F02D010F08C
:10399000200F56D1002D6AD011F0010102D110F490
:1039A000907F64D013F0010F06D010F4807F03D015
:1039B000226C42F00102226413F0040F04D019B10A
:1039C000226C42F00202226413F0020F04D019B1FB
:1039D000226C42F00402226413F0080F07D010F0AA
:1039E000200F00D119B1226C42F008022264226C2F
:1039F000002A4BD013F0200F02D010F0200F24D15A
:103A000023685B6903F04003226C12F0080F00D1B9
:103A10003BB32046FFF728FE23685A6912F0400F97
:103A20001BD05A6922F040025A61A36B8BB14E4AF7
:103A30001A65A06BFDF792FD40B3A06B036D98472C
:103A400024E02046FFF73CFF20E02046FFF738FF48
:103A5000D6E72046FFF72AFF18E02046FFF726FFAB
:103A600014E02046FFF722FF002323640EE0216BC1
:103A700001290DD013F0800F02D010F0800F6AD111
:103A800013F0400F02D010F0400F68D103B030BDEA
:103A900013F0100FEED010F0100FEBD000230193B5
:103AA0001368019353680193019B536913F0400F0E
:103AB00030D0A16B0B685B689BB2002BE6D0A08D69
:103AC0009842E3D9E385CB69B3F5807F1AD0D368F8
:103AD00023F48073D3602268536923F00103536198
:103AE0002268536923F040035361202384F83E3059
:103AF000002323632268D36823F01003D360A06BF4
:103B0000FDF7E2FCA18DE38DC91A89B22046FFF7CB
:103B1000D6FEBBE7A18DE38DC91A89B2E38D9BB2B6
:103B2000002BB3D00029B1D0D36823F49073D360B5
:103B30002268536923F001035361202384F83E3047
:103B4000002323632268D36823F01003D360204648
:103B5000FFF7B5FE9AE72046FFF79FFD96E7204660
:103B6000FFF796FE92E700BFAF380008842801D027
:103B7000033070470020704708B501F0FBF80020C3
:103B800008BD2DE9F04387B004460F464569A5B14D
:103B9000866996B1D0F80480D0F80090B0F908009A
:103BA000FFF7E4FF22690296019500903B464946E3
:103BB000404601F071F8059013E065682668D4F876
:103BC0001080B4F90800FFF7D1FF05AB0193009016
:103BD0003B461FFA88F23146284601F097F8012843
:103BE00003D1059807B0BDE8F0830020FAE708B5D7
:103BF000034600B90123184601F014FA002008BD5D
:103C000010B582B0436863B101291AD10322009232
:103C100000221146012000F033FC0446204602B089
:103C200010BD01290FD103220021012000F071FCF9
:103C300004460028F2D000231A46194600F08EFCF4
:103C4000ECE70024EAE70024E8E700F1080343601A
:103C50004FF0FF328260C36003610023036070474E
:103C600000230361704743684B609A688A609A68D2
:103C7000516099600861036801330360704730B494
:103C80000D68B5F1FF3F02D000F1080202E00269C1
:103C900004E01A4653681C68AC42FAD953684B607A
:103CA00099608A605160086103680133036030BC29
:103CB0007047036942688168916082684168516019
:103CC0005A68824206D0002202611A68013A1A60DC
:103CD0001868704782685A60F5E7000082B00023D8
:103CE00001930D4B1B68B3F1FF3F08D04FF0500319
:103CF00083F31188BFF36F8FBFF34F8FFEE74FF051
:103D0000500383F31188BFF36F8FBFF34F8F019B75
:103D1000002BFCD002B070470C000020084800685F
:103D2000006880F308884FF0000080F3148862B6C2
:103D300061B6BFF34F8FBFF36F8F00DF00BF00008E
:103D400008ED00E0DFF80C00016841F4700101604B
:103D50007047000088ED00E04FF0807340F8043CAD
:103D600021F0010140F8081C054B40F80C3C40F8DC
:103D7000202C6FF0020340F8243C4438704700BF09
:103D8000DD3C000800000000000000000000000012
:103D9000074B19680868B0E8F04F80F30988BFF353
:103DA0006F8F4FF0000080F311887047AFF30080F1
:103DB000F84900204FF0500383F31188BFF36F8F51
:103DC000BFF34F8F0A4A136801331360012B00D0F1
:103DD0007047084B1B6813F0FF0FF9D04FF05003EA
:103DE00083F31188BFF36F8FBFF34F8FFEE700BFE0
:103DF0000C00002004ED00E0094B1B6843B94FF0B4
:103E0000500383F31188BFF36F8FBFF34F8FFEE72B
:103E1000013B034A13600BB983F31188704700BF5D
:103E20000C00002000000000000000000000000066
:103E3000EFF30980BFF36F8F154B1A681EF0100F58
:103E400008BF20ED108A20E9F04F10602DE909002D
:103E50004FF0500080F31188BFF34F8FBFF36F8F87
:103E600001F04EF94FF0000080F3118809BC196889
:103E70000868B0E8F04F1EF0100F08BFB0EC108AD1
:103E800080F30988BFF36F8F704700BFAFF30080E6
:103E9000F849002008B54FF0500383F31188BFF3B1
:103EA0006F8FBFF34F8F00F0B7FF18B1034B4FF088
:103EB00080521A60002383F3118808BD04ED00E0EE
:103EC000084A0023136008490B60084B1B68084927
:103ED000A1FB03139B09013B06490B6007231360F9
:103EE000704700BF10E000E018E000E00000002094
:103EF000D34D621014E000E03A4B1A683A4B9A42F4
:103F00000DD0384B1A68394B9A4211D14FF05003FB
:103F100083F31188BFF36F8FBFF34F8FFEE74FF02E
:103F2000500383F31188BFF36F8FBFF34F8FFEE70A
:103F300010B582B02E4B1A78D2B20192FF221A70BD
:103F40001B78DBB28DF803309DF8033003F050038B
:103F5000284A1370284B07221A6009E0264A136882
:103F6000013B13609DF803305B00DBB28DF803303A
:103F70009DF8033013F0800FF0D11F4B1B68032B0B
:103F800008D04FF0500383F31188BFF36F8FBFF356
:103F90004F8FFEE71B0203F4E063174A1360019B97
:103FA000DBB2134A1370154B1A6842F470021A60A0
:103FB0001A6842F070421A60FFF782FF0024104B2B
:103FC0001C60FFF7BFFE0F4A136843F040431360C5
:103FD000FFF7A4FE01F094F8FFF780FE204602B040
:103FE00010BD00BF00ED00E071C20F4170C20F4173
:103FF00000E400E0D00D0020D40D002020ED00E012
:104000000C00002034EF00E0EFF305830F2B0FD9F5
:10401000104A9B5CDBB2104A12789A4208D94FF0E2
:10402000500383F31188BFF36F8FBFF34F8FFEE709
:104030000A4B1B6803F4E063094A1268934208D9EB
:104040004FF0500383F31188BFF36F8FBFF34F8F8F
:10405000FEE77047F0E300E0D00D00200CED00E03B
:10406000D40D0020124A12F0070F1ED0D11D21F0EE
:104070000701C1F5705313440A460E48026000213F
:1040800041601344083B23F007030B480360596069
:104090001960991A51601360084B1960084B196038
:1040A000084B4FF000421A6070474FF47053E4E73A
:1040B000DC0D0020F0490020D80D0020E44900204C
:1040C000E0490020DC49002010B4134B1A688242FA
:1040D0001BD359685C18844203D14068014459607D
:1040E000184641684418A24213D10C4C2468A242DD
:1040F0000DD05268114441601A68126802609842FB
:1041000000D018605DF8044B70471346DEE704608A
:10411000F5E70260F3E700BFF0490020D80D00206A
:1041200070B5044600F05CFE3C4B1B68BBB13C4BD9
:104130001B681C4267D1ACB1083414F0070F11D0D2
:1041400024F00704083404F007035BB14FF0500378
:1041500083F31188BFF36F8FBFF34F8FFEE7FFF735
:1041600081FFE4E7002C50D02E4B1B68A3424ED3B6
:104170002D4B1D6801E02B4615466A68A24202D20B
:104180002A68002AF7D1254A1268AA4241D01E683F
:1041900008362A681A606B681B1B102B10D9281967
:1041A00010F0070F08D04FF0500383F31188BFF3CE
:1041B0006F8FBFF34F8FFEE743606C60FFF784FFA4
:1041C0006A6818490B689B1A0B60184909688B428A
:1041D00001D216490B60124B1B6813436B6000231E
:1041E0002B60134A13680133136000F0A1FE16F030
:1041F000070F10D04FF0500383F31188BFF36F8F78
:10420000BFF34F8FFEE70026EFE70026EDE700261D
:10421000EBE70026E9E7304670BD00BFD80D00206F
:10422000DC490020E0490020F0490020E44900205A
:10423000E8490020002834D038B50446A0F108052C
:1042400050F8042C174909680A4208D14FF050036E
:1042500083F31188BFF36F8FBFF34F8FFEE750F8E2
:10426000080C40B14FF0500383F31188BFF36F8FF8
:10427000BFF34F8FFEE722EA010244F8042C00F05E
:10428000AFFD54F8041C084A13680B441360284619
:10429000FFF71AFF054A13680133136000F048FE68
:1042A00038BD7047DC490020E0490020EC4900207F
:1042B000436A23B1036B1868C0F107007047002000
:1042C000704710B50446FFF775FDA26BE36B9A4289
:1042D00004D00024FFF790FD204610BD0124F9E72B
:1042E00010B50446FFF766FDA36B23B10024FFF76A
:1042F00083FD204610BD0124F9E770B5044616463B
:10430000856B026C5AB903681BB100200135A563A7
:1043100070BD806801F056F80023A360F6E76EB91F
:104320004068FCF7EDF8226C636813446360A26890
:10433000934219D3236863600020E7E7C068FCF765
:10434000DFF8226C5242E3681344E36021688B4239
:1043500002D2A3681A44E260022E01D00020D5E701
:1043600025B1013D0020D1E70020CFE70020CDE7B7
:1043700038B50546FFF71EFD95F8454064B203E0E9
:1043800000F0B4FF013C64B2002C08DD6B6A33B16D
:1043900005F1240000F018FF0028F3D0F0E7FF2318
:1043A00085F84530FFF728FDFFF704FD95F84440F8
:1043B00064B203E000F09AFF013C64B2002C08DD17
:1043C0002B6933B105F1100000F0FEFE0028F3D098
:1043D000F0E7FF2385F84430FFF70EFD38BD0000FD
:1043E00038B540B94FF0500383F31188BFF36F8F96
:1043F000BFF34F8FFEE704460D46FFF7DBFC216855
:10440000E26B236C03FB0210A0600020A0636160DC
:10441000013A02FB0313E360FF2384F8443084F87D
:104420004530A5B923691BB9FFF7E6FC012038BD6B
:1044300004F1100000F0C8FE0028F5D0084B4FF042
:1044400080521A60BFF34F8FBFF36F8FECE704F118
:104450001000FFF7FAFB04F12400FFF7F6FBE3E797
:1044600004ED00E010B5029B0C4639B91B60D8631F
:104470001C6401211846FFF7B3FF10BD1A60F6E770
:1044800040B94FF0500383F31188BFF36F8FBFF330
:104490004F8FFEE710B584B0044653B192B189B98D
:1044A0004FF0500383F31188BFF36F8FBFF34F8F2B
:1044B000FEE74FF0500383F31188BFF36F8FBFF314
:1044C0004F8FFEE74AB941B14FF0500383F3118893
:1044D000BFF36F8FBFF34F8FFEE748200390039821
:1044E000482808D04FF0500383F31188BFF36F8F33
:1044F000BFF34F8FFEE720461C46039B012384F841
:10450000463000949DF81830FFF7ACFF204604B009
:1045100010BD40B94FF0500383F31188BFF36F8F84
:10452000BFF34F8FFEE7F0B583B0054617460E4642
:1045300001FB00F04830FFF7F3FD044650B10023C3
:1045400080F8463000903B4600F14802314628464C
:10455000FFF788FF204603B0F0BD0000F0B585B03E
:10456000019260B1044699B9026C8AB14FF05003D0
:1045700083F31188BFF36F8FBFF34F8FFEE74FF0C8
:10458000500383F31188BFF36F8FBFF34F8FFEE7A4
:10459000022B0BD1E26B012A08D04FF0500383F3BA
:1045A0001188BFF36F8FBFF34F8FFEE71E460F4694
:1045B00000F0A2FE50B9019B53B14FF0500383F3BA
:1045C0001188BFF36F8FBFF34F8FFEE700253AE0EE
:1045D000002538E0324639462046FFF78EFE636AF2
:1045E0004BB9A8B13B4B4FF080521A60BFF34F8FCD
:1045F000BFF36F8F0CE004F1240000F0E5FD38B14B
:10460000344B4FF080521A60BFF34F8FBFF36F8F60
:10461000FFF7F2FB012005B0F0BDFFF7EDFB002036
:10462000F9E702A800F016FE012519E0002384F83E
:10463000443021E0002384F8453023E02046FFF792
:1046400097FE00F075FCFFF7B5FBA26BE36B9A4297
:10465000C0D3022EBED0019B002BDED0002DE0D0B7
:10466000FFF7CAFB00F0BCFBFFF7A4FB94F8443053
:104670005BB2B3F1FF3FD9D094F845305BB2B3F1F0
:10468000FF3FD7D0FFF7B8FB01A902A800F0EEFD6D
:10469000C8B92046FFF715FE0028CFD0019904F1D4
:1046A000100000F079FD2046FFF762FE00F040FCAC
:1046B0000028C8D1074B4FF080521A60BFF34F8FCC
:1046C000BFF36F8FBFE72046FFF752FE00F030FCCC
:1046D0000020A0E704ED00E060B170B50446036C73
:1046E0008BB14FF0500383F31188BFF36F8FBFF38B
:1046F0004F8FFEE74FF0500383F31188BFF36F8FA6
:10470000BFF34F8FFEE703682BB30E46FFF77CFC29
:10471000EFF311854FF0500383F31188BFF36F8FD0
:10472000BFF34F8FA26BE36B934226D994F84530C9
:104730005BB20132A263B3F1FF3F18D1636AF3B1F8
:1047400004F1240000F040FDD8B1E6B10120306052
:1047500085F3118870BD8368002BD6D04FF05003CD
:1047600083F31188BFF36F8FBFF34F8FFEE70133E1
:104770005BB284F845300120EAE70020E8E7012039
:10478000E6E70120E4E70120E2E7000070B584B02D
:10479000019140B94FF0500383F31188BFF36F8F3D
:1047A000BFF34F8FFEE70446036C43B14FF0500355
:1047B00083F31188BFF36F8FBFF34F8FFEE700F0D5
:1047C0009BFD50B9019B5BB14FF0500383F31188FF
:1047D000BFF36F8FBFF34F8FFEE700252E4651E0EA
:1047E00000252E464EE0013BA363236813B900F079
:1047F0009BFEA060236963B104F1100000F0E4FCAB
:1048000038B1484B4FF080521A60BFF34F8FBFF35F
:104810006F8FFFF7F1FA0125284604B070BD45B14E
:104820004FF0500383F31188BFF36F8FBFF34F8FA7
:10483000FEE7FFF7E1FAEFE702A800F00BFD012623
:104840002AE0002384F8443032E0002384F8453025
:1048500034E0FFF7AFFAA06800F05EFD0546FFF711
:10486000CBFA3BE02046FFF783FD00F061FB09E057
:104870002046FFF77DFD00F05BFB2046FFF730FD93
:10488000002840D1FFF796FAA36B002BABD1019B18
:10489000002BC4D0002ECFD0FFF7AEFA00F0A0FA64
:1048A000FFF788FA94F844305BB2B3F1FF3FC8D009
:1048B00094F845305BB2B3F1FF3FC6D0FFF79CFAE6
:1048C00001A902A800F0D2FC0028D1D12046FFF7B0
:1048D00007FD0028C6D02368002BBAD0019904F147
:1048E000240000F059FC2046FFF742FD00F020FBB9
:1048F0000028C7D10B4B4FF080521A60BFF34F8F87
:10490000BFF36F8FBEE7002D86D0FFF753FA204626
:10491000FFF7CEFC0146A06800F0ACFDFFF76CFA93
:10492000002579E704ED00E0F0B403684BB3436879
:104930005B68436000F10807BB4204D04368D3F8CA
:104940000CC0002609E05B684360F7E75B684360E2
:1049500008E02E46B6B9AC4514D043685B684360A6
:104960009F42F3D04368DD6800230F2BF2D8EA188A
:1049700092F83420CC5C9442ECD1002AE9D0013387
:10498000F3E700263046F0BC70470000084B1B6878
:104990001B683BB1064B1B68DB68DB685A68054B3C
:1049A0001A607047034B4FF0FF321A60704700BF28
:1049B000FC490020CC4A00202DE9F047804699466A
:1049C000089D099F0A9C266B02F18042013A06EB82
:1049D000820626F0070689B30A4600230F2B07D864
:1049E000D05CE11881F83400D15C09B10133F5E7FE
:1049F000002384F84330062D00D90625E56265645E
:104A00004FF0000AC4F848A0201DFFF729F904F16F
:104A10001800FFF725F92461C5F10705A561646257
:104A2000C4F84CA084F850A04A4641463046FFF7EF
:104A300093F9206007B13C60BDE8F087002384F85B
:104A40003430D8E738B5002407E004EB8402930043
:104A50000E481844FFF7F9F80134062CF5D90C4D2F
:104A60002846FFF7F2F80B4C2046FFF7EEF80A480D
:104A7000FFF7EBF80948FFF7E8F80948FFF7E5F812
:104A8000084B1D60084B1C6038BD00BF044A002065
:104A9000A44A0020B84A0020D84A0020044B002035
:104AA000F04A0020FC490020004A002010B50446CE
:104AB000FFF780F9204A1368013313601F4B1B680E
:104AC0005BB11F4B1B686BB91C4B1B68DA6AE36A4E
:104AD0009A4207D8194B1C6004E0184B1C601368FD
:104AE000012B26D0174A136801331360E36A0122B1
:104AF0009A401549086802430A6003EB83039A0051
:104B0000211D12481044FFF7AEF8FFF775F90C4B62
:104B10001B686BB1094B1B68DA6AE36A9A4207D2D9
:104B20000B4B4FF080521A60BFF34F8FBFF36F8F64
:104B300010BDFFF787FFD5E7904A0020F849002015
:104B4000EC4A00209C4A0020A04A0020044A002091
:104B500004ED00E010B5044690F8513033B9006B15
:104B6000FFF768FB2046FFF765FB10BD012B0AD05D
:104B7000022BFAD04FF0500383F31188BFF36F8FED
:104B8000BFF34F8FFEE7FFF755FBEEE70F4B1B68B8
:104B9000D3B110B5FFF70EF90D4BDB68DC68201DB3
:104BA000FFF787F80B4A1368013B1360074A136845
:104BB000013B1360FFF720F92046FFF7CBFF034BC3
:104BC0001B68002BE6D110BD704700BF944A00203F
:104BD000044B0020904A002008B5FFF7D7FF064B92
:104BE0001B68012BF9D9054B4FF080521A60BFF3B7
:104BF0004F8FBFF36F8FF0E7044A002004ED00E011
:104C000070B504460E461D4B1D681D4B18680430D8
:104C1000FFF74FF850B91A4B1B68DA6A012303FA01
:104C200002F218490B6823EA02030B60B4F1FF3F5C
:104C300013D02C44124B1B685C60A54216D8124B53
:104C400018680F4B19680431FFF719F80F4B1B68F0
:104C5000A34212D90D4B1C600FE0002EE9D0084B87
:104C6000196804310A48FEF7FEFF06E0094B186890
:104C7000034B19680431FFF702F870BD184B002090
:104C8000F8490020A04A0020FC490020CC4A00201E
:104C9000F04A0020004A002070B586B00B9D0C9CA5
:104CA00045B94FF0500383F31188BFF36F8FBFF303
:104CB0004F8FFEE744B94FF0500383F31188BFF3E1
:104CC0006F8FBFF34F8FFEE754260496049E542E39
:104CD00008D04FF0500383F31188BFF36F8FBFF3F9
:104CE0004F8FFEE7049E2563022584F8515000256E
:104CF0000395029405AD01950A9D0095FFF75CFEB2
:104D00002046FFF7D3FE059806B070BD2DE9F043AD
:104D100085B007468846154699469000FFF700FA89
:104D200008B306465420FFF7FBF90446B8B1066302
:104D3000E4B1002384F85130039302940D9B019356
:104D40000C9B00934B462A4641463846FFF734FEFB
:104D50002046FFF7ABFE012005B0BDE8F0833046EA
:104D6000FFF768FAE4E74FF0FF30F5E74FF0FF3068
:104D7000F2E7000010B588B000240594069407AA55
:104D800006A905A8FBF72AFD059B0293069B019344
:104D900000942346079A0D490D48FFF77DFF08B997
:104DA00008B010BD4FF0500383F31188BFF36F8F2D
:104DB000BFF34F8F074B4FF0FF321A60064B0122B3
:104DC0001A60064B1C60FFF797F8E9E7F4660008E5
:104DD000D94B0008CC4A0020EC4A0020184B002098
:104DE000024A136801331360704700BF984A0020DD
:104DF000034618B12BB103F134007047054B1B6813
:104E0000F8E74FF0500383F31188BFF36F8FBFF3C0
:104E10004F8FFEE7F8490020F8B53A4B1B68002B8E
:104E200069D1394B1D6801351D60C5B9374B1B6809
:104E30001B6843B14FF0500383F31188BFF36F8FAA
:104E4000BFF34F8FFEE7314A1168314B186810608D
:104E50001960304A136801331360FFF797FD2E4B3A
:104E60001B68AB423DD900242C4B1B68DB6A03EB6B
:104E700083039A002A4B9B58012B00D90124294B0C
:104E80001B68002B3CD001243AE001241F4B1B6817
:104E90001B6843B31D4B1B68DB68DE6873689D426B
:104EA00026D3371D3846FEF704FFB36A1BB106F15F
:104EB0001800FEF7FEFEF36A01229A401A490868BC
:104EC00002430A6003EB83039A00394614481044F6
:104ED000FEF7C9FEF26A114B1B68DB6A9A42D4D214
:104EE000D4E70024D2E70C4B4FF0FF321A60BBE747
:104EF000094A1360B8E70D4A1368013313600024B0
:104F00002046F8BD984A0020184B0020FC4900209C
:104F1000004A0020D04A0020CC4A0020F849002056
:104F2000044A00201C4B0020A04A0020D44A002044
:104F300038B5334B1B6843B94FF0500383F31188E6
:104F4000BFF36F8FBFF34F8FFEE7FEF733FF2C4B9E
:104F50001A68013A1A601B68002B4DD1294B1B6857
:104F600023B90024FEF748FF204638BD0024264B15
:104F70001B681BB3244BDB68DC6804F11800FEF7E8
:104F800098FE251D2846FEF794FEE36A01229A400A
:104F90001E49086802430A6003EB83039A0029460E
:104FA0001B481044FEF75FFEE26A1A4B1B68DB6A7F
:104FB0009A42DCD3184B01221A60D8E70CB1FFF7F4
:104FC000E5FC164B1C6854B1FFF726FF10B1124BDD
:104FD00001221A60013CF7D1104B00221A600E4BDF
:104FE0001B685BB10E4B4FF080521A60BFF34F8FBE
:104FF000BFF36F8F0124B5E70024B3E70024B1E7C6
:10500000984A0020904A0020D84A0020A04A002058
:10501000044A0020F84900201C4B0020D44A0020FC
:1050200004ED00E010B5A8B104460F4B1B6843B176
:105030004FF0500383F31188BFF36F8FBFF34F8F8F
:10504000FEE7FFF7CDFE00212046FFF7D9FDFFF771
:105050006FFF38B9054B4FF080521A60BFF34F8F86
:10506000BFF36F8F10BD00BF984A002004ED00E031
:1050700070B50546FBF7E4FA0F2808D94FF0500346
:1050800083F31188BFF36F8FBFF34F8FFEE7FFF7F6
:10509000A7FE0726013E06EB860293002946134829
:1050A0001844FFF741FC044608B9002EF2D12CB990
:1050B0000F4B18682946FFF737FC04462CB90D4BF7
:1050C00018682946FFF730FC044624B929460A48E7
:1050D000FFF72AFC044624B929460848FFF724FCB8
:1050E0000446FFF725FF204670BD00BF044A00209C
:1050F000FC490020004A0020F04A0020044B002018
:10510000204B1B681BB1204B01221A6070471E4BBD
:1051100000221A601D4B1B68B3FA83F3DBB2C3F1A4
:105120001F0303EB83018A0019498A5842B94FF0E3
:10513000500383F31188BFF36F8FBFF34F8FFEE7E8
:1051400010B413489A00D418A10001444C68646854
:105150004C601A4491000831084484420BD003EBA0
:1051600083039A000A4B13445B68DA68094B1A60A0
:105170005DF8044B704761680548142202FB030286
:105180005160ECE7984A00201C4B0020A04A002008
:10519000044A0020F849002040B94FF0500383F33F
:1051A0001188BFF36F8FBFF34F8FFEE710B50C462A
:1051B000044B19681831FEF762FD01212046FFF704
:1051C0001FFD10BDF849002038B5C368DC6844B93C
:1051D0004FF0500383F31188BFF36F8FBFF34F8FEE
:1051E000FEE704F118052846FEF763FD134B1B6824
:1051F000E3B9251D2846FEF75CFDE36A01229A40CB
:105200000F49086802430A6003EB83039A002946AA
:105210000C481044FEF727FDE26A0B4B1B68DB6A63
:105220009A4208D90120094B186038BD2946084820
:10523000FEF719FDF0E70020F7E700BF984A0020CD
:10524000A04A0020044A0020F84900201C4B0020FE
:10525000D84A0020034B1B680360034B1B68436064
:10526000704700BFD04A0020184B0020F8B550B15D
:10527000054689B94FF0500383F31188BFF36F8F50
:10528000BFF34F8FFEE74FF0500383F31188BFF356
:105290006F8FBFF34F8FFEE70C46FEF78BFD114B70
:1052A000196868680A1A2368B3F1FF3F16D02F689F
:1052B0000D4E3668B74201D0884211D9934203D8C7
:1052C00000232360012405E09B1A23602846FFF792
:1052D000C1FF0024FEF790FD2046F8BD0024F9E749
:1052E0000124F7E7184B0020D04A0020014B01228F
:1052F0001A6070471C4B0020054B1B6833B1054BEF
:105300001B680BB1002070470220704701207047D6
:10531000EC4A0020984A002000284BD038B50446BB
:10532000C26A25490968C96A8A4239D28169002955
:1053300005DB21490968C96AC1F10701816160691A
:1053400002EB820291001D4A0A44904205D01A4A9B
:105350001268D26AE262012038BD251D2846FEF798
:10536000A8FC40B9E26A012303FA02F214490B686F
:1053700023EA02030B60104B1B68DB6AE362012423
:1053800004FA03F20E49086802430A6003EB830340
:105390009A00294609481044FEF765FC2046DBE7E1
:1053A000426C054B1B68DB6A9A4201D20120D3E7AD
:1053B0000020D1E700207047F8490020044A00206F
:1053C000A04A0020002849D038B50446264A126871
:1053D000824208D04FF0500383F31188BFF36F8FE0
:1053E000BFF34F8FFEE7826C42B94FF0500383F357
:1053F0001188BFF36F8FBFF34F8FFEE7013A8264CE
:10540000C06A616C88422BD062BB251D2846FEF71E
:1054100050FC70B9E26A142303FB02F31349CB5822
:105420003BB9012303FA02F211490B6823EA020394
:105430000B60636CE362C3F10702A261012404FA0A
:1054400003F20B49086802430A602946074A142000
:1054500000FB0320FEF707FC204638BD0020704704
:105460000020FAE70020F8E7F8490020044A00206D
:10547000A04A002000284FD038B50346806C40B9C0
:105480004FF0500383F31188BFF36F8FBFF34F8F3B
:10549000FEE75A6C8A4200D20A46D96A914201D08C
:1054A000012800D038BD1D480068984208D14FF04F
:1054B000500383F31188BFF36F8FBFF34F8FFEE765
:1054C000DA629869002802DBC2F107029A615A6920
:1054D0001348142404FB01018A42E3D11C461D1D1C
:1054E0002846FEF7E6FB40B9E26A012303FA02F21E
:1054F0000C490B6823EA02030B60E26A0123934024
:105500000849086803430B602946054B142000FB3B
:105510000230FEF7A8FBC5E7704700BFF84900203E
:10552000044A0020A04A0020054B1B6823B1044B0D
:105530001A68936C01339364014B1868704700BF7D
:10554000F849002008B50720FEF751FB02E064206F
:10555000FEF74DFB00F07EFA0028F8D1FFF748FC7B
:10556000FFF786FD014B01221A70FEE7304B002049
:10557000082800D0704708B50E4A137843F001039D
:105580001370137803F0010313702BB94FF400610B
:105590000948FCF7D5F908BD1346127802F0FE025F
:1055A0001A701A7842F002021A70044800F08EFA5B
:1055B000ECE700BF314B0020001C0240244B0020D0
:1055C0007047704730B40C4A5568A82303FB00F0BD
:1055D0009268002105E0EC1A224411441A468142E7
:1055E00007D2054B9B689A42FBD0F4D9D21A1144DA
:1055F000F4E730BC704700BF10E000E010B504E0F5
:105600004FF47A70FFF7DEFF2046431E9CB200285D
:10561000F6D110BD08B5002210210248FCF78AF926
:1056200008BD00BF0000024008B501221021024859
:10563000FCF780F908BD00BF0000024008B5002259
:1056400001210248FCF776F908BD00BF00040240C2
:1056500008B5012211460248FCF76CF908BD00BFED
:105660000004024000B587B08DF80F0002230093BC
:1056700001230DF117020DF10F010448FDF7F9FAAE
:105680009DF8170007B05DF804FB00BFF40B002085
:1056900010B50C46FFF7E6FF2046FFF7E3FF10BD0D
:1056A00010B50C4640F08000FFF7DCFF5520FFF7F7
:1056B000D9FF207010BD38B50D46144640F080006B
:1056C000FFF7D0FF06E05520FFF7CCFF05F8010BF0
:1056D000013CE4B2002CF6D138BD0000F8B5FFF76C
:1056E00099FF8020FFF7BEFF5520FFF7BBFF552035
:1056F000FFF7B8FFFFF798FF9620FFF763FFFFF76C
:1057000089FF8020FFF7AEFF5520FFF7ABFF552044
:10571000FFF7A8FFFFF788FF9620FFF753FFFFF77B
:1057200079FFB6217E20FFF7B3FFFFF77DFF502002
:10573000FFF764FFFFF76EFF8020FFF793FF552010
:10574000FFF790FF5520FFF78DFFFFF76DFF9620C5
:10575000FFF738FFFFF75EFF8020FFF783FF55203C
:10576000FFF780FF5520FFF77DFF0446FFF75CFF42
:105770009620FFF727FF1E2C32D10024052C2DD8B0
:10578000FFF748FF174A04EB4403D1184D78D65C65
:1057900029463046FFF77CFFFFF746FF9620FFF7CC
:1057A00011FFFFF737FF46F08000FFF75BFF552042
:1057B000FFF758FF5520FFF755FF0646FFF734FF68
:1057C0009620FFF7FFFEB54202D10134E4B2D5E7DF
:1057D00004EB4407034B1F44B87802E0002000E0CC
:1057E000FF20F8BDFC660008F0B583B0002502ACD0
:1057F00004F8015DFFF722FF21462846FFF750FF1E
:10580000FFF726FF9620FFF7DDFEFFF717FF214683
:105810002846FFF745FFFFF71BFF9620FFF7D2FE54
:10582000FFF70CFFB6211420FFF732FFFFF710FF40
:105830005020FFF7E3FEFFF701FF21462846FFF760
:105840002FFFFFF705FF9620FFF7BCFEFFF7F6FEE0
:1058500021462846FFF724FFFFF7FAFE9620FFF7C0
:10586000B1FE9DF807300F2B2ED12C46052C29D8E0
:10587000FFF7E4FE164A04EB4403D1184D78D65CDA
:1058800029463046FFF704FFFFF7E2FE9620FFF7B8
:1058900099FEFFF7D3FE0DF107013046FFF700FF39
:1058A000FFF7D6FE9620FFF78DFE9DF807309D424C
:1058B00002D10134E4B2D9E704EB4407044B1F449E
:1058C000B87802E0002000E0FF2003B0F0BD00BF88
:1058D0001067000810B5FFF773FEFFF772FEFFF7C1
:1058E000FDFE0446FFF780FF2043C0B210BD00005C
:1058F000F0B583B007460E46144600250095019585
:10590000FFF788FE9220FFF7ADFE062269461220BF
:10591000FFF7D1FEFFF788FE9DF801301B021BB296
:105920009DF80020134307EE903AF8EEE77A474AD5
:1059300092ED007A67EE877AC6ED007A9DF8033023
:105940001B021BB29DF802100B4307EE103AD2ED7A
:10595000006AB8EEC77A27EE267A86ED017A9DF8BE
:1059600005301B021BB29DF80420134307EE903A4A
:10597000F8EEE77A67EEA67AC6ED027AFFF75EFEEA
:10598000082269462846FFF796FEFFF761FE9DF85C
:1059900000300F2B27D0FFF73DFEA220FFF762FE5D
:1059A000022269462220FFF786FEFFF73DFE9DF8A2
:1059B00000209DF801305B0943EAC203B3F5806F14
:1059C00001DBA3F5006307EE903AF8EEE77AB4EE58
:1059D000007A67EE877AB3EE077A77EE877AC4EDBE
:1059E000007A03B0F0BD9DF803301B021BB29DF896
:1059F0000220134307EE903AF8EEE77A144A92ED4C
:105A0000007A67EE877AC7ED007A9DF805301B02B1
:105A10001BB29DF804100B4307EE103AD2ED006A5A
:105A2000B8EEC77A27EE267A87ED017A9DF807301F
:105A30001B021BB29DF80620134307EE903AF8EEC6
:105A4000E77A67EEA67AC7ED027AA4E71000002095
:105A500014000020F8B500F075F800F074F800F0BC
:105A6000DBF8322000F0AEF800F0CCF8322000F085
:105A7000A9F8002000F068F8102823D10024032C96
:105A80001ED8114A04EB4403D118D65C4D78294640
:105A9000304600F071F8962000F098F8304600F09B
:105AA00053F80646962000F091F8B54202D1013431
:105AB000E4B2E4E704EB4407034B1F44B87802E088
:105AC000002000E04020F8BD2467000810B582B037
:105AD000044606226946032000F062F89DF8013072
:105AE0001B021BB29DF80020134307EE103AB8EEDC
:105AF000C77ADFED136A27EE267A84ED007A9DF8E7
:105B000003301B021BB29DF80220134307EE103A2C
