:020000040800F2
:1000000000000220A5300008F92C0008FB2C000895
:10001000FD2C0008FF2C0008012D00080000000046
:10002000000000000000000000000000815C0008EB
:10003000032D000800000000215D0008855D000818
:10004000F5300008F5300008F5300008F5300008FC
:10005000F5300008F5300008052D0008F5300008DF
:10006000F53000080F2D0008192D0008F5300008A4
:10007000F5300008F5300008F5300008F5300008CC
:10008000F5300008F5300008F5300008F5300008BC
:10009000F5300008F5300008F5300008232D000881
:1000A000F5300008F5300008F5300008F53000089C
:1000B000F53000082D2D0008F5300008F530000857
:1000C000F5300008F5300008F5300008F53000087C
:1000D000F53000083D2D0008F5300008F530000827
:1000E000F5300008F5300008F5300008F53000085C
:1000F000F5300008F5300008F5300008F53000084C
:10010000F5300008F5300008F5300008F53000083B
:10011000F5300008F5300008F53000084D2D0008D6
:10012000F5300008F53000085D2D00086D2D000841
:10013000F5300008F5300008F5300008F53000080B
:10014000F5300008F5300008F5300008F5300008FB
:10015000F5300008F53000087D2D0008F530000866
:10016000F5300008F5300008F5300008F5300008DB
:10017000F5300008F5300008F530000800000000F8
:08018000F5300008F53000081D
:1001C00010B5054C237833B9044B13B10448AFF391
:1001D00000800123237010BD7C0800200000000077
:1001E000F8B3000808B5034B1BB103490348AFF34C
:1001F000008008BD0000000080080020F8B300085F
:1002000081F0004102E000BF83F0004330B54FEAC7
:1002100041044FEA430594EA050F08BF90EA020F34
:100220001FBF54EA000C55EA020C7FEA645C7FEAC7
:10023000655C00F0E2804FEA5454D4EB5555B8BFEA
:100240006D420CDD2C4480EA020281EA030382EA5B
:10025000000083EA010180EA020281EA0303362DED
:1002600088BF30BD11F0004F4FEA01314FF4801CC0
:100270004CEA113102D0404261EB410113F0004FD2
:100280004FEA03334CEA133302D0524263EB430389
:1002900094EA050F00F0A780A4F10104D5F1200E27
:1002A0000DDB02FA0EFC22FA05F2801841F1000182
:1002B00003FA0EF2801843FA05F359410EE0A5F156
:1002C00020050EF1200E012A03FA0EFC28BF4CF087
:1002D000020C43FA05F3C01851EBE37101F000453D
:1002E00007D54FF0000EDCF1000C7EEB00006EEB4A
:1002F0000101B1F5801F1BD3B1F5001F0CD34908D4
:100300005FEA30004FEA3C0C04F101044FEA44522A
:1003100012F5800F80F09A80BCF1004F08BF5FEAB1
:10032000500C50F1000041EB045141EA050130BD91
:100330005FEA4C0C404141EB010111F4801FA4F134
:100340000104E9D191F0000F04BF01460020B1FA89
:1003500081F308BF2033A3F10B03B3F120020CDAC1
:100360000C3208DD02F1140CC2F10C0201FA0CF09F
:1003700021FA02F10CE002F11402D8BFC2F1200C04
:1003800001FA02F120FA0CFCDCBF41EA0C019040BA
:10039000E41AA2BF01EB0451294330BD6FEA040403
:1003A0001F3C1CDA0C340EDC04F11404C4F12002EE
:1003B00020FA04F001FA02F340EA030021FA04F300
:1003C00045EA030130BDC4F10C04C4F1200220FA57
:1003D00002F001FA04F340EA0300294630BD21FA95
:1003E00004F0294630BD94F0000F83F4801306BF5B
:1003F00081F480110134013D4EE77FEA645C18BF4F
:100400007FEA655C29D094EA050F08BF90EA020FE5
:1004100005D054EA000C04BF1946104630BD91EADD
:10042000030F1EBF0021002030BD5FEA545C05D1E0
:100430004000494128BF41F0004130BD14F580041F
:100440003CBF01F5801130BD01F0004545F0FE4193
:1004500041F470014FF0000030BD7FEA645C1ABFC8
:10046000194610467FEA655C1CBF0B46024650EAFF
:10047000013406BF52EA033591EA030F41F400212B
:1004800030BD00BF90F0000F04BF0021704730B5B1
:100490004FF4806404F132044FF000054FF0000186
:1004A00050E700BF90F0000F04BF0021704730B547
:1004B0004FF4806404F1320410F0004548BF40421C
:1004C0004FF000013EE700BF42004FEAE2014FEA71
:1004D00031014FEA02701FBF12F07F4393F07F4F4C
:1004E00081F06051704732F07F4208BF704793F04F
:1004F0007F4F04BF41F40021704730B54FF4607462
:1005000001F0004521F000411CE700BF50EA010264
:1005100008BF704730B54FF000050AE050EA01020D
:1005200008BF704730B511F0004502D5404261EB7D
:1005300041014FF4806404F132045FEA915C3FF4BE
:10054000D8AE4FF003025FEADC0C18BF03325FEA5B
:10055000DC0C18BF033202EBDC02C2F1200300FA0C
:1005600003FC20FA02F001FA03FE40EA0E0021FA31
:1005700002F11444BDE600BF70B54FF0FF0C4CF41F
:10058000E06C1CEA11541DBF1CEA135594EA0C0FD1
:1005900095EA0C0F00F0DEF82C4481EA030621EA0C
:1005A0004C5123EA4C5350EA013518BF52EA033547
:1005B00041F4801143F4801338D0A0FB02CE4FF0F9
:1005C0000005E1FB02E506F00042E0FB03E54FF029
:1005D0000006E1FB03569CF0000F18BF4EF0010E21
:1005E000A4F1FF04B6F5007F64F5407404D25FEA1D
:1005F0004E0E6D4146EB060642EAC62141EA5551D0
:100600004FEAC52040EA5E504FEACE2EB4F1FD0C11
:1006100088BFBCF5E06F1ED8BEF1004F08BF5FEA8F
:10062000500E50F1000041EB045170BD06F0004641
:1006300046EA010140EA020081EA0301B4EB5C04EE
:10064000C2BFD4EB0C0541EA045170BD41F48011E6
:100650004FF0000E013C00F3AB8014F1360FDEBF0B
:10066000002001F0004170BDC4F10004203C35DAE7
:100670000C341BDC04F11404C4F1200500FA05F36A
:1006800020FA04F001FA05F240EA020001F000420B
:1006900021F0004110EBD37021FA04F642EB060181
:1006A0005EEA430E08BF20EAD37070BDC4F10C04AB
:1006B000C4F1200500FA04F320FA05F001FA04F26F
:1006C00040EA020001F0004110EBD37041F100015B
:1006D0005EEA430E08BF20EAD37070BDC4F1200566
:1006E00000FA05F24EEA020E20FA04F301FA05F2CE
:1006F00043EA020321FA04F001F0004121FA04F276
:1007000020EA020000EBD3705EEA430E08BF20EA45
:10071000D37070BD94F0000F0FD101F0004640007F
:1007200041EB010111F4801F08BF013CF7D041EA01
:10073000060195F0000F18BF704703F00046520005
:1007400043EB030313F4801F08BF013DF7D043EAD6
:100750000603704794EA0C0F0CEA135518BF95EA8C
:100760000C0F0CD050EA410618BF52EA4306D1D113
:1007700081EA030101F000414FF0000070BD50EA32
:10078000410606BF1046194652EA430619D094EABC
:100790000C0F02D150EA013613D195EA0C0F05D1A6
:1007A00052EA03361CBF104619460AD181EA0301FA
:1007B00001F0004141F0FE4141F470014FF00000B2
:1007C00070BD41F0FE4141F4780170BD70B54FF04D
:1007D000FF0C4CF4E06C1CEA11541DBF1CEA1355CD
:1007E00094EA0C0F95EA0C0F00F0A7F8A4EB0504AF
:1007F00081EA030E52EA03354FEA013100F08880A6
:100800004FEA03334FF0805545EA131343EA12636E
:100810004FEA022245EA111545EA10654FEA002623
:100820000EF000419D4208BF964244F1FD0404F5DC
:10083000407402D25B084FEA3202B61A65EB030538
:100840005B084FEA32024FF480104FF4002CB6EBF5
:10085000020E75EB030E22BFB61A754640EA0C0075
:100860005B084FEA3202B6EB020E75EB030E22BFB5
:10087000B61A754640EA5C005B084FEA3202B6EBF6
:10088000020E75EB030E22BFB61A754640EA9C00B5
:100890005B084FEA3202B6EB020E75EB030E22BF85
:1008A000B61A754640EADC0055EA060E18D04FEA43
:1008B000051545EA16754FEA06164FEAC30343EAE3
:1008C00052734FEAC2025FEA1C1CC0D111F4801FB0
:1008D0000BD141EA00014FF000004FF0004CB6E7A9
:1008E00011F4801F04BF01430020B4F1FD0C88BF48
:1008F000BCF5E06F3FF6AFAEB5EB030C04BFB6EB53
:10090000020C5FEA500C50F1000041EB045170BD45
:100910000EF0004E4EEA113114EB5C04C2BFD4EB72
:100920000C0541EA045170BD41F480114FF0000EF6
:10093000013C90E645EA060E8DE60CEA135594EA72
:100940000C0F08BF95EA0C0F3FF43BAF94EA0C0F75
:100950000AD150EA01347FF434AF95EA0C0F7FF4EA
:1009600025AF104619462CE795EA0C0F06D152EA3E
:1009700003353FF4FDAE1046194622E750EA410622
:1009800018BF52EA43067FF4C5AE50EA41047FF433
:100990000DAF52EA43057FF4EBAE12E74FF0FF3C98
:1009A00006E000BF4FF0010C02E000BF4FF0010C69
:1009B0004DF804CD4FEA410C7FEA6C5C4FEA430CE2
:1009C00018BF7FEA6C5C1BD001B050EA410C0CBF31
:1009D00052EA430C91EA030F02BF90EA020F002093
:1009E000704710F1000F91EA030F58BF994208BFFA
:1009F00090422CBFD8176FEAE37040F001007047B7
:100A00004FEA410C7FEA6C5C02D150EA013C07D10D
:100A10004FEA430C7FEA6C5CD6D152EA033CD3D058
:100A20005DF8040B704700BF8446104662468C4652
:100A30001946634600E000BF01B5FFF7B7FF002885
:100A400048BF10F1000F01BD4DF808EDFFF7F4FFAE
:100A50000CBF012000205DF808FB00BF4DF808ED39
:100A6000FFF7EAFF34BF012000205DF808FB00BF5C
:100A70004DF808EDFFF7E0FF94BF012000205DF87E
:100A800008FB00BF4DF808EDFFF7CEFF94BF012033
:100A900000205DF808FB00BF4DF808EDFFF7C4FF2C
:100AA00034BF012000205DF808FB00BF4FEA410C75
:100AB0007FEA6C5C02D150EA013C0AD14FEA430C58
:100AC0007FEA6C5C02D152EA033C02D14FF0000095
:100AD00070474FF0010070474FEA4102B2F1E04326
:100AE00024BFB3F5001CDCF1FE5C0DD901F0004C15
:100AF0004FEAC0024CEA5070B2F1004F40EB830065
:100B000008BF20F00100704711F0804F21D113F190
:100B10003872BCBF01F00040704741F480114FEAC9
:100B20005252C2F11802C2F1200C10FA0CF320FA52
:100B300002F018BF40F001004FEAC1234FEAD3236F
:100B400003FA0CFC40EA0C0023FA02F34FEA4303D9
:100B5000CCE77FEA625307D150EA01331EBF4FF062
:100B6000FE4040F44000704701F0004040F0FE407D
:100B700040F40000704700BF53B94AB9002908BFCC
:100B800000281CBF4FF0FF314FF0FF3001F0F8B8E4
:100B9000ADF1080C6DE904CE00F006F8DDF804E0D4
:100BA000DDE9022304B070472DE9F047089E0446B2
:100BB0008846002B4BD18A42154667D9B2FA82F299
:100BC0004AB1C2F1200701FA02F320FA07F7954073
:100BD00047EA030894404FEA154E230CB8FBFEF792
:100BE0001FFA85FC0EFB178843EA084307FB0CF14C
:100BF000994209D9EB1807F1FF3080F01B81994227
:100C000040F21881023F2B445B1AA4B2B3FBFEF002
:100C10000EFB103344EA034400FB0CFCA44509D945
:100C20002C1900F1FF3380F00781A44540F20481C4
:100C300002382C4440EA0740A4EB0C0400271EB104
:100C4000D4400023C6E900433946BDE8F0878B4213
:100C500009D9002E00F0EB800027C6E900013846D4
:100C60003946BDE8F087B3FA83F7002F47D18B42AE
:100C700002D3824200F2FA80841A61EB030301205E
:100C80009846002EE0D0C6E90048DDE702B9FFDE55
:100C9000B2FA82F2002A40F08F80491B4FEA154ECB
:100CA0001FFA85F80127B1FBFEFC230C0EFB1C117B
:100CB00043EA014308FB0CF1994207D9EB180CF108
:100CC000FF3002D2994200F2CD808446591AA3B275
:100CD000B1FBFEF00EFB101443EA044408FB00F8DD
:100CE000A04507D92C1900F1FF3302D2A04500F22C
:100CF000B6801846A4EB080440EA0C409FE7C7F111
:100D0000200CBB4022FA0CFE4EEA030E01FA07F457
:100D100020FA0CF521FA0CF34FEA1E482543B3FBE9
:100D2000F8F92C0C08FB19331FFA8EFA44EA034336
:100D300009FB0AF49C4202FA07F200FA07F10BD908
:100D40001EEB030309F1FF3080F087809C4240F2E4
:100D50008480A9F1020973441B1BADB2B3FBF8F008
:100D600008FB103345EA034400FB0AFAA24508D900
:100D70001EEB040400F1FF336BD2A24569D902389F
:100D8000744440EA0940A0FB0289A4EB0A044C45E4
:100D9000C2464B4654D351D0002E69D0B1EB0A0560
:100DA00064EB030404FA0CFCFD40FC404CEA05052E
:100DB000C6E90054002747E7C2F1200320FA03F7F1
:100DC000954001FA02F021FA03F34FEA154E384339
:100DD000010CB3FBFEF71FFA85F80EFB173341EA4F
:100DE000034107FB08F38B4204FA02F407D96918A0
:100DF00007F1FF3C2FD28B422DD9023F2944CB1A59
:100E000081B2B3FBFEF00EFB103341EA034100FB5D
:100E100008F38B4207D9691800F1FF3C17D28B42C7
:100E200015D902382944C91A40EA07473BE7374633
:100E3000304609E70746E7E61846FBE64145ABD2F0
:100E4000B8EB020A69EB0E0201381346A4E76046CC
:100E5000E9E7184695E76746D1E781467CE702381F
:100E60002C4447E7ACF1020C2B442FE7384608E747
:100E70003746E9E603685A004CBF43F0004323F0CD
:100E800000431844704700BF61B32DE9F84F01F1EA
:100E9000FF3A90460646D146002707EB090404EBCB
:100EA000D4746410E50071190846FFF7E3FFA2450A
:100EB000834605F10800304409D0FFF7DBFFC34546
:100EC00000F1FF3005D8404509D2671CE5E7C3456E
:100ED00005D9A74202D004F1FF39DEE70021084618
:100EE000BDE8F88F08467047012807D0022807D0D0
:100EF000044B00280CBF184600207047024870477A
:100F000002487047D5150008D9150008DD150008FE
:100F100030B5254B83B004468D1E4BB301A928463E
:100F2000AFF30080F0B101992A46FFF7ADFF01460B
:100F3000C0B1FFF79FFF4B68A064012B2ED0002BA0
:100F400001F1040026DBFFF795FF0023C4E913033A
:100F50000368002B12DBFFF78DFF0023206118468A
:100F600003B030BD002323610923184603B030BD10
:100F70000E490F48091AC9100191D5E7C3F3036060
:100F8000FFF7B2FF002814BF002309232061184691
:100F900003B030BD0123C4E91303D9E70023236163
:100FA0000523184603B030BD000000003CB6000821
:100FB00054B500080368DA0710B5044606D49B0749
:100FC00000F1480009D500F05FFC2368590709D5F6
:100FD0001A070ED5DB0613D510BD00F04DFC2368B3
:100FE0005907F5D404F1D00000F056FC23681A0725
:100FF000F0D404F5A87000F057FC2368DB06EBD4AE
:1010000004F5E870BDE8104000F092BC036803B13D
:1010100003441846704700BF09207047704700BF5F
:1010200070B504460D4608E02B6C63612A462369BF
:10103000214601209847082808D1296C2046FFF74F
:1010400067FF06460028EFD009F074FC0728FBD1A3
:101050003046296CFFF7E2FF281D00F001FC00BFBD
:101060002DE9F0470C1D054617460FCCADF5727DF6
:1010700003AE0FC60FCC0FC60FCC0FC694E80F00FF
:1010800002ACD5F80C80D5F8189086E80F00002344
:10109000236021E0236C6B614FF4F07221467AA843
:1010A00000F070FE2B697AAA294630469847889B43
:1010B000CDE900498246636431462B462A46012029
:1010C000C0470746F8B94FF4F0727AA9204600F0FD
:1010D00059FEBAF1080F1CD1216C2846FFF718FF02
:1010E000002F08BF0926074618BF0A260028D1D0BE
:1010F000A36B46F01001CDE900492A466364012044
:101100002B46C04700B1092738460DF5727DBDE872
:10111000F087BAF1070FF6D13846216CFFF77EFF52
:1011200003A800F09DFB00BF406C7047F0B5CB6B8F
:101130000B640D1D0F4606460FCDF9B001AC0FC470
:101140000FCD0FC40FCD0FC495E80F004FF0FF3542
:1011500084E80F00009506E033696A4631469847F7
:101160000828044608D110993046FFF7D1FE002820
:10117000F2D0092079B0F0BD6846FFF71BFF062CBE
:10118000F7D139463046FFF74BFF00BF30B4DD6B77
:10119000C160826119461D64002230BC60E700BF57
:1011A00070B5C66843690B64BEB903690A46044654
:1011B0000D46014602209847072807D0082803D18A
:1011C00029462046FFF72CFF09F0B4FB3046296C76
:1011D000FFF724FF281D00F043FB0122FFF740FF2B
:1011E00009F0A8FBC2681AB1CA6B0A64002237E78B
:1011F0009CE700BF704700BF836813B10146012020
:1012000018477047042907D8DFE801F003080608EB
:1012100008000BB90F2A03D902207047012070473C
:1012200000EB820218465368009A1360704700BFB3
:1012300010B584B0002303AC0A4600941946FFF7AA
:10124000E1FF039804B010BD042907D8DFE801F0DE
:101250000308060808000BB90F2A03D902207047BB
:101260000120704700EB8200009A12684260184625
:10127000704700BF10B584B004AC002344F8042DBF
:101280000A4600941946FFF7DFFF04B010BD00BF07
:10129000F0B5D36B1364151D07460E460FCDADF5A3
:1012A0000F7D17AC0FC40FCD0FC40FCD0FC495E841
:1012B0000F004FF0FF3584E80F00169510E016A8D8
:1012C000FFF7D8FF314616A8B84716AA694678B97D
:1012D000049B08209847052804460AD0092807D00F
:1012E00026996846FFF714FE6A460C210028E6D0CE
:1012F000092416A8FFF75EFE20460DF50F7DF0BD10
:101300002DE9F04F0D46C96C89B00C1D164600F052
:10131000030B0A6806941F46002B68D0130CD9B241
:1013200012048DF81D30022304EB810405928DF820
:101330001C302B6DBBF1020F08BFAC6B13F0010327
:1013400046D1019300F008030093D4F80090B9F15E
:10135000000F00F0F380022F45D0B4F80090B4F8ED
:1013600002800434AB6C28F0010A0F2130469A4405
:10137000FFF75EFF824534D829F0010353448342CE
:1013800094BF002001204FEA480808F0020809F045
:10139000010948EA0908B8F1010F3AD031D3B8F190
:1013A000020F1AD1236823F0004ABBF1000F66D167
:1013B00030B1009A002A6CD0BAF1000F00F0908092
:1013C000002B00DA04340AF1010304EB8304BCE7C8
:1013D000304605A900F046FB78B1092009B0BDE808
:1013E000F08F0020CFE7D4F804800834BAE7120267
:1013F00003230592ADF81C309BE7082009B0BDE837
:10140000F08FBBF1000F02D0002840F0B48004340C
:101410009BE7BBF1000F18D1A8B1D4E90023991CB8
:101420004FEAD272D9D005F158010133049100F08E
:10143000B580201DFFF7EAFD04AB01462846AFF357
:101440000080002867D108347FE70D213046D5F8A9
:101450002080FFF7EDFE8045F5D1AB6A9C42F2D1CA
:101460002046FFF707FD0F2102463046FFF702FF37
:1014700030462A460021FFF7FDFE0720AEE70D218A
:101480003046D5F82080FFF7D3FE804532D0236860
:1014900096E7BAF1000F23D005F1580304F10408D0
:1014A000CDF808B0DDF800900397A3461C4602E093
:1014B0005745B94640D040460494FFF7A7FD04AB1A
:1014C000014600222846AFF3008009F1010708F128
:1014D00004080028ECD0D1455C46DDE902B7D6D13E
:1014E00030460D21FFF7A4FE049B2862C5E90934AC
:1014F000062073E7AB6A9C42C9D104224FF0000872
:10150000A318C5E90AA8C5E90C23236843454DDBA8
:101510000123019357E780460D213046FFF788FEEF
:10152000B8F1020F28623ED12B46049A43F82C2FC3
:101530006B62AC62062051E75C46D1E705A93046F4
:1015400000F090FA00287FF448AF019B002B3FF495
:1015500054AF0F213046FFF76BFE0E210246304696
:10156000FFF788FE30461A4A0F21FFF783FE072057
:1015700009B0BDE8F08F2046FFF77CFC0434074635
:10158000AC632846AFF3008000283FF426AF304616
:101590003A460F21FFF76EFE07201FE730460D2168
:1015A000FFF746FE2862049B6B62C2E70AF1010066
:1015B00004EB8000FFF75EFC0F2102463046FFF788
:1015C00059FE30462A464146FFF754FE072005E7FC
:1015D00000000000002393E6012391E602238FE63A
:1015E0002DE9F0410546C4B0042906D8DFE801F032
:1015F0004D2B05030900032B5FD0022044B0BDE84A
:10160000F081002BF9D1102AF7D82B68DC0600F105
:10161000F48022AC2046019200F094F9A86B019A64
:101620000023012606FA03F1114203D0016844F8B1
:10163000231004300133042BF4D1A863204600F0BA
:1016400077F90020DAE7012B4FEA124697B252D021
:10165000052BD2D106EB0708B8F1200FCDD80F2EFD
:1016600040F29980B846002F40F0DB80AA6BAA6355
:101670000F2E40F2BE80B8F1000F02D002A800F099
:101680000BF9002044B0BDE8F081002BB5D1AC6B64
:1016900097B2281D012606FA03F1394203F101032E
:1016A00002D0216801600434102B00F10400F2D153
:1016B00012F40050E5D1AC63A0E7160C97B2F31911
:1016C000102B9AD82B681A075DD422AC204600F064
:1016D0000DF904EBC601AB6B3FB103EBC702186811
:1016E00041F8040B04339342F9D12046AB6300F078
:1016F000DBF8002082E7F219102A3FF67EAF0F2EAA
:101700003FF67BAF2A68D10708D5284622F00302AE
:1017100040F8482B019300F0B3F8019B019322ACF1
:10172000204600F0ADF8A96B019B002F00F09580DA
:101730007F0004EBC6044FF00008043C01EB870275
:1017400051F8040B44F8040F9142F9D1B8F1000F9D
:101750000FD002AC102E314638BF102104EBC1016E
:10176000843902EBC80452F8040B41F8040F944288
:10177000F9D1012B7FF47BAF22AC0432AA6320465F
:1017800000F07AF87DE723F008032B6005F5A870D8
:1017900000F0ACF899E7B8F1100F2A6843D9D007E8
:1017A000A8F110080BD5284622F0010242F00202EF
:1017B00040F8482B019300F06BF82A68019B510711
:1017C00025D40F2E04D822A8019300F061F8019BC4
:1017D000019302AC204600F063F8C6F11001002925
:1017E000AA6B019BB6DD22AC4F0004EBC604114688
:1017F000A3E722A800F048F83DE723F010032B6090
:1018000005F5E870019200F09DF8019A01E728467D
:1018100022F0040240F8D02B019300F041F8019B24
:10182000CFE72A68CBE7D0070AD5284622F0010285
:1018300042F0020240F8482B019300F029F8019B86
:10184000019322AC204600F023F8B846A96B019B17
:10185000002F7FF46DAF0A4609E70A468DE700BF07
:1018600000F1340191E838009C46A6464CF8045D2E
:1018700090E8FF0FE54600BD90EC210B704700BFDC
:1018800080EC210B704700BF90EC200B704700BF2D
:1018900080EC200B704700BFD0EC200B704700BFDE
:1018A000C0EC200B704700BFF0EC0201F0EC02111D
:1018B000F0EC0221F0EC0231F0EC0241F0EC0251CC
:1018C000F0EC0261F0EC0271F0EC0281F0EC0291BC
:1018D000F0EC02A1F0EC02B1F0EC02C1F0EC02D1AC
:1018E000F0EC02E1F0EC02F1704700BFE0EC020125
:1018F000E0EC0211E0EC0221E0EC0231E0EC02410C
:10190000E0EC0251E0EC0261E0EC0271E0EC0281FB
:10191000E0EC0291E0EC02A1E0EC02B1E0EC02C1EB
:10192000E0EC02D1E0EC02E1E0EC02F1704700BF34
:10193000B0FC0181B0FC0191B0FC01A1B0FC01B18F
:10194000704700BFA0FC0181A0FC0191A0FC01A197
:10195000A0FC01B1704700BFEC4600B52DE9005076
:101960002DE9FF1F4FF000032DE90C0001A9FFF73F
:10197000DDFBDDF840E012B0704700BFEC4600B57B
:101980002DE900502DE9FF1F4FF000032DE90C0059
:1019900001A9FFF705FCDDF840E012B0704700BF79
:1019A000EC4600B52DE900502DE9FF1F4FF0000374
:1019B0002DE90C0001A9FFF715FCDDF840E012B09D
:1019C000704700BFEC4600B52DE900502DE9FF1F20
:1019D0004FF000032DE90C0001ABFFF7D7FBDDF85A
:1019E00040E012B0704700BFEC4600B52DE9005052
:1019F0002DE9FF1F4FF000032DE90C0001AAFFF7AE
:101A000047FCDDF840E012B0704700BF027A82B9AF
:101A1000437AABB14268013B10B4437213680321AF
:101A2000141D01721A02446002605DF8044B180E26
:101A300070470368013A02721A020260180E70477A
:101A4000B020704700B585B003AA00230092194664
:101A50000C22FFF7D7FB039805B05DF804FB00BF2D
:101A6000F0E700BF2DE9F043054685B00E464FF084
:101A700000083046FFF7CAFFB028044600F0B180E6
:101A8000070620D500F0F003802B65D0902B36D0D0
:101A9000A02B78D0B02B47D0C02B00F08A8000F06C
:101AA000F803D02B0BD100F00702013242F40022E0
:101AB000052301212846FFF793FD0028D9D00920EE
:101AC00005B0BDE8F0830DF10C090023194687002D
:101AD000CDF800900D222846FFF794FBFFB2039B40
:101AE000CDF80090043760064CBFDF1BFF180023C1
:101AF00019460D2228460397FFF7A6FBB9E700F029
:101B00000D030D2BDBD003AF002300F00F021946AD
:101B100000972846FFF776FB0023009719460D2211
:101B20002846FFF791FBA4E7B1285FD0B22800F068
:101B3000CC80B3287ED000F0FC03B42BBFD000F0E3
:101B400007020132012342F4002219462846FFF71A
:101B500047FD00288DD0B2E73046FFF757FF24023B
:101B60000443B4F5004FAAD024010023A2B21946C1
:101B70002846FFF735FD0028A1D114F4004F18BF07
:101B80004FF0010875E7C24302F007034FF47F628C
:101B90001A41010702F47F624FF0000348BF42F48C
:101BA000804219462846FFF71BFD00283FF461AF2D
:101BB00085E7C62851D0C7285AD000F0F803C02BBB
:101BC00069D0C82875D0C9287FF479AF3046FFF7AF
:101BD0001DFF020300F00F0002F4702201300243E7
:101BE00066E7B8F1000F14D0002069E73046FFF730
:101BF0000DFF00283FF463AF10F0F0037FF45FAFF8
:101C0000024619462846FFF7EBFC00283FF431AFA7
:101C100055E703AC43460E22414600942846FFF7A1
:101C2000F1FA0094284643460F224146FFF70CFB89
:101C3000404645E73046FFF7E9FE010300F00F009C
:101C400001F47021421C01230A4328461946FFF77C
:101C5000C7FC00283FF40DAF31E73046FFF7D6FE52
:101C6000010300F00F0001F47021421C0323EBE795
:101C70003046FFF7CBFE024600283FF420AF10F0BD
:101C8000F0037FF41CAF04212846FFF7A9FC0028CD
:101C90003FF4EFAE13E700F00F020132032342F4EA
:101CA000202219462846FFF79BFC00283FF4E1AEAE
:101CB00005E73046FFF7AAFE00F0F00200F00F0340
:101CC0001032013343EA0232F2E600230DF10C092F
:101CD0000D221946CDF800902846FFF793FA3046BA
:101CE000FFF794FE02064FF002070CD5039B00F0AD
:101CF0007F00B840034430460393FFF787FE030696
:101D000007F10707F2D4039BCDF8009000F07F04A1
:101D100003F50172BC400023144419460D222846E5
:101D20000394FFF791FAA4E610B5C36C84B05A6827
:101D300003208DF80C00DC798DF80D401202083379
:101D4000084601A901920293FFF78CFE04B010BD72
:101D500008B5FFF785FE806C08BD00BF08B5FFF72A
:101D60007FFEC06CC37900EB8300083008BD00BF64
:101D700008B508F0DFFD00BF08B5FFF7F9FF00BFA9
:101D8000704700BF844641EA000313F003036DD19E
:101D9000403A41D351F8043B40F8043B51F8043B2E
:101DA00040F8043B51F8043B40F8043B51F8043B35
:101DB00040F8043B51F8043B40F8043B51F8043B25
:101DC00040F8043B51F8043B40F8043B51F8043B15
:101DD00040F8043B51F8043B40F8043B51F8043B05
:101DE00040F8043B51F8043B40F8043B51F8043BF5
:101DF00040F8043B51F8043B40F8043B51F8043BE5
:101E000040F8043B51F8043B40F8043B51F8043BD4
:101E100040F8043B403ABDD2303211D351F8043B74
:101E200040F8043B51F8043B40F8043B51F8043BB4
:101E300040F8043B51F8043B40F8043B103AEDD223
:101E40000C3205D351F8043B40F8043B043AF9D274
:101E5000043208D0D2071CBF11F8013B00F8013B47
:101E600001D30B8803806046704700BF082A13D354
:101E70008B078DD010F003038AD0C3F10403D21A6C
:101E8000DB071CBF11F8013B00F8013B80D331F8A0
:101E9000023B20F8023B7BE7043AD9D3013A11F820
:101EA000013B00F8013BF9D20B7803704B7843708B
:101EB0008B788370604670470000000000000000CF
:101EC00090F800F06DE9024520F007016FF0000C7A
:101ED00010F0070491F820F040F049804FF0000422
:101EE0006FF00700D1E9002391F840F000F10800FD
:101EF00082FA4CF2A4FA8CF283FA4CF3A2FA8CF335
:101F00004BBBD1E9022382FA4CF200F10800A4FA9B
:101F10008CF283FA4CF3A2FA8CF3E3B9D1E90423EF
:101F200082FA4CF200F10800A4FA8CF283FA4CF326
:101F3000A2FA8CF37BB9D1E9062301F1200182FAE0
:101F40004CF200F10800A4FA8CF283FA4CF3A2FAE6
:101F50008CF3002BC6D0002A04BF04301A4612BAF4
:101F6000B2FA82F2FDE8024500EBD2007047D1E9F7
:101F7000002304F00305C4F100004FEAC50514F086
:101F8000040F91F840F00CFA05F562EA05021CBF57
:101F900063EA050362464FF00004A9E7F6EE007A13
:101FA00060EE277A10EE102A074BA3EB620307EED0
:101FB000103A67EE277A67EE277AB7EE080A30EE16
:101FC000670A27EE000A7047DF59375F10B52DED1D
:101FD000068B0446F0EE408AB0EE609AB0EE418A7D
:101FE000F0EE619AB0EE42AAF0EE62AAF5EE401A67
:101FF000F1EE10FA0AD1B5EE402AF1EE10FA05D151
:10200000F5EE402AF1EE10FA00F0938069EEA97A1D
:102010002AEE0A0A77EE807A2AEEAA0A37EE800ABA
:10202000FFF7BCFF69EE809A2AEE00AA6AEE80AA4A
:1020300094ED017AD4ED036A27EE266AD4ED007A96
:10204000D4ED025A27EEA55A36EE456A27EE277AD6
:1020500066EEA55A37EE257A67EEA77AF6EE005AB5
:1020600077EEE57A66EEA66A77EEA67A6AEE275AEA
:102070006AEE876A75EEE66A6AEE86AA69EEA77A64
:102080007AEEE77A69EE879A2AEE06AA79EECA9A7C
:102090005D4B93ED007AB5EEC07AF1EE10FA40F3A5
:1020A000AB8093ED006A26EE266ADFED585A26EEE5
:1020B000256A574991ED007A37EE066A81ED006A8C
:1020C00093ED006A26EE276A26EE256A514A92EDC4
:1020D000007A37EE066A82ED006A93ED007A27EE09
:1020E000297A27EE257A4C4B93ED006A36EE077A73
:1020F00083ED007A91ED007A78EE878A92ED007A8E
:1021000039EE079A93ED007A38EE078A434B93ED48
:10211000007A67EE266A78EEA68AD3ED00AA6AEE08
:10212000A77A39EE279AD3ED007A67EEA99A38EEAE
:10213000298A9FED3B1A28EE810A69EE010A28EEF2
:10214000011A94ED006AD4ED016A94ED027A26EE4C
:10215000C09A60EE877A39EE679AD4ED037A67EE1B
:10216000815A39EE659A39EE069A60EE068A61EE7A
:10217000075A78EEA58A67EEA05A78EEE58A78EEDF
:10218000A68A20EE868A61EE265A38EE658A67EEC8
:10219000805A38EE258A38EE078A21EE061A60EE5C
:1021A000A60A31EE201A20EE070A31EE401A77EE29
:1021B000819A69EE097A28EEA80A77EE807A28EEED
:1021C000080A77EE807A29EEA90A37EE800AFFF72F
:1021D000E5FE29EE009A84ED009A68EE808AC4ED4F
:1021E000018A28EE008A84ED028A29EE801A84EDA5
:1021F000031ABDEC068B10BD0023054A1360054A87
:102200001360054A136081E7A40800206F12833A27
:10221000980800209C080020A00800200000002052
:102220006F12033A10B52DED108B86B00446F0EE18
:1022300040AAB0EE60BAF0EE418AB0EE618AB0EE2C
:10224000429AB0EE62CAF0EE439AF0EE63BAB0EE94
:1022500044AAB5EE403AF1EE10FA0AD1F5EE403A52
:10226000F1EE10FA05D1B5EE404AF1EE10FA00F0A9
:10227000A981B5EE408AF1EE10FA0AD1B5EE409A86
:10228000F1EE10FA05D1B5EE40CAF1EE10FA00F009
:10229000358168EE087A29EE090A77EE807A2CEE0D
:1022A0000C0A37EE800AFFF779FE68EE006ACDED82
:1022B000026A69EE005ACDED035A2CEE005A8DEDFC
:1022C000045A69EEA97A2BEEAB0A77EE807A2AEEF1
:1022D0000A0A37EE800AFFF761FE69EE809A6BEE1C
:1022E00080BA2AEE00AAD4ED007A27EEA77A8DED07
:1022F000057A94ED019A27EE89FA94ED028A67EE49
:1023000088FA94ED03DA67EE8D7A69EE09CA69EE10
:10231000086A29EE0D9A68EE08EA28EE0D8A2DEE7D
:102320000DDAB6EE00EA3EEE6ECA3CEE4DCA2CEE79
:10233000297A76EEE7DA2DEEAB6A37EE067A3FEED3
:10234000896A8DED016A26EE0A6A37EE067A37EE63
:10235000077A77EEA67A67EEA97A7EEE6CCA7CEEF3
:10236000CD6A66EEAB6A77EEA67A78EE4F6A66EED5
:102370008A6A77EEA67A77EEA77A27EE077A67EE73
:10238000A77A77EE277A17EE900AFEF79DF841ECD0
:10239000100B07F0ABFE51EC100BFEF79DFB07EEA8
:1023A000100A39EE6F9A69EE297A3FEE088A68EED4
:1023B0002B6A77EEA67A7CEEEECA6CEE8AEA77EEAE
:1023C000AE7A77EEA77ADDED054A34EECEEA3EEE40
:1023D0000DDA2CEE07CA69EE276A3CEE26CA6DEECE
:1023E00087DA68EE276A7DEEA6DA9DED016A26EEB1
:1023F000077A6CEEA77A77EE277ADDED035A65EE61
:102400008D6A9DED045A28EE057A76EEC76A2BEEAA
:10241000A77A2AEE2D6A37EE467A36EE877A29EECB
:10242000050ADDED026A26EE8DDA30EE4DDA2AEE8F
:102430000CAA69EEA77A3AEE67AA3DEE0AAA28EE40
:10244000268A29EE259A38EE498A69EEAD9A6BEE16
:102450008CBA79EEEB9A38EE298A604BD3ED007A8C
:10246000F5EEC07AF1EE10FA40F3AF80D3ED006ADA
:1024700066EE876A9FED5A6A66EE866A5949D1ED23
:10248000007A77EEA66AC1ED006AD3ED006A66EEC7
:102490008A6A66EE866A544AD2ED007A77EEA66AB8
:1024A000C2ED006AD3ED007A67EE887A67EE867A2D
:1024B0004E4BD3ED006A76EEA77AC3ED007AD1EDEC
:1024C000007A7AEEA7AAD2ED007A3BEE27BAD3EDD6
:1024D000007A78EEA78A464BD3ED007A67EE877ACA
:1024E0007AEEA7AAD3ED007A27EE8AAA3BEE0ABAC3
:1024F000D3ED009A29EE888A78EE888ADFED3D7A5E
:102500006AEEA7AA2BEE27BA68EEA78AD4ED006A76
:1025100094ED017AD4ED027A67EE6A9A2BEE276A7F
:1025200079EEC69A94ED030A20EE286A79EEC69AEF
:1025300079EEA69A2AEEA69A28EEA76A39EE069AAE
:1025400020EE0B6A39EE469A39EE079A2BEE268A70
:1025500028EE876A38EE468A20EE2A6A38EE068A26
:1025600038EE278A68EEA68A2BEE07BA78EE8B8AB9
:102570006AEEA7AA78EEEA8A70EE288A69EEA97A4E
:1025800029EE090A77EE807A28EE080A77EE807A3B
:1025900028EEA80A37EE800AFFF700FD69EE809A60
:1025A000C4ED009A29EE009A84ED019A28EE008A83
:1025B00084ED028A68EE808AC4ED038A06B0BDEC21
:1025C000108B10BDFFF702FDF8E70023054A1360EA
:1025D000054A1360054A13607DE700BFA408002088
:1025E0006F12833A980800209C080020A008002061
:1025F000000000206F12033A10B582B0002401944D
:10260000114B1A6B42F480021A631B6B03F48003B4
:102610000193019B224605213A2000F0BFFD3A209C
:1026200000F0F0FD224605213B2000F0B7FD3B20E5
:1026300000F0E8FD22460521462000F0AFFD4620CF
:1026400000F0E0FD02B010BD0038024008B50120E6
:1026500003F045FAFBE708B5012003F040FAFBE779
:10266000034B0360034B0B6080231360704700BF74
:10267000BC0A0020BC080020F0B59BB000271897CA
:102680001997012118A803F033FA1C4B186016970C
:102690001797012116A803F02BFA194B1860194C53
:1026A0000FAD26460FCE0FC596E8070085E8070058
:1026B00039460FA803F0DDF9134B186008AD04F19B
:1026C0001C060FCE0FC596E8070085E807003946BF
:1026D00008A803F0CEF90D4B186001AD38340FCCCB
:1026E0000FC594E8070085E80700394601A803F004
:1026F000C0F9074B18601BB0F0BD00BFAC0800204C
:10270000B008002010B40008B8080020A808002075
:10271000B40800202DE9F0478CB0002407940894F9
:1027200009940A940B940194594B1A6B42F00202DB
:102730001A631A6B02F002020192019A02941A6B58
:1027400042F001021A631A6B02F001020292029A2D
:1027500003941A6B42F004021A631A6B02F004022B
:102760000392039A04941A6B42F080021A631A6B64
:1027700002F080020492049A05941A6B42F040021F
:102780001A631A6B02F040020592059A06941A6BBE
:1027900042F020021A631B6B03F020030693069B92
:1027A0003C4F01224021384601F03CF83A4E224687
:1027B0004FF4E051304601F035F8DFF8E4A0012293
:1027C0001021504601F02EF8DFF8D8800122114682
:1027D000404601F027F84023079301250895099505
:1027E0000A9507A9384600F033FF4FF4E0530793EA
:1027F000089509940A9407A9304600F029FF092694
:102800000796DFF8A490CDF82090099507A93846DF
:1028100000F01EFF102307930895099502270A97D9
:1028200007A9504600F014FF30230793CDF82090FD
:10283000099507A9194800F00BFF07950895099518
:102840000A9707A9404600F003FF2246052106200B
:1028500000F0A4FC062000F0D5FC224605213046FD
:1028600000F09CFC304600F0CDFC224605210A20F9
:1028700000F094FC0A2000F0C5FC22460521172038
:1028800000F08CFC172000F0BDFC0CB0BDE8F08718
:102890000038024000180240001C024000080240BC
:1028A00000000240000402400000211008B50B485F
:1028B0000B4B03600B4B436000238360C3604FF4FA
:1028C0008042026143618361C361036201F014FAD3
:1028D00000B908BD00F08CF8FBE700BF100B00202A
:1028E000005C0040801A06002DE9F04389B0002307
:1028F000039304930593069307930268234B9A422C
:1029000002D009B0BDE8F08300250095204C236B70
:1029100043F004032363236B03F004030093009B41
:102920000195236B43F001032363236B03F0010341
:102930000193019B4FF4007303934FF01209CDF8FC
:1029400010904FF00108CDF8148003270697042655
:10295000079603A90F4800F07BFE4FF480730393A2
:10296000CDF81090CDF814800697079603A90A4871
:1029700000F06EFE0295236C43F400032364236C85
:1029800003F400030293029BBBE700BF005C00401E
:1029900000380240000802400000024010B582B03A
:1029A000044602680E4B9A4205D022680D4B9A42AB
:1029B00004D002B010BD00F0B9FBF6E70A4B18686E
:1029C00010B101A903F0EAFD019B002BF1D0074BE8
:1029D0004FF080521A60BFF34F8FBFF36F8FE8E75D
:1029E0000014004000040040AC08002004ED00E0AA
:1029F00072B6FEE700B595B03022002108A808F0B5
:102A000077FA0023039304930593069307930193A6
:102A1000204A116C41F080511164126C02F0805216
:102A20000192019A02931C4B1A6842F480421A6088
:102A30001B6803F480430293029B012308934FF425
:102A40008033099302230E934FF480020F920622E3
:102A50001092A822119212930423139308A801F054
:102A600041FC98B90F230393022304930023059399
:102A70004FF4A05306934FF480530793052103A806
:102A800001F080FE20B915B05DF804FBFFF7B0FF40
:102A9000FFF7AEFF003802400070004008B500F0BC
:102AA0002BFBFFF7A7FFFFF735FEFFF7A5FD00F0B3
:102AB00081FA00F00BF800F043FA00F0A5F9FFF7F7
:102AC000F5FEFFF7D9FD02F0CFFFFEE708B50F488E
:102AD0000F4B03604FF48273436000238360C36035
:102AE00002220261012242614FF4007282613822A7
:102AF000C2610362436283620A23C36201F0D2FFB0
:102B000000B908BDFFF774FFFBE700BF240C0020ED
:102B1000003001402DE9F04188B000230393049375
:102B200005930693079302683C4B9A4202D008B083
:102B3000BDE8F08104460025009503F584335A6C06
:102B400042F480525A645A6C02F480520092009A05
:102B500001951A6B42F002021A631A6B02F002022C
:102B60000192019A02951A6B42F001021A631B6BE3
:102B700003F001030293029B182303934FF0020812
:102B8000CDF81080032706970526079603A9244849
:102B900000F05EFD80230393CDF810800595069725
:102BA000079603A91F4800F053FD1F481F4B036001
:102BB0004FF0C06343608560C5604FF4806303617C
:102BC00045618561C5614FF440330362456200F0A1
:102BD0008DFBE8B9144BE3649C631548154B036007
:102BE0004FF0C0634360402383600023C3604FF411
:102BF0008062026143618361C3614FF4003202620B
:102C0000436200F073FB30B9094BA3649C638EE709
:102C1000FFF7EEFEDEE7FFF7EBFEF5E700300140E1
:102C20000004024000000240640B002040640240A7
:102C3000C40B00205864024000B583B0002200920B
:102C40000D4B596C41F480415964596C01F4804139
:102C5000009100990192196C41F0805119641B6C2C
:102C600003F080530193019B0F216FF0010000F0EE
:102C700095FA03B05DF804FB0038024010B588B047
:102C800000220146372000F089FA372000F0BAFA16
:102C900000240194144B1A6C42F020021A641B6C3D
:102CA00003F020030193019B02A903A801F040FE59
:102CB00001F01EFE43000D48A0FB03239B0C013BCB
:102CC0000B480C4A026040F2E732C2604360046184
:102CD000846002F08BFA10B1012008B010BD0448E6
:102CE00002F01AF9F9E700BF0038024083DE1B4307
:102CF0007C0C002000140040FEE7FEE7FEE7FEE744
:102D0000FEE7704708B5012000F09CFD08BD08B53E
:102D1000082000F097FD08BD08B5102000F092FDD6
:102D200008BD08B5202000F08DFD08BD08B502489B
:102D300002F03BF908BD00BF100D002008B50248A5
:102D400002F090FD08BD00BFB80D002008B5024894
:102D500002F02BF908BD00BF7C0C002008B502482A
:102D600000F088FB08BD00BF640B002008B50248D6
:102D700000F080FB08BD00BFC40B002008B502486E
:102D800000F078FB08BD00BF580D002001207047FF
:102D900008B507F0D7FD162303604FF0FF3008BDDC
:102DA00008B54FF0FF31FFF7F3FFFEE710B503461C
:102DB0000C4A0D490D48006840B10C4800680344B6
:102DC000521A934206D8094A136010BD0748084CAE
:102DD0000460F2E707F0B6FD0C2303604FF0FF300C
:102DE000F3E700BF0000022000040000C40C002034
:102DF000284C0020034AD2F8883043F47003C2F80C
:102E00008830704700ED00E000B587B000230293E2
:102E1000039304930593009301931548154A0260A8
:102E200042F2CF02426083606322C2600361836129
:102E300002F0DCF998B906A94FF4805341F8103D2F
:102E40000B4802F0D5FA68B9002300930193694654
:102E5000074802F03BFB40B907B05DF804FBFFF701
:102E6000C7FDE8E7FFF7C4FDEEE7FFF7C1FDF3E7B5
:102E7000100D00200004004000B583B00368154A1F
:102E8000934205D0144A934216D003B05DF804FB78
:102E900000220092114B196C41F0020119641B6C65
:102EA00003F002030093009B05211D2000F076F93A
:102EB0001D2000F0A7F9E8E700230193074B5A6CA7
:102EC00042F400325A645B6C03F400330193019BBB
:102ED000DBE700BF0004004000440140003802402E
:102EE00000B587B0002301930293039304930593E5
:102EF0000268104B9A4202D007B05DF804FB002331
:102F000000930D4B1A6B42F020021A631B6B03F007
:102F100020030093009B402301930223029301228C
:102F2000039204930323059301A9044800F090FB46
:102F3000E2E700BF004401400038024000140240B4
:102F400000B589B000230193029303930493059382
:102F5000069307931548164A02604360836041F266
:102F60008732C2600361836102F040F9A0B90F4863
:102F700002F067F998B9602301930022029203924C
:102F8000059201A9094802F0BFF958B90748FFF7AF
:102F9000A7FF09B05DF804FBFFF72AFDE7E7FFF79D
:102FA00027FDE8E7FFF724FDF0E700BFC80C00208D
:102FB0000044014008B50A480A4B03604FF4E1336E
:102FC000436000238360C36003610C22426183611C
:102FD000C36102F0A5FB00B908BDFFF709FDFBE7DF
:102FE000B80D00200010014030B589B000230393D4
:102FF0000493059306930793026803F1804303F556
:1030000088339A4201D009B030BD044600250195AD
:1030100003F594335A6C42F010025A645A6C02F071
:1030200010020192019A02951A6B42F002021A6391
:103030001B6B03F002030293029BC0230393022342
:103040000493032306930723079303A9124800F070
:10305000FFFA1248124B03604FF0006343604023B5
:103060008360C5604FF48063036145618561C5611C
:103070000562456200F03AF958B9084B63639C63F6
:1030800000220521252000F089F8252000F0BAF85B
:10309000B9E7FFF7ADFCF0E700040240580D00204F
:1030A000B8640240DFF834D00D480E490E4A0023C0
:1030B00002E0D458C4500433C4188C42F9D30B4AEC
:1030C0000B4C002301E013600432A242FBD3FFF754
:1030D00091FE07F03DFCFFF7E1FC70470000022085
:1030E000000000207C08002048B600087C08002072
:1030F000244C0020FEE7000008B50B4B1A6842F490
:1031000000721A601A6842F480621A601A6842F407
:1031100080721A60032000F02FF80020FFF7AEFD48
:10312000FFF78AFD002008BD003C0240034A1168F9
:10313000034B1B780B441360704700BFFC0D00204D
:1031400008000020014B1868704700BFFC0D0020EC
:1031500038B50446FFF7F6FF0546B4F1FF3F02D04D
:10316000044B1B781C44FFF7EDFF401BA042FAD331
:1031700038BD00BF08000020074AD36823F4E0638D
:103180001B041B0C000200F4E060184340F0BF6019
:1031900040F40030D060704700ED00E030B4174BD1
:1031A000DB68C3F30223C3F10704042C28BF042403
:1031B0001D1D062D18D9033B4FF0FF3505FA04F409
:1031C00021EA0401994005FA03F322EA03031943B3
:1031D00000280BDB0901C9B200F1604000F5614035
:1031E00080F8001330BC70470023E5E700F00F00C3
:1031F0000901C9B2024B1954F4E700BF00ED00E029
:1032000014ED00E0002807DB00F01F024009012355
:103210009340024A42F82030704700BF00E100E0CE
:103220000268D3B2103B0B49A1FB03131B090A49E7
:10323000C95CC165032B06D822F47F7222F0030219
:103240008265806D704722F47F7222F0030204329F
:103250008265F6E7ABAAAAAA98B40008836A8269D5
:1032600092B9012B0AD01BB1022B01D0002070476C
:10327000C36A13F0807F2CD100207047C36AB3F17A
:10328000C07F28D000207047B2F5005F05D0022B28
:1032900029D9032B15D000207047032B03D8DFE872
:1032A00003F01C041C0A00207047C36A13F0807FDF
:1032B00015D100207047C36AB3F1C07F11D0002040
:1032C0007047C36A13F0807F01D00120704700204F
:1032D000704701207047012070470120704701208E
:1032E00070470120704701207047000070B5044608
:1032F000FFF728FF002C5BD00546002384F834300C
:10330000022384F835302268136823F00103136028
:1033100023681A6812F0010F0AD0FFF713FF401B51
:103320000528F5D920236365032084F8350070BD96
:103330001A68204810406168A2680A43E1680A439D
:1033400021690A4361690A43A1690A43E1690A43A1
:10335000216A0A430243616A04291ED01A60266862
:10336000756925F00705636A1D43042B07D1A36A1D
:103370001D43E36A1BB12046FFF770FF90B97561EA
:103380002046FFF74DFFE26D3F239340836000200E
:103390006065012384F83530C9E7E16A206B014399
:1033A0000A43DBE740236365012084F83500BEE76C
:1033B0000120BCE73F8010F070B50446866DFFF732
:1033C000C1FE94F83530DBB2022B06D08023636552
:1033D000002384F83430012070BD0546226813684C
:1033E00023F0160313602268536923F080035361AE
:1033F000236CE3B12268136823F00803136022688A
:10340000136823F00103136023681B6813F0010F96
:1034100011D0FFF797FE401B0528F5D920236365DF
:10342000002384F83430032084F83500D4E7A36CFB
:10343000002BDFD1E3E7E26D3F239340B360002030
:1034400084F83400012384F83530C5E790F835302E
:10345000DBB2022B03D08023436501207047052394
:1034600080F835300268136823F0010313600020F0
:1034700070470000F0B583B0044600230193724BFF
:103480001D68724BA3FB0535AD0A876D3E68C26DA2
:1034900008239340334210D003681A6812F0040FD7
:1034A0000BD01A6822F004021A60C26D0823934000
:1034B000BB60436D43F001034365E26D012393401C
:1034C000334209D02268526912F0800F04D0BB60E9
:1034D000636D43F002036365E26D0423934033425E
:1034E00009D02268126812F0020F04D0BB60636D2D
:1034F00043F004036365E26D10239340334224D00C
:103500002268126812F0080F1FD0BB6023681A6887
:1035100012F4802F0DD01B6813F4002F04D1236CFC
:103520009BB12046984710E0A36C73B120469847A2
:103530000BE01A6812F4807F03D11A6822F00802A7
:103540001A60236C0BB120469847E26D202393400C
:10355000334255D02268126812F0100F50D0BB6071
:1035600094F83530DBB2052B0ED023681A6812F4BC
:10357000802F33D01B6813F4002F2AD1636C002BEB
:103580003ED0204698473BE02268136823F016039C
:1035900013602268536923F080035361236CA3B145
:1035A0002268136823F008031360E26D3F23934001
:1035B000BB60002384F83430012384F83530236D58
:1035C000002B3FD0204698473CE0A36C002BE7D16E
:1035D000EBE7E36BA3B12046984711E01A6812F4B9
:1035E000807F09D11A6822F010021A60002384F843
:1035F0003430012384F83530E36B0BB12046984713
:10360000636DFBB1636D13F0010F17D0052384F8D0
:1036100035302268136823F001031360019B0133E6
:103620000193AB4204D823681B6813F0010FF5D156
:10363000002384F83430012384F83530E36C0BB177
:103640002046984703B0F0BD04000020B5814E1B12
:1036500000230F2B00F2DC80F0B482B05DE08668BE
:103660005F000324BC4026EA0406CC68BC40344317
:103670008460466826EA02064C68C4F300129A4049
:103680003243426056E0DC08083450F8247003F0FE
:10369000070296000F22B24027EA02070A69B240E9
:1036A0003A4340F8242059E0072200E00022B240CB
:1036B0003A430234574E46F82420574A1468EA43E6
:1036C00002EA04064F6817F4803F01D045EA040679
:1036D000514C2660646802EA04064F6817F4003F04
:1036E00001D045EA04064C4C6660A46802EA040670
:1036F0004F6817F4801F01D045EA0406464CA660C7
:10370000E46822404E6816F4001F01D045EA040226
:10371000414CE26001330F2B77D801229A400C68AC
:1037200004EA0205AA42F5D14C6804F00304013C06
:10373000012C94D94A6802F00302032A09D0C46814
:103740005E000322B24024EA02048A68B2402243A7
:10375000C2604A6802F00302022A94D004685E0044
:103760000322B24024EA02044A6802F00302B24093
:10377000224302604A6812F0805FCBD0002201929F
:10378000264A546C44F480445464526C02F48042DF
:103790000192019A9C08A61C1E4A52F8267003F05A
:1037A000030296000F22B24027EA02071C4A904209
:1037B0003FF47CAF02F5806290421AD002F580623D
:1037C000904218D002F58062904216D002F58062D5
:1037D000904214D002F58062904212D002F58062CD
:1037E000904210D002F5806290423FF45DAF082213
:1037F0005DE701225BE7022259E7032257E7042233
:1038000055E7052253E7062251E702B0F0BC7047A6
:10381000704700BF00380140003C014000380240C2
:103820000000024012B9090481617047816170474C
:10383000436901EA030221EA030141EA024181618D
:103840007047000008B5054B5B69034200D108BD15
:10385000024B586103F0C8FEF9E700BF003C01408D
:1038600003685A6912F4806F11D06FF480625A6154
:1038700000230363202280F83D2080F83E30026C54
:1038800042F00402026480F83C30012070470020BE
:103890007047F8B506460C4617461D4622E0FFF76E
:1038A00051FC069BC01AA84200D8DDB9002333633F
:1038B000202286F83D2086F83E30326C42F020020D
:1038C000326486F83C3001201AE033685B6924EAF0
:1038D00003039BB2B3FA83F35B099F420FD1B5F1A7
:1038E000FF3FDCD1C4F30743012BEED033689B6963
:1038F00024EA03039BB2B3FA83F35B09EDE70020EC
:10390000F8BDF8B504460D4616461F463CE01A6859
:1039100042F400721A6023686FF480625A610023D7
:103920002363202284F83D2084F83E30226C42F04C
:103930000402226484F83C30012033E0FFF702FCEB
:10394000C01BB04200D8FEB900232363202284F8B4
:103950003D2084F83E30226C42F02002226484F83C
:103960003C3001201EE023685B6925EA03039BB21B
:10397000003318BF0123A3B123685A6912F4806F82
:10398000C5D1B6F1FF3FD9D1C5F30743012BEAD02A
:1039900023689B6925EA03039BB2003318BF012308
:1039A000E9E70020F8BD70B504460D4616462368C9
:1039B0005B6913F0800F1CD12046FFF751FFD0B98F
:1039C000B5F1FF3FF3D0FFF7BDFB801BA84201D844
:1039D000002DECD100232363202284F83D2084F8BD
:1039E0003E30226C42F02002226484F83C300120F8
:1039F00000E0002070BD0120FCE700002DE9F0414F
:103A000084B00446884616461F460B9D026813681C
:103A100043F48073136000950A9B00224FF001115C
:103A2000FFF737FF60B123681B6813F4807F4FD026
:103A30004FF4007323640323184604B0BDE8F081FB
:103A4000226808F0FE0313612B460A9A214920469A
:103A5000FFF757FF08B10123EEE700230393236824
:103A60005A6903929B690393039B2A460A9920464D
:103A7000FFF799FF034658B1236C042B01D00123B3
:103A8000DAE72268136843F4007313600123D3E775
:103A9000012F0ED02368320A1A612A460A9920465D
:103AA000FFF781FF034678B1236C042B05D0012377
:103AB000C2E72268F6B21661BEE72268136843F4D3
:103AC000007313600123B7E72268F6B21661B3E70B
:103AD0000323B1E7020001002DE9F04184B0044660
:103AE0000E46174698460B9D0268136843F48063A0
:103AF00013600268136843F48073136000950A9B97
:103B000000224FF00111FFF7C4FE68B123681B6863
:103B100013F4807F00F089804FF400732364032343
:103B2000184604B0BDE8F081F6B2236806F0FE0244
:103B30001A612B460A9A3F492046FFF7E2FE08B178
:103B40000123EDE70023039323685A6903929B69DD
:103B50000393039B2A460A992046FFF724FF58B196
:103B6000236C042B01D00123DAE72268136843F4A5
:103B7000007313600123D3E7B8F1010F0DD123685F
:103B8000FFB21F612A460A992046FFF70CFF20B3B7
:103B9000236C042B1AD00123C2E723683A0A1A6166
:103BA0002A460A992046FFF7FEFE58B1236C042BE3
:103BB00001D00123B4E72268136843F40073136053
:103BC0000123ADE72368FFB21F61DBE722681368BA
:103BD00043F4007313600123A2E72268136843F4DF
:103BE0008073136000950A9B00224FF0011120465C
:103BF000FFF74FFE48B123681B6813F4807F16D08F
:103C00004FF40073236403238AE7236846F0010618
:103C10001E612B460A9A07492046FFF772FE0346AB
:103C200000283FF47DAF01237AE7032378E70323DD
:103C300076E700BF0200010070B504460D46164647
:103C400023685B6913F0040F1CD12046FFF708FEC0
:103C5000D0B9B5F1FF3FF3D0FFF774FA801BA8424B
:103C600001D8002DECD100232363202284F83D20CD
:103C700084F83E30226C42F02002226484F83C300A
:103C8000012000E0002070BD0120FCE770B5054672
:103C90000C4616462B685A6912F0400F29D15A6912
:103CA00012F0100F15D1FFF74DFA801BA04201D87A
:103CB000002CEFD100232B63202285F83D2085F8CE
:103CC0003E302A6C42F020022A6485F83C30012004
:103CD00070BD6FF010025A6100232B63202285F81B
:103CE0003D2085F83E302A6C2A6485F83C3001205E
:103CF000EEE70020ECE70000002800F0C880F8B5EF
:103D0000044690F83D30002B75D0242384F83D30D4
:103D10002268136823F0010313602268136843F4D8
:103D2000004313602268136823F40043136000F01B
:103D3000DFFD6268584B9A4262D8584B98428CBF5C
:103D400000230123002B40F0A480554BA3FB00234C
:103D50009B0C21684A6822F03F021A434A6025689A
:103D60002A6A22F03F0266684B498E424ED80133E0
:103D700013432B622568E96921F44F4121F0FF01CB
:103D80006368454A93424BD801385B00B0FBF3F3BC
:103D90000133C3F30B03042B38BF04230B43EB6144
:103DA00021680B6823F0C003E269206A02431343D1
:103DB0000B6021688B6823F4034323F0FF0322691F
:103DC000E068024313438B602168CB6823F0FF0354
:103DD0006269A06902431343CB602268136843F011
:103DE0000103136000202064202384F83D30206309
:103DF00084F83E00F8BD80F83C30FEF775FD84E79E
:103E0000284B98428CBF002301239BE74FF4967107
:103E100001FB03F32449A1FB03139B090133A7E72B
:103E2000A268BAB9461E03EB4307B6FBF7F60136A4
:103E3000C6F30B06B6FA86F6760936BBC2B9013868
:103E400003EB4303B0FBF3F30133C3F30B0242F480
:103E50000043A3E7461E03EB830707EB8707B6FB88
:103E6000F7F60136C6F30B06B6FA86F67609E4E7EE
:103E7000013803EB830303EB8303B0FBF3F201325E
:103E8000C2F30B0242F4404388E7012386E7012096
:103E900070470120AEE700BFA08601007F841E00AE
:103EA00083DE1B43FF083D00D34D62102DE9F04136
:103EB00082B004460E4617469846FFF743F994F839
:103EC0003D30DBB2202B04D00223184602B0BDE8FF
:103ED000F08105460090192301224C492046FFF746
:103EE000D8FC002840F08B8094F83C30012B00F087
:103EF0008880012384F83C3023681A6812F0010F8F
:103F000003D11A6842F001021A602268136823F490
:103F100000631360212384F83D30402384F83E3051
:103F200000232364089B6362BDF824306385638D9E
:103F30002385374BE36201950A9B009343463A463B
:103F400031462046FFF75AFD00285CD1238D002B17
:103F500034D02A460A992046FFF725FD10BB626A35
:103F6000236812781A61616A4B1C6362238D013BDE
:103F70009BB22385628D013A92B2628522685069B4
:103F800010F0040FE2D0002BE0D04B781361636A8D
:103F900001336362238D013B2385638D013B9BB21B
:103FA0006385D3E7236C042B01D001238DE72268BE
:103FB000136843F400731360012386E72A460A99C5
:103FC0002046FFF739FE034658B1236C042B01D07D
:103FD00001237AE72268136843F400731360012316
:103FE00073E721680A6842F400720A60202284F8AC
:103FF0003D20002284F83E2084F83C2065E702231F
:1040000063E7022361E701235FE700BF02001000BE
:104010000000FFFF2DE9F04186B004460E4617462A
:104020009846FFF78FF894F83D30DBB2202B04D090
:104030000226304606B0BDE8F081054600901923FF
:1040400001229E492046FFF724FC002840F03481DD
:1040500094F83C30012B00F03781012384F83C3088
:1040600023681A6812F0010F03D11A6842F00102A6
:104070001A602268136823F400631360222384F813
:104080003D30402384F83E30002323640C9B636260
:10409000BDF834306385638D2385894BE3620195D8
:1040A0000E9B009343463A4631462046FFF714FDE7
:1040B0000646002840F00A81238D5BB902932368ED
:1040C0005A6902929A690292029A1A6842F400723C
:1040D0001A6072E0012B0AD0022B1AD0002305933C
:1040E00023685A6905929B690593059B65E02268E0
:1040F000136823F4806313600023039323685A69D1
:1041000003929A690392039A1A6842F400721A6041
:1041100053E02268136823F48063136022681368F5
:1041200043F4006313600023049323685A690492E4
:104130009B690493049B40E02A460E992046FFF7B2
:10414000A5FD002840F0C48023681A69636A1A70CC
:10415000636A01336362238D013B2385638D013BD9
:104160009BB2638529E000950E9B002255492046AD
:10417000FFF78FFB002840F0AD802268136843F4FE
:104180000073136023681A69636A1A70626A531CA9
:104190006362238D013B2385638D013B9BB2638565
:1041A00023681B695370636A01336362238D013B8B
:1041B0002385638D013B9BB26385238D002B72D0D9
:1041C000032B49D8012BB7D0022BCCD000950E9BE6
:1041D00000223C492046FFF75CFB00287CD1226886
:1041E000136823F48063136023681A69636A1A7082
:1041F000636A01336362238D013B2385638D013B39
:104200009BB2638500950E9B00222E492046FFF746
:1042100040FB002862D12268136843F400731360E6
:1042200023681A69636A1A70626A531C6362238D79
:10423000013B2385638D013B9BB2638523681B692A
:104240005370636A01336362238D013B2385638D61
:10425000013B9BB26385B0E72A460E992046FFF7E3
:1042600015FD00283CD123681A69636A1A70626AD6
:10427000531C6362238D013B2385638D013B9BB2FD
:1042800063852368596911F0040F96D01B69537038
:10429000636A01336362238D013B2385638D013B98
:1042A0009BB2638589E7202384F83D30002384F89E
:1042B0003E3084F83C30BCE60226BAE6020010002C
:1042C0000000FFFF040001000226B2E60126B0E66E
:1042D0000126AEE60126ACE60126AAE60126A8E6FE
:1042E0000126A6E6002800F0E98170B582B00446F8
:1042F000036813F0010F3BD0A74B9B6803F00C033E
:10430000042B2CD0A44B9B6803F00C03082B21D06A
:104310006368B3F5803F4FD0B3F5A02F52D09E4BCA
:104320001A6822F480321A601A6822F480221A6015
:104330006368002B50D0FEF705FF0546964B1B68BF
:1043400013F4003F14D1FEF7FDFE401B6428F5D99D
:104350000320B8E1904B5B6813F4800FD8D08E4BEC
:104360001B6813F4003F03D06368002B00F0A881A2
:10437000236813F0020F55D0874B9B6813F00C0F86
:104380003ED0854B9B6803F00C03082B33D0E368C9
:10439000002B68D0814B01221A60FEF7D3FE054640
:1043A0007D4B1B6813F0020F54D1FEF7CBFE401B70
:1043B0000228F5D9032086E1774A136843F4803355
:1043C0001360B5E7744B1A6842F480221A601A68C9
:1043D00042F480321A60ABE7FEF7B4FE05466E4B3E
:1043E0001B6813F4003FC3D0FEF7ACFE401B6428EB
:1043F000F5D9032067E1684B5B6813F4800FC6D1E1
:10440000654B1B6813F0020F04D0E368012B01D049
:10441000012058E1604A136823F0F803216943EA58
:10442000C1031360236813F0080F40D0636963B3BE
:104430005B4B01221A60FEF785FE0546564B5B6F0B
:1044400013F0020F33D1FEF77DFE401B0228F5D991
:10445000032038E1504A136823F0F803216943EA46
:10446000C1031360DEE74D4B00221A60FEF76AFEBF
:104470000546494B1B6813F0020FD3D0FEF762FECE
:10448000401B0228F5D903201DE1454B00221A608C
:10449000FEF758FE0546404B5B6F13F0020F06D047
:1044A000FEF750FE401B0228F5D903200BE12368DC
:1044B00013F0040F79D0384B1B6C13F0805F33D1AD
:1044C00000230193344B1A6C42F080521A641B6C27
:1044D00003F080530193019B0125324B1B6813F4B9
:1044E000807F23D0A368012B34D0052B38D02A4BF2
:1044F0001A6F22F001021A671A6F22F004021A677B
:10450000A368002B36D0FEF71DFE0646224B1B6F1C
:1045100013F0020F48D1FEF715FE801B41F28833DD
:104520009842F3D90320CEE00025D6E71D4A136850
:1045300043F480731360FEF705FE0646194B1B68B3
:1045400013F4807FCED1FEF7FDFD801B0228F5D944
:104550000320B8E0104A136F43F001031367CFE75D
:104560000D4B1A6F42F004021A671A6F42F00102F3
:104570001A67C5E7FEF7E6FD0646074B1B6F13F00B
:10458000020F11D0FEF7DEFD801B41F28833984206
:10459000F3D9032097E000BF0038024000004742F3
:1045A000800E474200700040EDB9A369002B00F077
:1045B0008980484A926802F00C02082A51D0022BE6
:1045C00017D0454B00221A60FEF7BCFD0446414B54
:1045D0001B6813F0007F42D0FEF7B4FD001B0228D9
:1045E000F5D903206FE03B4A136C23F0805313642A
:1045F000DBE7394B00221A60FEF7A4FD0546354B78
:104600001B6813F0007F06D0FEF79CFD401B0228BC
:10461000F5D9032057E0E369226A1343626A43EA4B
:104620008213A26A5208013A43EA0243E26A43EA69
:104630000263284A5360284B01221A60FEF782FD6C
:104640000446244B1B6813F0007F06D1FEF77AFD69
:10465000001B0228F5D9032035E0002033E00020BC
:1046600031E0012B31D01B4B5B6803F48001E26920
:10467000914201D0012026E003F03F02216A8A42E4
:1046800001D001201FE0616A47F6C0721A40B2EB08
:10469000811F01D0012016E003F44031A26A5208C4
:1046A000013AB1EB024F01D001200CE003F070633E
:1046B000E26AB3EB026F0AD0012004E001207047E8
:1046C000012000E0002002B070BD0120FBE70020C7
:1046D000F9E700BF0038024060004742264B9B6864
:1046E00003F00C03042B44D0082B01D0234870475F
:1046F0002DE9F04B204B5A6802F03F025B6813F43F
:10470000800F13D01C4B5968C1F3881100231C483B
:10471000A1FB0001FCF730FA174B5B68C3F30143C0
:1047200001335B00B0FBF3F0BDE8F08B124B5B682C
:10473000C3F388131E4600275C010025E41A65EBCD
:104740000705A90141EA9461A001001B61EB050185
:10475000CB0043EA5073C400A01943EB07018B025E
:1047600043EA90538402204619460023FCF704FADA
:10477000D2E70348704700BF003802400024F4002D
:10478000001BB700002800F09E8070B50446504B17
:104790001B6803F007038B4209D2CBB24C4A13705B
:1047A000136803F007038B4201D0012070BD23681A
:1047B00013F0020F17D013F0040F04D0454A93688A
:1047C00043F4E0539360236813F0080F04D0414A88
:1047D000936843F4604393603E4A936823F0F00388
:1047E000A068034393600D46236813F0010F32D095
:1047F0006368012B21D09A1E012A25D9354A1268F7
:1048000012F0020F61D033498A6822F00302134389
:104810008B60FEF797FC06462E4B9B6803F00C035B
:104820006268B3EB820F16D0FEF78CFC801B41F25E
:1048300088339842F0D90320B8E7264A126812F468
:10484000003FE0D10120B1E7224A126812F0007F58
:10485000D9D10120AAE71E4B1B6803F00703AB4226
:1048600009D9EAB21A4B1A701B6803F00703AB426E
:1048700001D001209AE7236813F0040F06D0154AEF
:10488000936823F4E053E1680B439360236813F0CB
:10489000080F07D00F4A936823F46043216943EA65
:1048A000C1039360FFF71AFF0A4B9B68C3F303131E
:1048B000094AD35CD840094B1860094B1868FEF7C9
:1048C000DDF9002072E70120704701206EE700BF8C
:1048D000003C02400038024080B400080400002080
:1048E0000C000020014B1868704700BF0400002036
:1048F00008B5FFF7F7FF044B9B68C3F38223034A15
:10490000D35CD84008BD00BF0038024090B4000816
:1049100008B5FFF7E7FF044B9B68C3F34233034A34
:10492000D35CD84008BD00BF0038024090B40008F6
:104930000F2303600B4B9A6802F0030242609A68EF
:1049400002F0F00282609A6802F4E052C2609B6852
:10495000DB0803F4E0530361034B1B6803F0070318
:104960000B60704700380240003C02402DE9F043E4
:1049700083B004460F4616461D46FEF7E3FB0A9B2E
:10498000181A00EB0508FEF7DDFB81462A4B1B6871
:10499000C3F3CB3308FB03F3019323689B6837EA27
:1049A00003030CBF01230023B34240D0B5F1FF3F06
:1049B000F3D0FEF7C7FBA0EB090040450AD2B8F1DF
:1049C000000F07D0019B0BB94FF00008019B013B82
:1049D0000193E2E72268536823F0E00353606368C1
:1049E000B3F5827F0BD0A36AB3F5005F14D0012327
:1049F00084F85130002384F85030032018E0A36875
:104A0000B3F5004F02D0B3F5806FECD12268136884
:104A100023F040031360E6E72268136823F4005391
:104A200013602268136843F400531360DFE700202B
:104A300003B0BDE8F08300BF0400002030B585B0AE
:104A4000164C2468164DA5FB0434640D4FF47A759A
:104A500005FB04F403944468B4F5827F0BD0039BF8
:104A6000C3B1039B013B039303689B6813F0800F62
:104A7000F5D100230FE00B4604460092002280216E
:104A8000FFF774FF034630B1636D43F020036365A5
:104A9000032300E00023184605B030BD04000020C9
:104AA000819F5E1600285AD010B50446436A33B978
:104AB0004368B3F5827F05D00023C36102E0002381
:104AC000036143610023A36294F85130002B40D06E
:104AD000022384F851302268136823F040031360E6
:104AE000636803F48273A26802F404421343E26829
:104AF00002F400621343226902F002021343626966
:104B000002F001021343A26902F400721343E26946
:104B100002F038021343226A02F080021343A26AB1
:104B200002F40052216813430B60638B03F004030B
:104B3000626A02F01002216813434B602268D36955
:104B400023F40063D36100206065012384F85130B1
:104B500010BD84F850302046FDF7DCFFB8E7012097
:104B600070472DE9F04383B0DDF8288090F850407D
:104B7000012C00F00B811D4617460E46044601230A
:104B800080F85030FEF7DEFA814694F85100C0B24A
:104B90006368012815D0B3F5827F0AD00223012271
:104BA00084F85120002284F85020184603B0BDE854
:104BB000F083A368002B40F0DB80042801D002239F
:104BC000EDE7002E00F0D680002F00F0D580002DFC
:104BD00000F0D48094F85130DBB2042B02D00523CE
:104BE00084F8513000236365A763E587A5872663B2
:104BF000E586A5862364636423681A6812F0400F73
:104C000003D11A6842F040021A60E368B3F5006FFE
:104C100010D063680BB1012D0AD1226B2368127882
:104C20001A73236B01332363E38E013B9BB2E3864C
:104C3000012569E063680BB1012D0AD1226B23685D
:104C40001288DA60236B02332363E38E013B9BB24D
:104C5000E38601251BE023689A6812F0010F0DD04E
:104C6000E28F92B252B1DA68A36B1A80A36B02335F
:104C7000A363E38F013B9BB2E3870125FEF762FA52
:104C8000A0EB0900404502D3B8F1FF3F78D1E38E95
:104C90009BB21BB9E38F9BB2002B52D023689A685A
:104CA00012F0020FD7D0E28E92B2002AD3D0002D9C
:104CB000D1D0226B1288DA60236B02332363E38E38
:104CC000013B9BB2E3860025C5E723689A6812F092
:104CD000010F0DD0E28F92B252B1DA68A36B1A7055
:104CE000A36B0133A363E38F013B9BB2E3870125F1
:104CF000FEF728FAA0EB0900404502D3B8F1FF3FC8
:104D000040D1B8F1000F3FD0E38E9BB213B9E38FCF
:104D10009BB2B3B123689A6812F0020FD5D0E28E2D
:104D200092B2002AD1D0002DCFD0226B12781A7304
:104D3000236B01332363E38E013B9BB2E3860025A3
:104D4000C3E74A4641462046FFF778FE034618B1BE
:104D500020236365012322E7A268002A7FF41FAFA6
:104D600001922268D168019192680192019A16E736
:104D7000022314E7012312E7012310E701230EE7C2
:104D800003230CE703230AE7032308E702230CE7C6
:104D900030B4036A23F001030362056A4268846940
:104DA00024F073040B681C4325F002058B682B4329
:104DB000104DA84203D005F58065A84205D123F027
:104DC0000803CD682B4323F004030A4DA84203D007
:104DD00005F58065A84205D122F440724D6915435E
:104DE0008A692A43426084614A684263036230BC34
:104DF000704700BF0000014030B4036A23F48073A1
:104E00000362036A4268C46924F073040D682C438A
:104E100023F400738D6843EA0523124DA84203D0A2
:104E200005F58065A84206D123F40063CD6843EA06
:104E3000052323F480630B4DA84203D005F580655C
:104E4000A84207D122F440524D6942EA05128D6909
:104E500042EA05124260C4614A68C263036230BC20
:104E6000704700BF0000014030B4036A23F4805350
:104E70000362036A4468C26922F4E6420D6842EAAA
:104E8000052223F400538D6843EA0533094DA842F7
:104E900003D005F58065A84204D124F480444D690F
:104EA00044EA85144460C2614A680264036230BC0B
:104EB000704700BF0000014010B4036A046A24F088
:104EC00001040462846924F0F00444EA021223F02D
:104ED0000A030B43826103625DF8044B704710B410
:104EE000036A23F0100303628469036A24F47044A4
:104EF00044EA023223F0A00343EA01138261036211
:104F00005DF8044B7047836823F07003194341F048
:104F1000070181607047000090F83D30DBB2012B43
:104F200001D001207047022380F83D300268D36829
:104F300043F00103D3600368184A934220D0B3F1D1
:104F4000804F1DD0A2F57C42934219D002F58062B9
:104F5000934215D002F58062934211D002F5784257
:104F600093420DD002F57052934209D0A2F59432CB
:104F7000934205D01A6842F001021A60002070477F
:104F80009A6802F00702062A05D01A6842F0010268
:104F90001A60002070470020704700BF00000140E9
:104FA0007047704770477047704710B504460368F4
:104FB0001A6912F0020F11D0DA6812F0020F0DD048
:104FC0006FF002021A610123037703689B6913F0F3
:104FD000030F70D0FFF7E6FF0023237723681A69D9
:104FE00012F0040F12D0DA6812F0040F0ED06FF036
:104FF00004021A610223237723689B6913F4407F1C
:105000005FD02046FFF7CEFF0023237723681A697D
:1050100012F0080F12D0DA6812F0080F0ED06FF0FD
:1050200008021A61042323772368DB6913F0030F56
:105030004ED02046FFF7B6FF0023237723681A6976
:1050400012F0100F12D0DA6812F0100F0ED06FF0BD
:1050500010021A61082323772368DB6913F4407F69
:105060003DD02046FFF79EFF0023237723681A696F
:1050700012F0010F03D0DA6812F0010F36D1236865
:105080001A6912F0800F03D0DA6812F0800F34D161
:1050900023681A6912F0400F03D0DA6812F0400F4B
:1050A00032D123681A6912F0200F03D0DA6812F0A7
:1050B000200F30D110BDFFF774FF2046FFF773FFBC
:1050C0008AE72046FFF76DFF2046FFF76CFF9BE75E
:1050D0002046FFF766FF2046FFF765FFACE7204656
:1050E000FFF75FFF2046FFF75EFFBDE76FF00102AD
:1050F0001A612046FDF752FCC1E76FF080021A6189
:10510000204600F028FAC3E76FF040021A612046FB
:10511000FFF74AFFC5E76FF020021A61204600F052
:1051200019FAC7E70368304A904212D0B0F1804FB5
:105130000FD0A2F57C4290420BD002F580629042E3
:1051400007D002F58062904203D002F57842904287
:1051500003D123F070034A681343234A90422AD0B4
:10516000B0F1804F27D0A2F57C42904223D002F5C7
:10517000806290421FD002F5806290421BD002F5FF
:105180007842904217D002F57052904213D002F547
:10519000806290420FD002F5806290420BD0A2F55F
:1051A0009832904207D002F58062904203D002F517
:1051B0008062904203D123F44073CA68134323F002
:1051C00080034A69134303608B68C3620B68836280
:1051D000054B984203D003F58063984201D10B69D7
:1051E00003630123436170470000014038B310B5E9
:1051F000044690F83D30EBB1022384F83D30211D88
:105200002068FFF78FFF012384F8463084F83E3092
:1052100084F83F3084F8403084F8413084F84230DC
:1052200084F8433084F8443084F8453084F83D30C5
:10523000002010BD80F83C30FDF71EFEDCE70120A9
:10524000704738B310B5044690F83D30EBB10223F7
:1052500084F83D30211D2068FFF764FF012384F8A6
:10526000463084F83E3084F83F3084F8403084F88B
:10527000413084F8423084F8433084F8443084F874
:10528000453084F83D30002010BD80F83C30FFF7F9
:1052900087FEDCE70120704730B4036A23F0100377
:1052A0000362036A4468826922F4E6420D6842EAB6
:1052B000052223F020038D6843EA0513114DA8420F
:1052C00003D005F58065A84206D123F08003CD68A0
:1052D00043EA051323F040030A4DA84203D005F525
:1052E0008065A84207D124F440644D6944EA8504EE
:1052F0008D6944EA8504446082614A68826303627E
:1053000030BC70470000014038B590F83C30012BAC
:1053100060D00D460446012380F83C300C2A1AD890
:10532000DFE802F0071919191D191919311919198E
:1053300044000068FFF72CFD2268936943F00803DE
:1053400093612268936923F004039361226893694F
:1053500029690B439361002084F83C0038BD006844
:10536000FFF79AFF2268936943F400639361226810
:10537000936923F48063936122689369296943EAFE
:1053800001239361E7E70068FFF736FD2268D369E0
:1053900043F00803D3612268D36923F00403D36187
:1053A0002268D36929690B43D361D4E70068FFF70A
:1053B0005BFD2268D36943F40063D3612268D3693B
:1053C00023F48063D3612268D369296943EA012306
:1053D000D361C0E70220C1E710B4846824F47F449D
:1053E00042EA03230B43234383605DF8044B704779
:1053F00090F83C30012B66D010B50446012380F8AC
:105400003C30022380F83D300268936823F47F43E8
:1054100023F0770393600B68402B4AD013D9602B9D
:105420003DD01ED9702B28D0B3F5005F30D1CB68AA
:105430004A6889680068FFF7CFFF2268936843F4E1
:105440008043936024E0102B06D004D9202B03D096
:10545000302B01D01CE0DBB919462068FFF753FD63
:1054600016E0502B14D1CA6849680068FFF724FD84
:1054700050212068FFF747FD0AE0CB684A68896839
:105480000068FFF7A9FF2268936843F077039360F1
:10549000012384F83D30002084F83C0010BDCA6828
:1054A00049680068FFF71BFD60212068FFF72BFDAE
:1054B000EEE7CA6849680068FFF7FEFC40212068F3
:1054C000FFF721FDE4E702207047000090F83C3030
:1054D000012B3BD030B4012380F83C30022380F80C
:1054E0003D3003685C689D6824F070040A682243BC
:1054F0005A600368164A93421AD0B3F1804F17D00E
:10550000A2F57C42934213D002F5806293420FD001
:1055100002F5806293420BD002F57842934207D0A5
:1055200002F57052934203D0A2F59432934204D113
:1055300025F080054A6815439D60012380F83D30C1
:10554000002380F83C30184630BC7047022070477A
:1055500000000140704770470268D36823F49073DD
:10556000D3600268536923F001035361036B012B7D
:1055700005D0202380F83E30002303637047026883
:10558000D36823F01003D360F3E790F83D30DBB22B
:10559000212B27D18368B3F5805F16D0036A5A1C8C
:1055A00002621A7803685A60C38C013B9BB2C384C1
:1055B000D3B90268D36823F08003D3600268D3684C
:1055C00043F04003D360002070470369002BE5D10E
:1055D000036A1B880268C3F308035360036A02333B
:1055E0000362E1E702207047002070472DE9F04B8D
:1055F00004460268136923F44053C1680B431361E6
:1056000083680269134342691343C2691A430168FC
:10561000CB6823F4164323F00C031343CB600268DA
:10562000536923F4407381690B43536103683A4A19
:10563000934206D002F58062934202D0FFF758F9F8
:1056400001E0FFF765F9E369B3F5004F30D04FF0A3
:105650000009061849EB090716EB000B47EB090C8C
:105660004FEACC0343EA5B734FEACB0293469C4676
:1056700063689A009B0F10EB0B0049EB0C01FBF7E2
:105680007BFA264DA5FB00325109642202FB110270
:1056900013013233A5FB03235B0903F0F00202EB95
:1056A000011203F00F03216813448B60BDE8F08BF7
:1056B00083464FF0000C06184CEB0C0716EB000865
:1056C00047EB0C094FEAC90343EA58734FEAC80293
:1056D0009046994662680021921841EB01031BEB4A
:1056E00008004CEB0901FBF747FA0C4DA5FB003213
:1056F0005109642202FB1102D3003233A5FB0323BC
:105700005B095A0002F4F87202EB011203F007037E
:10571000216813448B60C9E7001001401F85EB51DD
:1057200058B310B5044690F83D300BB3242384F8E9
:105730003D302268D36823F40053D3602046FFF73E
:1057400055FF2268136923F490431361226853695B
:1057500023F02A0353612268D36843F40053D360D3
:1057600000202064202384F83D3084F83E3010BDB2
:1057700080F83C30FDF738FCD8E7012070477047CF
:1057800008B50168CB6823F04003CB60202380F884
:105790003D30FFF7F4FF002008BD7047704708B5A3
:1057A000806B0023C385C384FFF7F8FF08BD7047F3
:1057B00090F83E30DBB2222B50D18368B3F5805F86
:1057C00030D0826AB3F5805F04D0002B37D10369F3
:1057D000002B34D103685B681370836A01338362E2
:1057E000C38D013B9BB2C385002B39D110B5044654
:1057F0000268D36823F02003D3600268D36823F4DF
:105800008073D3600268536923F00103536120233E
:1058100080F83E30036B012B17D0FFF7BEFF00204E
:10582000206310BD0269002ACBD1826A03685B68DD
:10583000C3F308031380836A02338362D0E70368EB
:105840005B6803F07F031370C7E70268D36823F037
:105850001003D360818DFFF7AAFFE0E702207047B5
:105860000020704730B583B0044602681368D068E2
:10587000516913F00F0505D113F0200F02D010F07D
:10588000200F56D1002D6AD011F0010102D110F481
:10589000907F64D013F0010F06D010F4807F03D006
:1058A000226C42F00102226413F0040F04D019B1FB
:1058B000226C42F00202226413F0020F04D019B1EC
:1058C000226C42F00402226413F0080F07D010F09B
:1058D000200F00D119B1226C42F008022264226C20
:1058E000002A4BD013F0200F02D010F0200F24D14B
:1058F00023685B6903F04003226C12F0080F00D1AB
:105900003BB32046FFF728FE23685A6912F0400F88
:105910001BD05A6922F040025A61A36B8BB14E4AE8
:105920001A65A06BFDF792FD40B3A06B036D98471D
:1059300024E02046FFF73CFF20E02046FFF738FF39
:10594000D6E72046FFF72AFF18E02046FFF726FF9C
:1059500014E02046FFF722FF002323640EE0216BB2
:1059600001290DD013F0800F02D010F0800F6AD102
:1059700013F0400F02D010F0400F68D103B030BDDB
:1059800013F0100FEED010F0100FEBD000230193A6
:105990001368019353680193019B536913F0400FFF
:1059A00030D0A16B0B685B689BB2002BE6D0A08D5A
:1059B0009842E3D9E385CB69B3F5807F1AD0D368E9
:1059C00023F48073D3602268536923F00103536189
:1059D0002268536923F040035361202384F83E304A
:1059E000002323632268D36823F01003D360A06BE5
:1059F000FDF7E2FCA18DE38DC91A89B22046FFF7BD
:105A0000D6FEBBE7A18DE38DC91A89B2E38D9BB2A7
:105A1000002BB3D00029B1D0D36823F49073D360A6
:105A20002268536923F001035361202384F83E3038
:105A3000002323632268D36823F01003D360204639
:105A4000FFF7B5FE9AE72046FFF79FFD96E7204651
:105A5000FFF796FE92E700BF9F570008842801D009
:105A6000033070470020704708B501F015F800209A
:105A700008BD2DE9F04387B004460F464569A5B13E
:105A8000866996B1D0F80480D0F80090B0F908008B
:105A9000FFF7E4FF22690296019500903B464946D4
:105AA000404600F08BFF059013E065682668D4F847
:105AB0001080B4F90800FFF7D1FF05AB0193009007
:105AC0003B461FFA88F23146284600F0B1FF012814
:105AD00003D1059807B0BDE8F0830020FAE708B5C8
:105AE000034600B90123184601F02EF9002008BD35
:105AF00010B582B0436863B101291AD10322009224
:105B000000221146012000F01DFC0446204602B090
