:020000040800F2
:10000000000002203D0B0008DD080008DF080008A2
:10001000E1080008E3080008E50800080000000007
:10002000000000000000000000000000E7080008D9
:10003000E908000800000000EB080008ED080008CF
:100040008D0B00088D0B00088D0B00088D0B000830
:100050008D0B00088D0B00088D0B00088D0B000820
:100060008D0B00088D0B00088D0B00088D0B000810
:100070008D0B00088D0B00088D0B00088D0B000800
:100080008D0B00088D0B00088D0B00088D0B0008F0
:100090008D0B00088D0B00088D0B00088D0B0008E0
:1000A0008D0B00088D0B00088D0B00088D0B0008D0
:1000B0008D0B00088D0B00088D0B00088D0B0008C0
:1000C0008D0B00088D0B00088D0B00088D0B0008B0
:1000D0008D0B0008F50800088D0B00088D0B00083B
:1000E0008D0B00088D0B00088D0B00088D0B000890
:1000F0008D0B00088D0B00088D0B00088D0B000880
:100100008D0B00088D0B00088D0B00088D0B00086F
:100110008D0B00088D0B00088D0B00088D0B00085F
:100120008D0B00088D0B0008050900081509000853
:100130008D0B00088D0B00088D0B00088D0B00083F
:100140008D0B00088D0B00088D0B00088D0B00082F
:100150008D0B00088D0B0008250900088D0B000889
:100160008D0B00088D0B00088D0B00088D0B00080F
:100170008D0B00088D0B00088D0B0008000000009F
:080180008D0B00088D0B000837
:1001880010B5054C237833B9044B13B10448AFF3C9
:1001980000800123237010BD4404002000000000EB
:1001A800202D000808B5034B1BB103490348AFF3E2
:1001B800008008BD0000000048040020202D000831
:1001C80053B94AB9002908BF00281CBF4FF0FF31B6
:1001D8004FF0FF3000F072B9ADF1080C6DE904CEB4
:1001E80000F006F8DDF804E0DDE9022304B070470A
:1001F8002DE9F047089E04468846002B4BD18A42D9
:10020800154667D9B2FA82F24AB1C2F1200701FA5B
:1002180002F320FA07F7954047EA030894404FEAAB
:10022800154E230CB8FBFEF71FFA85FC0EFB17884A
:1002380043EA084307FB0CF1994209D9EB1807F187
:10024800FF3080F01B81994240F21881023F2B4415
:100258005B1AA4B2B3FBFEF00EFB103344EA03446E
:1002680000FB0CFCA44509D92C1900F1FF3380F0E0
:100278000781A44540F2048102382C4440EA074033
:10028800A4EB0C0400271EB1D4400023C6E90043A8
:100298003946BDE8F0878B4209D9002E00F0EB8083
:1002A8000027C6E9000138463946BDE8F087B3FAA9
:1002B80083F7002F47D18B4202D3824200F2FA80A3
:1002C800841A61EB030301209846002EE0D0C6E9AA
:1002D8000048DDE702B9FFDEB2FA82F2002A40F0F8
:1002E8008F80491B4FEA154E1FFA85F80127B1FB8D
:1002F800FEFC230C0EFB1C1143EA014308FB0CF126
:10030800994207D9EB180CF1FF3002D2994200F25A
:10031800CD808446591AA3B2B1FBFEF00EFB10142F
:1003280043EA044408FB00F8A04507D92C1900F15A
:10033800FF3302D2A04500F2B6801846A4EB0804A9
:1003480040EA0C409FE7C7F1200CBB4022FA0CFEA4
:100358004EEA030E01FA07F420FA0CF521FA0CF321
:100368004FEA1E482543B3FBF8F92C0C08FB193358
:100378001FFA8EFA44EA034309FB0AF49C4202FA84
:1003880007F200FA07F10BD91EEB030309F1FF305E
:1003980080F087809C4240F28480A9F1020973446E
:1003A8001B1BADB2B3FBF8F008FB103345EA03445E
:1003B80000FB0AFAA24508D91EEB040400F1FF333A
:1003C8006BD2A24569D90238744440EA0940A0FBBF
:1003D8000289A4EB0A044C45C2464B4654D351D07B
:1003E800002E69D0B1EB0A0564EB030404FA0CFC97
:1003F800FD40FC404CEA0505C6E90054002747E7E4
:10040800C2F1200320FA03F7954001FA02F021FA1D
:1004180003F34FEA154E3843010CB3FBFEF71FFAFE
:1004280085F80EFB173341EA034107FB08F38B42BB
:1004380004FA02F407D9691807F1FF3C2FD28B425E
:100448002DD9023F2944CB1A81B2B3FBFEF00EFB33
:10045800103341EA034100FB08F38B4207D96918BE
:1004680000F1FF3C17D28B4215D902382944C91A2A
:1004780040EA07473BE73746304609E70746E7E6DD
:100488001846FBE64145ABD2B8EB020A69EB0E020F
:1004980001381346A4E76046E9E7184695E767463A
:1004A800D1E781467CE702382C4447E7ACF1020CDF
:1004B8002B442FE7384608E73746E9E6704700BF80
:1004C80010B582B000240194114B1A6B42F48002DB
:1004D8001A631B6B03F480030193019B2246214698
:1004E8003A2000F0C9FB3A2000F0FAFB22462146E8
:1004F8003B2000F0C1FB3B2000F0F2FB22462146E6
:10050800462000F0B9FB462000F0EAFB02B010BD1F
:10051800003802402DE9F0418AB000240594069481
:100528000794089409940094374B1A6B42F002021E
:100538001A631A6B02F002020092009A01941A6B75
:1005480042F001021A631A6B02F001020192019A49
:1005580002941A6B42F080021A631A6B02F080024E
:100568000292029A03941A6B42F020021A631A6BE1
:1005780002F020020392039A04941A6B42F00402D8
:100588001A631B6B03F004030493049BDFF88C804D
:1005980022464FF4E051404600F0C8FE1B4F0122AE
:1005A8001021384600F0C2FE194E0122114630468D
:1005B80000F0BCFE4FF4E05305930125069507941F
:1005C800089405A9404600F0C7FD10230593069539
:1005D80007950224089405A9384600F0BDFD30238C
:1005E80005930C4B0693079505A90B4800F0B4FD3D
:1005F800059506950795089405A9304600F0ACFDC9
:100608000AB0BDE8F08100BF003802400000024097
:10061800000402400000211000080240001C0240B3
:1006280072B6FEE700B595B03022002108A802F0A6
:100638009BFA00230393049305930693079301936E
:10064800204A116C41F080511164126C02F0805202
:100658000192019A02931C4B1A6842F480421A6074
:100668001B6803F480430293029B012308934FF411
:100678008033099302230E934FF480020F920622CF
:100688001092A822119212930423139308A800F041
:1006980053FE98B90F230393022304930023059371
:1006A8004FF4A05306934FF480530793052103A8F2
:1006B80001F092F820B915B05DF804FBFFF7B0FF20
:1006C800FFF7AEFF003802400070004008B500F0A8
:1006D80081FAFFF7A7FFFFF71DFFFFF7F1FE00F014
:1006E800B1F900F025F800F073F905E001224FF4A4
:1006F80080510B4800F01AFE02F052F90028F5D19B
:1007080000224FF48051064800F010FE054A0649C1
:10071800064802F053F90A2000F088FAF6E700BF0D
:10072800001C024078040020600400206C040020B3
:1007380008B50F480F4B03604FF4827343600023E2
:100748008360C36002220261012242614FF4007299
:1007580082613822C2610362436283620A23C362F0
:1007680001F0ACF900B908BDFFF75AFFFBE700BF7D
:100778003C050020003001402DE9F04188B00023FD
:100788000393049305930693079302683C4B9A429C
:1007980002D008B0BDE8F08104460025009503F5B5
:1007A80084335A6C42F480525A645A6C02F4805270
:1007B8000092009A01951A6B42F002021A631A6BB2
:1007C80002F002020192019A02951A6B42F00102AC
:1007D8001A631B6B03F001030293029B1823039314
:1007E8004FF00208CDF810800327069705260796D4
:1007F80003A9244800F0B0FC80230393CDF81080AF
:1008080005950697079603A91F4800F0A5FC1F4801
:100818001F4B03604FF0C06343608560C5604FF4B1
:100828008063036145618561C5614FF440330362AC
:10083800456200F0DFFAE8B9144BE3649C6315489D
:10084800154B03604FF0C06343604023836000236F
:10085800C3604FF48062026143618361C3614FF4F6
:1008680000320262436200F0C5FA30B9094BA36452
:100878009C638EE7FFF7D4FEDEE7FFF7D1FEF5E7CE
:100888000030014000040240000002407C040020C7
:1008980040640240DC0400205864024082B0002119
:1008A80000910B4B5A6C42F480425A645A6C02F421
:1008B80080420092009A01911A6C42F080521A64A8
:1008C8001B6C03F080530193019B02B0704700BF7B
:1008D80000380240FEE7FEE7FEE7FEE7FEE7704766
:1008E8007047704708B500F08FF908BD08B5024891
:1008F80001F0D0FD08BD00BF3C06002008B5024845
:1009080000F03CFB08BD00BF7C04002008B502488D
:1009180000F034FB08BD00BFDC04002008B5024825
:1009280000F02CFB08BD00BFDC050020034AD2F80C
:10093800883043F47003C2F88830704700ED00E057
:100948000268094B9A4200D0704782B00023019395
:10095800064B5A6C42F400325A645B6C03F4003361
:100968000193019B02B070470044014000380240E7
:1009780000B587B000230193029303930493059372
:100988000268104B9A4202D007B05DF804FB0023BE
:1009980000930D4B1A6B42F020021A631B6B03F095
:1009A80020030093009B402301930223029301221A
:1009B800039204930323059301A9044800F0CCFB98
:1009C800E2E700BF00440140003802400014024042
:1009D80000B589B000230193029303930493059310
:1009E800069307931548164A02604360836041F2F4
:1009F8008732C2600361836101F0D0FAA0B90F4861
:100A080001F0F7FA98B96023019300220292039249
:100A1800059201A9094801F04FFB58B90748FFF7AB
:100A2800A7FF09B05DF804FBFFF7FAFDE7E7FFF75A
:100A3800F7FDE8E7FFF7F4FDF0E700BF94050020B5
:100A48000044014008B50A480A4B03604FF4E133FB
:100A5800436000238360C36003610C2242618361A9
:100A6800C36101F075FC00B908BDFFF7D9FDFBE7CC
:100A78003C0600200010014030B589B000230393E4
:100A88000493059306930793026803F1804303F5E3
:100A980088339A4201D009B030BD0446002501953B
:100AA80003F594335A6C42F010025A645A6C02F0FF
:100AB80010020192019A02951A6B42F002021A631F
:100AC8001B6B03F002030293029BC02303930223D0
:100AD8000493032306930723079303A9124800F0FE
:100AE8003BFB1248124B03604FF000634360402306
:100AF8008360C5604FF48063036145618561C561AA
:100B08000562456200F076F958B9084B63639C6347
:100B180000221146252000F0AFF8252000F0E0F86B
:100B2800B9E7FFF77DFDF0E700040240DC0500208F
:100B3800B8640240DFF834D00D480E490E4A00234D
:100B480002E0D458C4500433C4188C42F9D30B4A79
:100B58000B4C002301E013600432A242FBD3FFF7E1
:100B6800E5FE01F0DDFFFFF7B1FD70470000022050
:100B78000000002044040020982D000844040020B0
:100B8800A8060020FEE7000010B504460E4B1878B2
:100B98004FF47A73B3FBF0F30C4A1068B0FBF3F030
:100BA80000F0ACF868B90F2C01D901200AE0002246
:100BB80021464FF0FF3000F05FF8054B1C60002025
:100BC80000E0012010BD00BF04000020000000204C
:100BD8000800002008B50B4B1A6842F400721A602E
:100BE8001A6842F480621A601A6842F480721A60C5
:100BF800032000F02FF80020FFF7C6FFFFF74EFE96
:100C0800002008BD003C0240034A1168034B1B78D2
:100C18000B441360704700BF8006002004000020CA
:100C2800014B1868704700BF8006002038B504469D
:100C3800FFF7F6FF0546B4F1FF3F02D0044B1B78DF
:100C48001C44FFF7EDFF401BA042FAD338BD00BF9C
:100C580004000020074AD36823F4E0631B041B0C3C
:100C6800000200F4E060184340F0BF6040F4003038
:100C7800D060704700ED00E030B4174BDB68C3F379
:100C88000223C3F10704042C28BF04241D1D062DCC
:100C980018D9033B4FF0FF3505FA04F421EA0401A3
:100CA800994005FA03F322EA0303194300280BDBF2
:100CB8000901C9B200F1604000F5614080F80013F5
:100CC80030BC70470023E5E700F00F000901C9B206
:100CD800024B1954F4E700BF00ED00E014ED00E00A
:100CE800002807DB00F01F02400901239340024A55
:100CF80042F82030704700BF00E100E00138B0F151
:100D0800807F0AD2064B5860064AF02182F82310E9
:100D18000020986007221A6070470120704700BFC2
:100D280010E000E000ED00E00268D3B2103B0B4990
:100D3800A1FB03131B090A49C95CC165032B06D82B
:100D480022F47F7222F003028265806D704722F4DC
:100D58007F7222F0030204328265F6E7ABAAAAAAE0
:100D6800502D0008836A826992B9012B0AD01BB101
:100D7800022B01D000207047C36A13F0807F2CD16A
:100D880000207047C36AB3F1C07F28D000207047A5
:100D9800B2F5005F05D0022B29D9032B15D000200E
:100DA8007047032B03D8DFE803F01C041C0A00205B
:100DB8007047C36A13F0807F15D100207047C36A5B
:100DC800B3F1C07F11D000207047C36A13F0807F51
:100DD80001D0012070470020704701207047012092
:100DE800704701207047012070470120704701209B
:100DF8007047000070B50446FFF712FF002C5BD067
:100E08000546002384F83430022384F835302268FC
:100E1800136823F00103136023681A6812F0010FA6
:100E28000AD0FFF7FDFE401B0528F5D9202363658E
:100E3800032084F8350070BD1A68204810406168A6
:100E4800A2680A43E1680A4321690A4361690A43BF
:100E5800A1690A43E1690A43216A0A430243616AB4
:100E680004291ED01A602668756925F00705636A8B
:100E78001D43042B07D1A36A1D43E36A1BB1204617
:100E8800FFF770FF90B975612046FFF74DFFE26DDF
:100E98003F239340836000206065012384F8353048
:100EA800C9E7E16A206B01430A43DBE74023636536
:100EB800012084F83500BEE70120BCE73F8010F030
:100EC80070B50446866DFFF7ABFE94F83530DBB29B
:100ED800022B06D080236365002384F83430012078
:100EE80070BD05462268136823F016031360226854
:100EF800536923F080035361236CE3B122681368BC
:100F080023F0080313602268136823F001031360B9
:100F180023681B6813F0010F11D0FFF781FE401BF7
:100F28000528F5D920236365002384F8343003208D
:100F380084F83500D4E7A36C002BDFD1E3E7E26D3A
:100F48003F239340B360002084F83400012384F8E1
:100F58003530C5E790F83530DBB2022B03D080235B
:100F6800436501207047052380F83530026813680F
:100F780023F001031360002070470000F0B583B030
:100F8800044600230193724B1D68724BA3FB053581
:100F9800AD0A876D3E68C26D08239340334210D076
:100FA80003681A6812F0040F0BD01A6822F00402C2
:100FB8001A60C26D08239340BB60436D43F0010380
:100FC8004365E26D01239340334209D02268526998
:100FD80012F0800F04D0BB60636D43F002036365B9
:100FE800E26D04239340334209D02268126812F05C
:100FF800020F04D0BB60636D43F004036365E26DC8
:1010080010239340334224D02268126812F0080F4C
:101018001FD0BB6023681A6812F4802F0DD01B689C
:1010280013F4002F04D1236C9BB12046984710E09D
:10103800A36C73B1204698470BE01A6812F4807FBE
:1010480003D11A6822F008021A60236C0BB12046FB
:101058009847E26D20239340334255D022681268A6
:1010680012F0100F50D0BB6094F83530DBB2052B6E
:101078000ED023681A6812F4802F33D01B6813F43B
:10108800002F2AD1636C002B3ED0204698473BE0C6
:101098002268136823F0160313602268536923F04B
:1010A80080035361236CA3B12268136823F00803FB
:1010B8001360E26D3F239340BB60002384F8343013
:1010C800012384F83530236D002B3FD02046984704
:1010D8003CE0A36C002BE7D1EBE7E36BA3B1204620
:1010E800984711E01A6812F4807F09D11A6822F033
:1010F80010021A60002384F83430012384F8353054
:10110800E36B0BB120469847636DFBB1636D13F039
:10111800010F17D0052384F835302268136823F0AF
:1011280001031360019B01330193AB4204D8236888
:101138001B6813F0010FF5D1002384F83430012324
:1011480084F83530E36C0BB12046984703B0F0BD06
:1011580000000020B5814E1B00230F2B00F2DC801D
:10116800F0B482B05DE086685F000324BC4026EAE4
:101178000406CC68BC4034438460466826EA02060C
:101188004C68C4F300129A403243426056E0DC08CF
:10119800083450F8247003F0070296000F22B2407A
:1011A80027EA02070A69B2403A4340F8242059E086
:1011B800072200E00022B2403A430234574E46F874
:1011C8002420574A1468EA4302EA04064F6817F4D1
:1011D800803F01D045EA0406514C2660646802EA63
:1011E80004064F6817F4003F01D045EA04064C4C4A
:1011F8006660A46802EA04064F6817F4801F01D0ED
:1012080045EA0406464CA660E46822404E6816F497
:10121800001F01D045EA0402414CE26001330F2B64
:1012280077D801229A400C6804EA0205AA42F5D14F
:101238004C6804F00304013C012C94D94A6802F07C
:101248000302032A09D0C4685E000322B24024EADC
:1012580002048A68B2402243C2604A6802F003026C
:10126800022A94D004685E000322B24024EA0204F1
:101278004A6802F00302B240224302604A6812F050
:10128800805FCBD000220192264A546C44F48044FB
:101298005464526C02F480420192019A9C08A61C84
:1012A8001E4A52F8267003F0030296000F22B2403D
:1012B80027EA02071C4A90423FF47CAF02F580629D
:1012C80090421AD002F58062904218D002F58062EE
:1012D800904216D002F58062904214D002F58062E6
:1012E800904212D002F58062904210D002F58062DE
:1012F80090423FF45DAF08225DE701225BE70222DE
:1013080059E7032257E7042255E7052253E7062247
:1013180051E702B0F0BC7047704700BF0038014089
:10132800003C0140003802400000024012B90904A4
:101338008161704781617047002800F0E98170B5CC
:1013480082B00446036813F0010F3BD0A74B9B689B
:1013580003F00C03042B2CD0A44B9B6803F00C0364
:10136800082B21D06368B3F5803F4FD0B3F5A02F89
:1013780052D09E4B1A6822F480321A601A6822F4FE
:1013880080221A606368002B50D0FFF749FC05469D
:10139800964B1B6813F4003F14D1FFF741FC401B28
:1013A8006428F5D90320B8E1904B5B6813F4800FEB
:1013B800D8D08E4B1B6813F4003F03D06368002B12
:1013C80000F0A881236813F0020F55D0874B9B6863
:1013D80013F00C0F3ED0854B9B6803F00C03082BD1
:1013E80033D0E368002B68D0814B01221A60FFF7E5
:1013F80017FC05467D4B1B6813F0020F54D1FFF70D
:101408000FFC401B0228F5D9032086E1774A1368B0
:1014180043F480331360B5E7744B1A6842F48022B2
:101428001A601A6842F480321A60ABE7FFF7F8FBDB
:1014380005466E4B1B6813F4003FC3D0FFF7F0FB63
:10144800401B6428F5D9032067E1684B5B6813F4F7
:10145800800FC6D1654B1B6813F0020F04D0E368F8
:10146800012B01D0012058E1604A136823F0F803EA
:10147800216943EAC1031360236813F0080F40D0C1
:10148800636963B35B4B01221A60FFF7C9FB05462A
:10149800564B5B6F13F0020F33D1FFF7C1FB401BB4
:1014A8000228F5D9032038E1504A136823F0F803DD
:1014B800216943EAC1031360DEE74D4B00221A603D
:1014C800FFF7AEFB0546494B1B6813F0020FD3D05C
:1014D800FFF7A6FB401B0228F5D903201DE1454B69
:1014E80000221A60FFF79CFB0546404B5B6F13F028
:1014F800020F06D0FFF794FB401B0228F5D9032002
:101508000BE1236813F0040F79D0384B1B6C13F0F0
:10151800805F33D100230193344B1A6C42F0805220
:101528001A641B6C03F080530193019B0125324B15
:101538001B6813F4807F23D0A368012B34D0052BBC
:1015480038D02A4B1A6F22F001021A671A6F22F05C
:1015580004021A67A368002B36D0FFF761FB064622
:10156800224B1B6F13F0020F48D1FFF759FB801B6A
:1015780041F288339842F3D90320CEE00025D6E71C
:101588001D4A136843F480731360FFF749FB06464E
:10159800194B1B6813F4807FCED1FFF741FB801BEA
:1015A8000228F5D90320B8E0104A136F43F001036D
:1015B8001367CFE70D4B1A6F42F004021A671A6FD0
:1015C80042F001021A67C5E7FFF72AFB0646074BF8
:1015D8001B6F13F0020F11D0FFF722FB801B41F2A3
:1015E80088339842F3D9032097E000BF00380240BF
:1015F80000004742800E474200700040EDB9A369E1
:10160800002B00F08980484A926802F00C02082AF0
:1016180051D0022B17D0454B00221A60FFF700FB70
:101628000446414B1B6813F0007F42D0FFF7F8FADD
:10163800001B0228F5D903206FE03B4A136C23F006
:1016480080531364DBE7394B00221A60FFF7E8FA8E
:101658000546354B1B6813F0007F06D0FFF7E0FA0C
:10166800401B0228F5D9032057E0E369226A134397
:10167800626A43EA8213A26A5208013A43EA0243C1
:10168800E26A43EA0263284A5360284B01221A603F
:10169800FFF7C6FA0446244B1B6813F0007F06D1F7
:1016A800FFF7BEFA001B0228F5D9032035E0002019
:1016B80033E0002031E0012B31D01B4B5B6803F491
:1016C8008001E269914201D0012026E003F03F0247
:1016D800216A8A4201D001201FE0616A47F6C07280
:1016E8001A40B2EB811F01D0012016E003F440310B
:1016F800A26A5208013AB1EB024F01D001200CE076
:1017080003F07063E26AB3EB026F0AD0012004E0D1
:1017180001207047012000E0002002B070BD0120C8
:10172800FBE70020F9E700BF0038024060004742AD
:10173800264B9B6803F00C03042B44D0082B01D0E4
:10174800234870472DE9F04B204B5A6802F03F02BE
:101758005B6813F4800F13D01C4B5968C1F38811D0
:1017680000231C48A1FB0001FEF72AFD174B5B680C
:10177800C3F3014301335B00B0FBF3F0BDE8F08B2A
:10178800124B5B68C3F388131E4600275C010025D3
:10179800E41A65EB0705A90141EA9461A001001B61
:1017A80061EB0501CB0043EA5073C400A01943EB79
:1017B80007018B0243EA905384022046194600230E
:1017C800FEF7FEFCD2E70348704700BF003802402E
:1017D8000024F400001BB700002800F09E8070B5BC
:1017E8000446504B1B6803F007038B4209D2CBB267
:1017F8004C4A1370136803F007038B4201D0012091
:1018080070BD236813F0020F17D013F0040F04D033
:10181800454A936843F4E0539360236813F0080F34
:1018280004D0414A936843F4604393603E4A936806
:1018380023F0F003A068034393600D46236813F078
:10184800010F32D06368012B21D09A1E012A25D9B5
:10185800354A126812F0020F61D033498A6822F0C3
:10186800030213438B60FFF7DBF906462E4B9B6898
:1018780003F00C036268B3EB820F16D0FFF7D0F9C0
:10188800801B41F288339842F0D90320B8E7264AF2
:10189800126812F4003FE0D10120B1E7224A126831
:1018A80012F0007FD9D10120AAE71E4B1B6803F074
:1018B8000703AB4209D9EAB21A4B1A701B6803F046
:1018C8000703AB4201D001209AE7236813F0040F05
:1018D80006D0154A936823F4E053E1680B439360FC
:1018E800236813F0080F07D00F4A936823F4604366
:1018F800216943EAC1039360FFF71AFF0A4B9B680B
:10190800C3F30313094AD35CD840094B1860094B49
:101918001868FFF739F9002072E7012070470120A5
:101928006EE700BF003C024000380240382D000836
:101938000000002008000020014B1868704700BF15
:101948000000002008B5FFF7F7FF044B9B68C3F3BE
:101958008223034AD35CD84008BD00BF0038024048
:10196800482D000808B5FFF7E7FF044B9B68C3F351
:101978004233034AD35CD84008BD00BF0038024058
:10198800482D00082DE9F04383B004460F4616465B
:101998001D46FFF745F90A9B181A00EB0508FFF7E3
:1019A8003FF981462A4B1B68C3F3CB3308FB03F38B
:1019B800019323689B6837EA03030CBF01230023C4
:1019C800B34240D0B5F1FF3FF3D0FFF729F9A0EBC0
:1019D800090040450AD2B8F1000F07D0019B0BB9A6
:1019E8004FF00008019B013B0193E2E7226853682E
:1019F80023F0E00353606368B3F5827F0BD0A36ADA
:101A0800B3F5005F14D0012384F85130002384F823
:101A18005030032018E0A368B3F5004F02D0B3F5A7
:101A2800806FECD12268136823F040031360E6E767
:101A38002268136823F4005313602268136843F480
:101A480000531360DFE7002003B0BDE8F08300BF58
:101A58000000002030B585B0164C2468164DA5FB53
:101A68000434640D4FF47A7505FB04F40394446858
:101A7800B4F5827F0BD0039BC3B1039B013B039357
:101A880003689B6813F0800FF5D100230FE00B4625
:101A98000446009200228021FFF774FF034630B10C
:101AA800636D43F020036365032300E000231846B9
:101AB80005B030BD00000020819F5E1600285AD076
:101AC80010B50446436A33B94368B3F5827F05D03D
:101AD8000023C36102E00023036143610023A36282
:101AE80094F85130002B40D0022384F851302268FA
:101AF800136823F040031360636803F48273A268D9
:101B080002F404421343E26802F4006213432269B8
:101B180002F002021343626902F001021343A26950
:101B280002F400721343E26902F038021343226A96
:101B380002F080021343A26A02F4005221681343A0
:101B48000B60638B03F00403626A02F010022168E1
:101B580013434B602268D36923F40063D3610020E8
:101B68006065012384F8513010BD84F85030204658
:101B7800FEF702FEB8E7012070472DE9F04383B075
:101B8800DDF8288090F85040012C00F00B811D46AC
:101B980017460E460446012380F85030FFF740F8F8
:101BA800814694F85100C0B26368012815D0B3F596
:101BB800827F0AD00223012284F85120002284F86F
:101BC8005020184603B0BDE8F083A368002B40F00E
:101BD800DB80042801D00223EDE7002E00F0D68038
:101BE800002F00F0D580002D00F0D48094F85130FB
:101BF800DBB2042B02D0052384F85130002363653F
:101C0800A763E587A5872663E586A58623646364BD
:101C180023681A6812F0400F03D11A6842F0400294
:101C28001A60E368B3F5006F10D063680BB1012D3B
:101C38000AD1226B236812781A73236B013323634A
:101C4800E38E013B9BB2E386012569E063680BB133
:101C5800012D0AD1226B23681288DA60236B0233C4
:101C68002363E38E013B9BB2E38601251BE02368D7
:101C78009A6812F0010F0DD0E28F92B252B1DA6871
:101C8800A36B1A80A36B0233A363E38F013B9BB260
:101C9800E3870125FEF7C4FFA0EB0900404502D306
:101CA800B8F1FF3F78D1E38E9BB21BB9E38F9BB2AB
:101CB800002B52D023689A6812F0020FD7D0E28E18
:101CC80092B2002AD3D0002DD1D0226B1288DA60CC
:101CD800236B02332363E38E013B9BB2E38600252B
:101CE800C5E723689A6812F0010F0DD0E28F92B20F
:101CF80052B1DA68A36B1A70A36B0133A363E38F45
:101D0800013B9BB2E3870125FEF78AFFA0EB0900A0
:101D1800404502D3B8F1FF3F40D1B8F1000F3FD0A2
:101D2800E38E9BB213B9E38F9BB2B3B123689A6871
:101D380012F0020FD5D0E28E92B2002AD1D0002D37
:101D4800CFD0226B12781A73236B01332363E38E8F
:101D5800013B9BB2E3860025C3E74A46414620463D
:101D6800FFF778FE034618B120236365012322E7B5
:101D7800A268002A7FF41FAF01922268D1680191FE
:101D880092680192019A16E7022314E7012312E7E9
:101D9800012310E701230EE703230CE703230AE7D7
:101DA800032308E702230CE730B4036A23F0010396
:101DB8000362056A4268846924F073040B681C4353
:101DC80025F002058B682B43104DA84203D005F57A
:101DD8008065A84205D123F00803CD682B4323F082
:101DE80004030A4DA84203D005F58065A84205D131
:101DF80022F440724D6915438A692A43426084611E
:101E08004A684263036230BC704700BF000001406B
:101E180030B4036A23F480730362036A4268C469B6
:101E280024F073040D682C4323F400738D6843EA8F
:101E38000523124DA84203D005F58065A84206D1B6
:101E480023F40063CD6843EA052323F480630B4D34
:101E5800A84203D005F58065A84207D122F4405274
:101E68004D6942EA05128D6942EA05124260C46171
:101E78004A68C263036230BC704700BF000001407B
:101E880030B4036A23F480530362036A4468C26966
:101E980022F4E6420D6842EA052223F400538D68D5
:101EA80043EA0533094DA84203D005F58065A842E9
:101EB80004D124F480444D6944EA85144460C26125
:101EC8004A680264036230BC704700BF00000140EA
:101ED800704700000368304A904212D0B0F1804F3A
:101EE8000FD0A2F57C4290420BD002F5806290425E
:101EF80007D002F58062904203D002F57842904202
:101F080003D123F070034A681343234A90422AD02E
:101F1800B0F1804F27D0A2F57C42904223D002F541
:101F2800806290421FD002F5806290421BD002F579
:101F38007842904217D002F57052904213D002F5C1
:101F4800806290420FD002F5806290420BD0A2F5D9
:101F58009832904207D002F58062904203D002F591
:101F68008062904203D123F44073CA68134323F07C
:101F780080034A69134303608B68C3620B688362FA
:101F8800054B984203D003F58063984201D10B6951
:101F980003630123436170470000014038B310B563
:101FA800044690F83D30EBB1022384F83D30211D02
:101FB8002068FFF78FFF012384F8463084F83E300D
:101FC80084F83F3084F8403084F8413084F8423057
:101FD80084F8433084F8443084F8453084F83D3040
:101FE800002010BD80F83C30FEF7AAFCDCE7012099
:101FF800704738B310B5044690F83D30EBB1022372
:1020080084F83D30211D2068FFF764FF012384F820
:10201800463084F83E3084F83F3084F8403084F805
:10202800413084F8423084F8433084F8443084F8EE
:10203800453084F83D30002010BD80F83C30FFF773
:1020480047FFDCE70120704730B4036A23F0100330
:102058000362036A4468826922F4E6420D6842EA30
:10206800052223F020038D6843EA0513114DA84289
:1020780003D005F58065A84206D123F08003CD681A
:1020880043EA051323F040030A4DA84203D005F59F
:102098008065A84207D124F440644D6944EA850468
:1020A8008D6944EA8504446082614A6882630362F8
:1020B80030BC70470000014038B590F83C30012B27
:1020C80060D00D460446012380F83C300C2A1AD80B
:1020D800DFE802F0071919191D1919193119191909
:1020E80044000068FFF760FE2268936943F0080324
:1020F80093612268936923F00403936122689369CA
:1021080029690B439361002084F83C0038BD0068BE
:10211800FFF79AFF2268936943F40063936122688A
:10212800936923F48063936122689369296943EA78
:1021380001239361E7E70068FFF76AFE2268D36925
:1021480043F00803D3612268D36923F00403D36101
:102158002268D36929690B43D361D4E70068FFF784
:102168008FFE2268D36943F40063D3612268D36980
:1021780023F48063D3612268D369296943EA012380
:10218800D361C0E70220C1E70268D36823F49073E3
:10219800D3600268536923F001035361036B012B79
:1021A80005D0202380F83E3000230363704702687F
:1021B800D36823F01003D360F3E790F83D30DBB227
:1021C800212B27D18368B3F5805F16D0036A5A1C88
:1021D80002621A7803685A60C38C013B9BB2C384BD
:1021E800D3B90268D36823F08003D3600268D36848
:1021F80043F04003D360002070470369002BE5D10A
:10220800036A1B880268C3F308035360036A023336
:102218000362E1E702207047002070472DE9F04B88
:1022280004460268136923F44053C1680B431361E1
:1022380083680269134342691343C2691A430168F8
:10224800CB6823F4164323F00C031343CB600268D6
:10225800536923F4407381690B43536103683A4A15
:10226800934206D002F58062934202D0FFF76AFBE0
:1022780001E0FFF777FBE369B3F5004F30D04FF08B
:102288000009061849EB090716EB000B47EB090C88
:102298004FEACC0343EA5B734FEACB0293469C4672
:1022A80063689A009B0F10EB0B0049EB0C01FDF7DC
:1022B80087FF264DA5FB00325109642202FB11025B
:1022C80013013233A5FB03235B0903F0F00202EB91
:1022D800011203F00F03216813448B60BDE8F08BF3
:1022E80083464FF0000C06184CEB0C0716EB000861
:1022F80047EB0C094FEAC90343EA58734FEAC8028F
:102308009046994662680021921841EB01031BEB45
:1023180008004CEB0901FDF753FF0C4DA5FB0032FB
:102328005109642202FB1102D3003233A5FB0323B7
:102338005B095A0002F4F87202EB011203F007037A
:10234800216813448B60C9E7001001401F85EB51D9
:1023580058B310B5044690F83D300BB3242384F8E5
:102368003D302268D36823F40053D3602046FFF73A
:1023780055FF2268136923F4904313612268536957
:1023880023F02A0353612268D36843F40053D360CF
:1023980000202064202384F83D3084F83E3010BDAE
:1023A80080F83C30FEF768FBD8E70120704770479B
:1023B80008B50168CB6823F04003CB60202380F880
:1023C8003D30FFF7F4FF002008BD7047704708B59F
:1023D800806B0023C385C384FFF7F8FF08BD7047EF
:1023E80090F83E30DBB2222B50D18368B3F5805F82
:1023F80030D0826AB3F5805F04D0002B37D10369EF
:10240800002B34D103685B681370836A01338362DD
:10241800C38D013B9BB2C385002B39D110B504464F
:102428000268D36823F02003D3600268D36823F4DA
:102438008073D3600268536923F00103536120233A
:1024480080F83E30036B012B17D0FFF7BEFF00204A
:10245800206310BD0269002ACBD1826A03685B68D9
:10246800C3F308031380836A02338362D0E70368E7
:102478005B6803F07F031370C7E70268D36823F033
:102488001003D360818DFFF7AAFFE0E702207047B1
:102498000020704730B583B0044602681368D068DE
:1024A800516913F00F0505D113F0200F02D010F079
:1024B800200F56D1002D6AD011F0010102D110F47D
:1024C800907F64D013F0010F06D010F4807F03D002
:1024D800226C42F00102226413F0040F04D019B1F7
:1024E800226C42F00202226413F0020F04D019B1E8
:1024F800226C42F00402226413F0080F07D010F097
:10250800200F00D119B1226C42F008022264226C1B
:10251800002A4BD013F0200F02D010F0200F24D146
:1025280023685B6903F04003226C12F0080F00D1A6
:102538003BB32046FFF728FE23685A6912F0400F84
:102548001BD05A6922F040025A61A36B8BB14E4AE4
:102558001A65A06BFEF7FEFC40B3A06B036D9847AD
:1025680024E02046FFF73CFF20E02046FFF738FF35
:10257800D6E72046FFF72AFF18E02046FFF726FF98
:1025880014E02046FFF722FF002323640EE0216BAE
:1025980001290DD013F0800F02D010F0800F6AD1FE
:1025A80013F0400F02D010F0400F68D103B030BDD7
:1025B80013F0100FEED010F0100FEBD000230193A2
:1025C8001368019353680193019B536913F0400FFB
:1025D80030D0A16B0B685B689BB2002BE6D0A08D56
:1025E8009842E3D9E385CB69B3F5807F1AD0D368E5
:1025F80023F48073D3602268536923F00103536185
:102608002268536923F040035361202384F83E3045
:10261800002323632268D36823F01003D360A06BE0
:10262800FEF74EFCA18DE38DC91A89B22046FFF74B
:10263800D6FEBBE7A18DE38DC91A89B2E38D9BB2A3
:10264800002BB3D00029B1D0D36823F49073D360A2
:102658002268536923F001035361202384F83E3034
:10266800002323632268D36823F01003D360204635
:10267800FFF7B5FE9AE72046FFF79FFD96E720464D
:10268800FFF796FE92E700BFD72300087047704710
:1026980030B40C4A5568A82303FB00F09268002167
:1026A80005E0EC1A224411441A46814207D2054B30
:1026B8009B689A42FBD0F4D9D21A1144F4E730BC93
:1026C800704700BF10E000E010B504E04FF47A70E6
:1026D800FFF7DEFF2046431E9CB20028F6D110BD4E
:1026E80008B5002210210248FEF720FE08BD00BFF1
:1026F8000000024008B5012210210248FEF716FE2C
:1027080008BD00BF0000024008B5002201210248B0
:10271800FEF70CFE08BD00BF0004024008B5012208
:1027280011460248FEF702FE08BD00BF0004024041
:1027380000B587B08DF80F004FF47A73009301232A
:102748000DF117020DF10F010348FFF716FA9DF876
:10275800170007B05DF804FB3C05002010B50C46D7
:10276800FFF7E6FF2046FFF7E3FF10BD10B50C4664
:1027780040F08000FFF7DCFF5520FFF7D9FF2070FD
:1027880010BD38B50D46144640F08000FFF7D0FF65
:1027980006E05520FFF7CCFF05F8010B013CE4B239
:1027A800002CF6D138BD0000F8B5FFF799FF80205E
:1027B800FFF7BEFF5520FFF7BBFF5520FFF7B8FF17
:1027C800FFF798FF9620FFF763FFFFF789FF802048
:1027D800FFF7AEFF5520FFF7ABFF5520FFF7A8FF27
:1027E800FFF788FF9620FFF753FFFFF779FFB62121
:1027F8007E20FFF7B3FFFFF77DFF5020FFF764FF50
:10280800FFF76EFF8020FFF793FF5520FFF790FF3B
:102818005520FFF78DFFFFF76DFF9620FFF738FF74
:10282800FFF75EFF8020FFF783FF5520FFF780FF4B
:102838005520FFF77DFF0446FFF75CFF9620FFF762
:1028480027FF1E2C32D10024052C2DD8FFF748FF76
:10285800174A04EB4403D1184D78D65C2946304614
:10286800FFF77CFFFFF746FF9620FFF711FFFFF702
:1028780037FF46F08000FFF75BFF5520FFF758FF52
:102888005520FFF755FF0646FFF734FF9620FFF760
:10289800FFFEB54202D10134E4B2D5E704EB4407A8
:1028A800034B1F44B87802E0002000E0FF20F8BD89
:1028B800582D0008F0B583B0002502AC04F8015D7E
:1028C800FFF722FF21462846FFF750FFFFF726FFB4
:1028D8009620FFF7DDFEFFF717FF21462846FFF792
:1028E80045FFFFF71BFF9620FFF7D2FEFFF70CFF0F
:1028F800B6211420FFF732FFFFF710FF5020FFF733
:10290800E3FEFFF701FF21462846FFF72FFFFFF7F9
:1029180005FF9620FFF7BCFEFFF7F6FE2146284686
:10292800FFF724FFFFF7FAFE9620FFF7B1FE9DF8A8
:1029380007300F2B2ED12C46052C29D8FFF7E4FEA3
:10294800164A04EB4403D1184D78D65C2946304624
:10295800FFF704FFFFF7E2FE9620FFF799FEFFF767
:10296800D3FE0DF107013046FFF700FFFFF7D6FE53
:102978009620FFF78DFE9DF807309D4202D1013465
:10298800E4B2D9E704EB4407044B1F44B87802E0EB
:10299800002000E0FF2003B0F0BD00BF6C2D000850
:1029A80010B5FFF773FEFFF772FEFFF7FDFE044652
:1029B800FFF780FF2043C0B210BD0000F0B583B020
:1029C80007460E461446002500950195FFF788FE38
:1029D8009220FFF7ADFE062269461220FFF7D1FECE
:1029E800FFF788FE9DF801301B021BB29DF80020FE
:1029F800134307EE903AF8EEE77A474A92ED007AE9
:102A080067EE877AC6ED007A9DF803301B021BB289
:102A18009DF802100B4307EE103AD2ED006AB8EEAB
:102A2800C77A27EE267A86ED017A9DF805301B02D3
:102A38001BB29DF80420134307EE903AF8EEE77AAC
:102A480067EEA67AC6ED027AFFF75EFE08226946AF
:102A58002846FFF796FEFFF761FE9DF800300F2B22
:102A680027D0FFF73DFEA220FFF762FE022269464B
:102A78002220FFF786FEFFF73DFE9DF800209DF817
:102A880001305B0943EAC203B3F5806F01DBA3F5AC
:102A9800006307EE903AF8EEE77AB4EE007A67EE54
:102AA800877AB3EE077A77EE877AC4ED007A03B0B7
:102AB800F0BD9DF803301B021BB29DF802201343A2
:102AC80007EE903AF8EEE77A144A92ED007A67EE4C
:102AD800877AC7ED007A9DF805301B021BB29DF876
:102AE80004100B4307EE103AD2ED006AB8EEC77A2D
:102AF80027EE267A87ED017A9DF807301B021BB274
:102B08009DF80620134307EE903AF8EEE77A67EE51
:102B1800A67AC7ED027AA4E70C0000201000002076
:102B280070B50D4E0D4D761BB61006D0002401343D
:102B380055F8043B9847A642F9D1094E094D761B32
:102B480000F0EAF8B61006D00024013455F8043B2A
:102B58009847A642F9D170BD8C2D00088C2D00082D
:102B6800942D00088C2D0008F0B4860743D0541E1D
:102B7800002A3ED0CAB2034602E014F1FF3438D32B
:102B880003F8012B9D07F8D1032C2BD9CDB245EAC8
:102B980005250F2C45EA054516D9A4F110073F096C
:102BA80003F1200606EB071603F1100242E904556B
:102BB80042E902551032B242F8D104F00F0401374D
:102BC800032C03EB07130DD91E462246043A032AA9
:102BD80046F8045BFAD8221F22F003020432134499
:102BE80004F003042CB1C9B21C4403F8011B9C4235
:102BF800FBD1F0BC704714460346C5E7024B13B13E
:102C0800024800F005B8704700000000252C0008B5
:102C1800002301461A46184600F01EB838B50A4C7B
:102C28000A4D641BA4100AD004F18043013B05EB54
:102C38008305013C55F804399847002CF9D1BDE8C3
:102C4800384000F06FB800BF982D0008942D000898
:102C5800704700BF704700BF2DE9F8432B4D06466B
:102C6800286898460F469146FFF7F2FF284B1C68E4
:102C7800D4F84831002B3DD05A681F2A0DDC02F1E8
:102C8800010C16BB0232C3F804C0286843F822704E
:102C9800FFF7E0FF0020BDE8F8831E4B7BB34FF43D
:102CA800C870AFF30080034648B3D4F84821002128
:102CB800C0E900214FF0010CC4F848010A46C0F8E9
:102CC8008811C0F88C11002EDCD003EB820101249E
:102CD800C1F88890D3F8880194402043022EC3F8A5
:102CE8008801C1F80881CDD1D3F88C110C43C3F801
:102CF8008C41C7E704F5A673C4F84831BCE72868D7
:102D0800FFF7A8FF4FF0FF30C5E700BF40040020E1
:102D1800802D000800000000F8B500BFF8BC08BC12
:102D28009E467047F8B500BFF8BC08BC9E46704781
:102D38000000000000000000010203040607080963
:102D48000000000001020304000610160006101619
:102D58007D04017C000240AB03410005530806587E
:102D6800040700000F000810820911000A15800BE3
:0C2D780016000C18010D000018000020CF
:082D840074D4FF7F0100000080
:082D8C00052C0008AD01000850
:042D940089010008A9
:102D98000024F4000100000010000000E7416B3A35
:102DA80058A08B3A00000000000000000403002037
:102DB8006C030020D4030020000000000000000085
:102DC80000000000000000000000000000000000FB
:102DD80000000000000000000000000000000000EB
:102DE80000000000000000000000000000000000DB
:102DF80000000000000000000000000000000000CB
:102E080000000000000000000000000000000000BA
:102E180000000000000000000000000000000000AA
:102E2800000000000000000000000000000000009A
:102E3800000000000000000000000000000000008A
:102E4800000000000000000000000000000000007A
:102E580001000000000000000E33CDAB34126DE617
:102E6800ECDE05000B000000000000000000000080
:102E7800000000000000000000000000000000004A
:102E8800000000000000000000000000000000003A
:102E9800000000000000000000000000000000002A
:102EA800000000000000000000000000000000001A
:0431D8008406002049
:0400000508000B3DA7
:00000001FF
